:100000000C9482010C9482250C945B250C94FD25A4
:100010000C94A9250C9407260C94AA010C9437245F
:100020000C94AA010C94AA010C94AA010C94AA01A4
:100030000C94AA010C94AA010C94AA010C94AA0194
:100040000C9411250C94AA010C94DF240C94B9246F
:100050000C94AA010C94AA010C94AA010C94AA0174
:100060000C94AA010C94AA0100407A10F35A00A043
:10007000724E18090010A5D4E80000E87648170071
:1000800000E40B54020000CA9A3B000000E1F505B1
:10009000000080969800000040420F000000A086FB
:1000A00001000000102700000000E803000000002D
:1000B0006400000000000A000000000001000000D1
:1000C00000002C76D888DC674F0823DFC1DFAE59EB
:1000D000E1B1B796E5E3E453C63AE651997696E87E
:1000E000E6C28426EB898C9B62ED407C6FFCEFBC02
:1000F0009C9F40F2BAA56FA5F490055A2AF75C932D
:100100006B6CF9676DC11BFCE0E40D47FEF520E662
:10011000B500D0ED902E0300943577050080841E45
:10012000080000204E0A000000C80C333333330FA0
:10013000986E12831141EF8D2114893BE65516CF3D
:10014000FEE6DB18D1844B381BF77C1D901DA4BB49
:10015000E424203284725E228100C9F124ECA1E5FE
:100160003D274D6F7665205A004D6F76652059000A
:100170004D6F76652058004261636B004E6F2053CF
:1001800044204361726400434E432046726F6D20E9
:1001900053440053657474696E6700436F6E7472E4
:1001A0006F6C004D61696E0053746F7020434E4355
:1001B00000526573756D6520434E43005061757341
:1001C0006520434E4300436F6E74726F6C004D6147
:1001D000696E004772626C204D6F6465005A6F72E1
:1001E0006520506F73004D6F76652041786973000C
:1001F0005370696E646C6520537065656400417569
:10020000746F20486F6D65004261636B0042757AC0
:100210007A657200426175642052617465004175AF
:10022000746F2052756E004261636B004261636BB4
:10023000004E6F00596573004261636B00313135C8
:10024000323030003537363030003338343030001B
:1002500031393230300039363030004261636B0062
:100260004C61736572005370696E646C6500426125
:10027000636B004D6F766520302E316D6D004D6FD4
:10028000766520316D6D004D6F76652031306D6D76
:10029000004261636B0000000000240027002A0078
:1002A00000000000230026002900000000080002D2
:1002B000010000030407000000000000000001022C
:1002C00004081020408001020408102001020408E4
:1002D000102000000000250028002B000404040466
:1002E00004040404020202020202030303030303E0
:1002F000027C3C3E5E2B3D3F2F5B5D3B2C2A225C0B
:100300000000112611241FBECFEFD8E0DEBFCDBF05
:1003100027E0AEE0B2E001C01D92A132B207E1F7E2
:1003200012E0A0E0B1E0EAE6F5E602C005900D9229
:10033000AE30B107D9F711E0C2E8D1E004C021978F
:10034000FE010E947330C138D107C9F70E94E92627
:100350000C94B3320C9400009B01AC01E091FA05BF
:10036000F091FB0582E08083211581EE380741057D
:100370005105E9F160E079E08DE390E00E945130B1
:1003800021503109410951095695479537952795CF
:10039000E091F605F091F7051082E091F805F091F3
:1003A000F905208310920206E091FE05F091FF0509
:1003B00086E08083E091FC05F091FD0580818061FD
:1003C0008083E091FC05F091FD0580818860808349
:1003D000E091FC05F091FD05808180688083E091CB
:1003E000FC05F091FD0580818F7D80830895E0916B
:1003F000FA05F091FB05108220E1CACFE0910007D9
:10040000F0910107309759F08581823040F01682D3
:100410001782108611861286138614861586089513
:10042000DC01ED91FC910190F081E02D0994AF92F7
:10043000BF92CF92DF92EF92FF920F931F93CF93D1
:10044000DF936C017B018B01040F151FEB015E0133
:10045000AE18BF08C017D10759F06991D601ED91C8
:10046000FC910190F081E02DC6010995892B79F767
:10047000C501DF91CF911F910F91FF90EF90DF9019
:10048000CF90BF90AF900895FC01538D448D252FE0
:1004900030E0842F90E0821B930B541710F0CF961E
:1004A000089501970895FC01918D828D981761F050
:1004B000A28DAE0FBF2FB11D5D968C91928D9F5F67
:1004C0009F73928F90E008958FEF9FEF0895FC0146
:1004D000918D828D981731F0828DE80FF11D858DF9
:1004E00090E008958FEF9FEF0895FC01918D228D8C
:1004F000892F90E0805C9F4F821B91098F73992711
:1005000008958AEE95E00E94750221E0892B09F496
:1005100020E0822F089580E090E0892B29F00E944E
:10052000810281110C9400000895FC01A48DA80F94
:10053000B92FB11DA35ABF4F2C91848D90E0019625
:100540008F739927848FA689B7892C93A089B18945
:100550008C91837080648C93938D848D981306C0E6
:100560000288F389E02D80818F7D80830895EF924A
:10057000FF920F931F93CF93DF93EC0181E0888F5D
:100580009B8D8C8D98131AC0E889F989808185FF2D
:1005900015C09FB7F894EE89FF896083E889F989CF
:1005A00080818370806480839FBF81E090E0DF91D1
:1005B000CF911F910F91FF90EF900895F62E0B8D24
:1005C00010E00F5F1F4F0F731127E02E8C8D8E11DF
:1005D0000CC00FB607FCFACFE889F989808185FF46
:1005E000F5CFCE010E949502F1CFEB8DEC0FFD2FE0
:1005F000F11DE35AFF4FF0829FB7F8940B8FEA8901
:10060000FB8980818062CFCFCF93DF93EC01888D0F
:100610008823B9F0AA89BB89E889F9898C9185FD7D
:1006200003C0808186FD0DC00FB607FCF7CF8C910B
:1006300085FFF2CF808185FFEDCFCE010E9495022C
:10064000E9CFDF91CF910895833081F028F4813094
:1006500099F08230A9F008958730A9F08830C9F068
:100660008430B1F4809180008F7D03C08091800040
:100670008F7780938000089584B58F7784BD089527
:1006800084B58F7DFBCF8091B0008F778093B000D1
:1006900008958091B0008F7DF9CFCF93DF93282FFD
:1006A00030E0F901E655FD4F8491F901E254FD4F28
:1006B000D491F901E452FD4FC491CC23A1F08111F2
:1006C0000E942403EC2FF0E0EE0FFF1FE056FD4FD9
:1006D000A591B491EC91ED2381E090E009F480E0E4
:1006E000DF91CF91089580E090E0FACFCF93DF9330
:1006F00082E00E944D03EC0183E00E944D03CC0F89
:10070000DD1F8C2B9D2B2091120230911302220FA2
:10071000331F220F331F282B392B2D30310549F081
:100720002430310531F02230310519F02B303105FC
:1007300051F440915002509151024F5F5F4F5093DE
:100740005102409350022E30310549F0A901475023
:1007500051094230510518F02130310551F42091F2
:1007600050023091510221503109309351022093AF
:100770005002909313028093120281E08093B5039C
:10078000DF91CF9108951F93CF93DF93282F30E00F
:10079000F901E655FD4F8491F901E254FD4FD491E2
:1007A000F901E452FD4FC491CC23A9F0162F811119
:1007B0000E942403EC2FF0E0EE0FFF1FEE52FD4FDE
:1007C000A591B4918FB7F894EC91111108C0D09510
:1007D000DE23DC938FBFDF91CF911F910895DE2B35
:1007E000F8CFCF93DF9390E0FC01E254FD4F2491CA
:1007F00084529D4FFC0184918823D1F090E0880FB2
:10080000991FFC01EA56FD4FA591B491FC01EE52EF
:10081000FD4FC591D49161110EC09FB7F8948C9192
:10082000E22FE0958E238C932881E223E8839FBFFB
:10083000DF91CF9108958FB7F894EC91E22BEC9370
:100840008FBFF6CFCF9380911E01803121F08F3F73
:1008500061F1CF910895E0EFF2E0C491C7FDF9CFC7
:1008600061E080E10E94F103CC2309F48CC0C23026
:1008700009F0A1C08091B100887F82608093B100AF
:1008800087EC8093B30084EF91E0A0E0B0E0809328
:10089000BC039093BD03A093BE03B093BF038091AC
:1008A0007000826080937000D4CF80E180931E013D
:1008B000E0EFF2E0C491CF3F61F2C13021F150F09E
:1008C000C23009F43EC0C7FDC4CF61E080E10E94A0
:1008D000F103CDCF14BC15BC84B5826084BD85B551
:1008E000816085BDECEEF2E0E491F0E0EE0FFF1FD9
:1008F000EE52FD4F85919491EEECF2E0E491E0939D
:10090000BB03C0E0ADCF10928000109281008091B7
:100910008100886080938100809181008160809354
:100920008100ECEEF2E0E491F0E0EE0FFF1FEE52FA
:10093000FD4F85919491EEECF2E0E491E093BA03DF
:100940008FCF1092B0001092B1008091B000826001
:100950008093B0008091B10081608093B100ECEE93
:10096000F2E0E491F0E0EE0FFF1FEE52FD4F8591B3
:1009700094919093B9038093B803EEECF2E0E49184
:10098000E093B7036DCF85B5887F826085BD87EC26
:1009900087BD84EF91E0A0E0B0E08093C403909322
:1009A000C503A093C603B093C70380916E00826015
:1009B00080936E004ECFC130F1F480918100887F2A
:1009C0008160809381008FE396E09093890080930B
:1009D000880084EF91E0A0E0B0E08093C0039093A2
:1009E000C103A093C203B093C30380916F008260E0
:1009F00080936F002ECFC23021F0C1112ACF8FE338
:100A0000C7CF8FE33ECF3FB7F89480915E029091BD
:100A10005F02A0916002B091610226B5A89B05C05B
:100A20002F3F19F00196A11DB11D3FBFBA2FA92F6D
:100A3000982F8827BC01CD01620F711D811D911D6A
:100A400042E0660F771F881F991F4A95D1F70895D6
:100A50008F929F92AF92BF92CF92DF92EF92FF92CE
:100A60004B015C010E9403056B017C010E940305A0
:100A70006C197D098E099F09683E734081059105B7
:100A8000A8F321E0821A9108A108B10888EEC80EE7
:100A900083E0D81EE11CF11C81149104A104B1046F
:100AA00029F7FF90EF90DF90CF90BF90AF909F908D
:100AB0008F9008952FB7F89460915A0270915B025D
:100AC00080915C0290915D022FBF08950F931F9358
:100AD0000E945A056093F2057093F3058093F40524
:100AE0009093F5058AEE95E00E94530297FF1DC092
:100AF0000E945A050091F2051091F3052091F4052A
:100B00003091F505601B710B820B930B0091EE0584
:100B10001091EF052091F0053091F10560177107F4
:100B200082079307F8F28FEF9FEF1F910F910895BF
:100B300008958FB7F894809154028FBF089561E0B3
:100B4000FC0184810E94C3038091530281111092A1
:100B5000530208958EBD00000DB407FEFDCF8EB583
:100B600008958FEF0C94AA050F931F93CF93DF93F3
:100B7000EC010E945A058B010E94B1058F3F69F07C
:100B80000E945A05601B710B6C177D07A8F380E06B
:100B9000DF91CF911F910F91089581E0F9CF8CBD26
:100BA0009DBD0895CF93DF93EC0180915302811195
:100BB00009C081E080935302809187069091880656
:100BC0000E94CF0560E08C81DF91CF910C94C3032C
:100BD0008F929F92AF92BF92FF920F931F93CF93EA
:100BE000DF93EC01F62E49015A018E81882389F0AA
:100BF0008F8198859C012F5F3F4F38872F838230EC
:100C0000924018F40E94B105F3CFCE010E949F05D7
:100C10001E82CE010E94D2058CE291E00E94B405B2
:100C20008F2D80640E94AA0508E110E0D501C4015F
:100C3000002E04C0B695A795979587950A94D2F78C
:100C40000E94AA0508501109083F8FEF180771F795
:100C500085E9FF2021F028E087E8F2128FEF0E945B
:100C6000AA0510E00E94B1058A8787FF04C01F3FD4
:100C700011F01F5FF7CFDF91CF911F910F91FF9080
:100C8000BF90AF909F908F900895AF92BF92CF92F8
:100C9000DF92EF92FF920F931F93CF93DF93EC01BC
:100CA0006901C801820F931F8130924050F58E81F7
:100CB000882379F088819981AA81BB81841795075F
:100CC000A607B70731F48F819885C816D90608F0B2
:100CD00042C0488359836A837B838B85833039F094
:100CE00089E0440F551F661F771F8A95D1F79A0137
:100CF000AB0161E1CE010E94E805882389F083E021
:100D00008D83CE010E949F0580E0DF91CF911F91DE
:100D10000F91FF90EF90DF90CF90BF90AF9008952C
:100D20000E945A055B010E94B1058A878F3F69F4D2
:100D30000E945A056A197B096D327140A0F38FE059
:100D40008D83CE010E949F05DCCF8E3F89F41886EB
:100D50001F8281E08E838F8198858C159D0550F4CC
:100D60000E94B1058F819885019698878F83F3CF74
:100D70008DE0E6CF6701E00EF11E0E94B105F6019D
:100D800081936F01EE15FF05C1F78F819885080FDC
:100D9000191F18870F838985882319F001151240C0
:100DA000A0F08E81882389F08F8198859C012F5F28
:100DB0003F4F38872F838230924018F40E94B1054C
:100DC000F3CFCE010E949F051E8281E09ECFCF927D
:100DD000DF92EF92FF920F93CF93DF93EC016901C3
:100DE00082E1411551056105710599F08B858330CC
:100DF00039F089E0440F551F661F771F8A95D1F798
:100E00009A01AB0168E1CE010E94E805882319F040
:100E100084E08D832DC08EEF0E94AA0576018EEFAF
:100E2000D81AF70181917F010E94AA05EC14FD04F4
:100E3000C1F78FEF0E94AA058FEF0E94AA050E94BA
:100E4000B1058A878F71853071F4011116C0CE010A
:100E50000E949F0581E0DF91CF910F91FF90EF906D
:100E6000DF90CF90089581E18D83CE010E949F0590
:100E7000CE010E949F0580E0EECF88E592E00E94BF
:100E8000B405811102C085E1C4CF20E030E0A901A2
:100E90006DE0CE010E94E805882311F084E1B9CF0E
:100EA0000E94B1058111FACFD2CF0F934091550224
:100EB00050915602609157027091580241155105A8
:100EC0006105710599F0082F2AEE33E08091E70360
:100ED0009091E8030E94E706882349F0109255029A
:100EE00010925602109257021092580281E00F9110
:100EF00008950F93CF93C82F8091E903811105C006
:100F0000C1E08C2FCF910F910895409137015091FE
:100F100038016091390170913A010C2F2AEE33E0CB
:100F20008091E7039091E8030E94E706811102C0D7
:100F3000C0E0E7CFCC2321F381E00E94550788234E
:100F4000B9F31092E903DDCF8F929F92AF92BF92D7
:100F5000EF92FF920F931F93CF934B015C01C42F2D
:100F60008091370190913801A0913901B0913A01F7
:100F700088159905AA05BB0551F181E00E94790702
:100F800081110BC080E0CF911F910F91FF90EF90E6
:100F9000BF90AF909F908F9008958AEEE82E83E0E7
:100FA000F82E00E012E030E020E0B501A4018091CD
:100FB000E7039091E8030E944506882319F3809285
:100FC000370190923801A0923901B0923A014091D4
:100FD000E9034C2B4093E90381E0D5CF8F929F9298
:100FE000AF92BF92CF92DF92EF92FF92CF9329E818
:100FF00036E03093E8032093E703882309F46DC0BB
:1010000040E060E070E0CB010E94A40781110BC0BA
:1010100080E0CF91FF90EF90DF90CF90BF90AF90A6
:101020009F908F9008958091A8058F7789F7809180
:10103000B4059091B505A091B605B091B705843679
:101040009105A105B10520F3C090B005D090B10580
:10105000E090B205F090B305C114D104E104F104AD
:10106000B9F240E0C701B6010E94A407882381F2CB
:101070008091F5039091F6038115924049F6A09175
:10108000FA03AA2329F26091F8037091F90361151C
:10109000710509F4BDCF2091F703222309F4B8CFDD
:1010A000A093A7062093990690E080E030E0E1E06D
:1010B000F0E0C82FAF01082E02C0440F551F0A945C
:1010C000E2F72417350769F041E0480F01968930AF
:1010D000910579F74093A2069BCFC12CD12C7601C4
:1010E000C0CF8093A206209100043091010450E00B
:1010F00040E02115310541F420910E0430910F0498
:10110000409110045091110420939A0630939B064D
:1011100040939C0650939D0646015701860E971EEC
:10112000A11CB11C8092A8069092A906A092AA06C2
:10113000B092AB06E091FB03F091FC03F093AE0696
:10114000E093AD06B0E00E948E2FDC01CB01880D4C
:10115000991DAA1DBB1D8093AF069093B006A09366
:10116000B106B093B20625E0EE0FFF1F2A95E1F716
:10117000E150FE4FEF2FFF27E6958E0F9F1FA11D19
:10118000B11D8093A3069093A406A093A506B093E7
:10119000A6068090FD039090FE03B12CA12C811433
:1011A000910441F480900A0490900B04A0900C04E8
:1011B000B0900D04C81AD90AEA0AFB0AC80CD91C57
:1011C000EA1CFB1C04C0F694E794D794C794CA9514
:1011D000D2F7C0929E06D0929F06E092A006F092AF
:1011E000A10685EFC8168FE0D806E104F10428F4C3
:1011F0008CE08093AC0681E00CCF80E125EFC21635
:101200002FEFD206E104F104A0F38091160490912F
:101210001704A0911804B09119048093AF0690931D
:10122000B006A093B106B093B20680E2E2CF4F922F
:101230005F926F927F928F929F92AF92BF92CF9266
:10124000DF92EF92FF920F931F93CF93DF93EC0106
:10125000423051056105710590F480E0DF91CF9136
:101260001F910F91FF90EF90DF90CF90BF90AF90C4
:101270009F908F907F906F905F904F900895898599
:101280009A85AB85BC850196A11DB11D8417950774
:10129000A607B70710F3CB88DC88ED88FE888F8916
:1012A000803109F042C0BB27A72F962F852F480118
:1012B00059012A013B01C80ED91EEA1EFB1E80916E
:1012C000370190913801A0913901B0913A01C816C7
:1012D000D906EA06FB0699F58F898031C1F5B3017D
:1012E000A201552766277727440F551F46515C4FAB
:1012F000FA01918280828091E90381608093E90301
:101300008A89823080F08D819E81AF81B8858C0D75
:101310009D1DAE1DBF1D8093550290935602A09354
:101320005702B093580281E099CFDB01CA01E7E090
:10133000B695A79597958795EA95D1F7B8CF40E0F0
:10134000C701B6010E94A4078111C6CF86CFB301A1
:10135000A2014F77552766277727440F551F440F63
:10136000551F46515C4FFA0180829182A282B3825E
:10137000C2CF8F929F92AF92BF92CF92DF92EF92A5
:10138000FF920F931F93CF93DF93FC01818592858A
:10139000A385B4850196A11DB11D84179507A607E5
:1013A000B70770F480E0DF91CF911F910F91FF900C
:1013B000EF90DF90CF90BF90AF909F908F90089567
:1013C00083889488A588B6888789803189F5BB276A
:1013D000A72F962F852FE9016A017B018F01BC01A0
:1013E000CD01680D791D8A1D9B1D8090370190905D
:1013F0003801A0903901B0903A0186169706A806E8
:10140000B90601F5F8018789803111F5DD24EE2454
:10141000FF24F601EE0FFF1FE651FC4F8081918102
:10142000B0E0A0E088839983AA83BB8381E0BBCF2F
:10143000DB01CA01C7E0B695A79597958795CA9530
:10144000D1F7C9CF40E00E94A4078111DBCFAACF1A
:10145000E894C7F8DD24EE24FF24F601EE0FFF1F09
:10146000EE0FFF1FE651FC4F80819181A281B38175
:10147000BF70D8CF4F925F926F927F92AF92BF9220
:10148000CF92DF92EF92FF920F931F93CF93DF9350
:1014900000D000D0CDB7DEB78C0149835A836B836F
:1014A0007C835901C12CD12C7601412C82E0582E2D
:1014B000612C712C49815A816B817C819E012F5F47
:1014C0003F4FC8010E94B909882339F1F801858589
:1014D000A301920104C0220F331F441F551F8A9598
:1014E000D2F7DA01C901C80ED91EEA1EFB1E4981D6
:1014F0005A816B817C818789803111F188EF9FEF60
:10150000AFEFBFE0481759076A077B0798F2F5016C
:10151000C082D182E282F38281E00F900F900F901F
:101520000F90DF91CF911F910F91FF90EF90DF907F
:10153000CF90BF90AF907F906F905F904F90089545
:1015400088EF9FEFA0E0B0E0DDCFCF93DF93FC0109
:101550002581222321F080E0DF91CF910895EC01D5
:101560008091AC06803159F582E08583178A108E10
:10157000118E128E8091AD069091AE06B0E0A0E083
:1015800025E0880F991FAA1FBB1F2A95D1F7838BCF
:10159000948BA58BB68B85E996E09C8F8B8F81E031
:1015A0008C831E821F82188619861A861B861C86CB
:1015B0001D861E861F86188A198A1A8ACDCF803208
:1015C00051F683E085834091AF065091B00660915B
:1015D000B1067091B206478B508F618F728F9F0159
:1015E0002D5E3F4F85E996E00E943A0A8111D3CFE4
:1015F000B2CF8F929F92AF92BF92CF92DF92EF9233
:10160000FF920F931F93CF93DF93EC018D81811194
:101610000EC080E0DF91CF911F910F91FF90EF906E
:10162000DF90CF90BF90AF909F908F9008950B89DF
:101630001C892D893E89041715072607370748F3AB
:101640004A015B01823031F48A869B86AC86BD8676
:1016500081E0E0CF81149104A104B10449F41E8219
:101660001F82188619861A861B861C861D86F0CF57
:101670000A851B852C853D85EB8DFC8D858590E04D
:101680000996B901A8014150510961097109082E53
:1016900004C076956795579547950A94D2F77501DA
:1016A0006401E1E0CE1AD108E108F10804C0F69423
:1016B000E794D794C7948A95D2F7C416D506E60660
:1016C000F70620F0012B022B032B11F58F89988D43
:1016D000A98DBA8D8E839F83A887B9878E010A5FF3
:1016E0001F4FC114D104E104F10409F4ADCF4E81C0
:1016F0005F816885798598018B8D9C8D0E94B909E1
:1017000091E0C91AD108E108F1088111EACF81CF2F
:10171000C41AD50AE60AF70AE1CF3F924F925F92C8
:101720006F927F928F929F92AF92BF92CF92DF92F1
:10173000EF92FF920F931F93CF93DF93CDB7DEB756
:101740002C970FB6F894DEBF0FBECDBF5C01DC0155
:101750005B968D909C905C9716964D905D906D90E9
:101760007C901997411451046104710409F468C014
:10177000BFEF4B1A5B0A6B0A7B0A312CF40181859F
:101780009285A385B4859C01AD012F5F3F4F4F4FDC
:101790005F4F29873A874B875C87730162011D82FF
:1017A0001E821F821886F40181859285A385B485E7
:1017B0002D813E814F815885281739074A075B07DD
:1017C00008F056C089859A85AB85BC858C159D052A
:1017D000AE05BF0550F482E0C82ED12CE12CF12CCF
:1017E00092E0492E512C612C712C9E012F5F3F4FAE
:1017F000B701A601C4010E94B9098823C9F18981F2
:101800009A81AB81BC81892B8A2B8B2B09F1260114
:1018100037019FEF491A590A690A790A2D813E81D9
:101820004F8158852F5F3F4F4F4F5F4F2D833E8332
:101830004F8358873FEFC31AD30AE30AF30AB3CFA3
:10184000F40140805180628073803324339496CFBA
:10185000C414D504E604F70409F70FEF1FEF2FEFC8
:101860003FE0B701A601C4010E941709811119C008
:1018700080E02C960FB6F894DEBF0FBECDBFDF918F
:10188000CF911F910F91FF90EF90DF90CF90BF907D
:10189000AF909F908F907F906F905F904F903F9010
:1018A0000895D50116964D915D916D917C91199792
:1018B000411551056105710539F097018601C40193
:1018C0000E9417098823A1F2D5011696CD92DD92C8
:1018D000ED92FC921997332051F0D701C601019681
:1018E000A11DB11DF40180839183A283B383F5010F
:1018F0008789908DA18DB28D892B8A2B8B2B39F402
:101900008481C78AD08EE18EF28E80688483F5014F
:1019100084818062848381E0ACCF2F923F924F928A
:101920005F926F927F928F929F92AF92BF92CF926F
:10193000DF92EF92FF920F931F93CF93DF93EC010F
:101940005B012A018D81811115C08FEF9FEFDF911F
:10195000CF911F910F91FF90EF90DF90CF90BF90AC
:10196000AF909F908F907F906F905F904F903F903F
:101970002F9008958C8180FFE8CF0B891C892D89D9
:101980003E894A855B856C857D85C201B0E0A0E01B
:1019900068017901C41AD50AE60AF70AC816D906F9
:1019A000EA06FB0618F42801441A550A42011E01F2
:1019B00026E0220E311C8114910409F4B3C04A853B
:1019C0005B856C857D856A0181E0D8228B8D9C8D3D
:1019D0008A019B01E9E03695279517950795EA95C9
:1019E000D1F7ED81E230E1F5FC01628D738D848DDC
:1019F000958D600F711F821F931F612C22E0722E44
:101A00006C187D088614970408F434012C8126FD97
:101A100004C06114F2E07F0671F400913701109167
:101A200038012091390130913A010617170728072C
:101A3000390709F053C040E00E94A407882309F445
:101A400084CFC60186519C4FD5019C01260D371DC0
:101A5000FC012E173F0709F460C041914D93F9CF67
:101A6000FC0174807A947022C114D10471F4711055
:101A70000CC0452B462B472B39F58F89988DA98DA6
:101A8000BA8D8E839F83A887B987EB8DFC8D6E817D
:101A90007F81888599856250710981099109258521
:101AA00004C0660F771F881F991F2A95D2F70685F5
:101AB000178520893189600F711F821F931F670D61
:101AC000711D811D911D99CF4E815F81688579853A
:101AD00091010E94B9098111D8CF37CF75018301D7
:101AE0009601AB01BC018091E7039091E8030E944D
:101AF0004506882309F429CFA60CB71C8A859B8547
:101B0000AC85BD85860D971DA11DB11D8A879B875C
:101B1000AC87BD87861897084ECF281B390BA20EBD
:101B2000B31EECCFC20113CF1F93CF93DF93FC0101
:101B300025812223D1F1162FEC01848187FF2AC051
:101B4000668577858089918941E00E94A407882372
:101B500061F1EA8980E2E89FF0011124E651FC4F2F
:101B6000309719F18D81823040F48B899C89AD8941
:101B7000BE89848F958FA68FB78F8F89988D938F0D
:101B8000828F8F89988DA98DBA8DB58BA48B8C810E
:101B90008F778C83111103C08C818F7E8C83812F72
:101BA000DF91CF911F910C94790780E0DF91CF9165
:101BB0001F910895FF920F931F93CF93DF93EC0132
:101BC0008D81813041F090E080E0DF91CF911F91D5
:101BD0000F91FF9008958C8181FFF5CF82FD1BC08E
:101BE0000091E7031091E803C8010E94D2050E940A
:101BF000B105F82EC8010E949F058FEFF812E3CFC0
:101C00008C8185FF1BC060E0CE010E94940D8C8109
:101C10008F7D8C83D8CF4B895C896D897E898A853D
:101C20009B85AC85BD8584179507A607B707C1F2CC
:101C3000CE010E94F90A8111D3CFC5CF4091550240
:101C4000509156026091570270915802452B462BD5
:101C5000472B21F080E00E945507B5CF80618C832F
:101C60002A853B85317080E092E0821B930BADCFDB
:101C7000CF93DF93EC0161E00E94940D882311F073
:101C80001D8281E0DF91CF9108952F923F924F9274
:101C90005F926F927F928F929F92AF92BF92CF92FC
:101CA000DF92EF92FF920F931F93CF93DF9300D0B9
:101CB00000D01F92CDB7DEB77C015B01342E5D836F
:101CC000DC0115968C911597813009F0CEC01496E1
:101CD0002C9021FECAC022FCB4C0C32CDD8022940B
:101CE0007FE027222094B22DB1702B2ED7011A96B7
:101CF0004D915D916D917C911D97C114D10409F4B2
:101D000028C15B968D919C915C97FC0174807A94BC
:101D10008A019B0169E036952795179507956A9585
:101D2000D1F770228A011170711020C001151105C0
:101D3000E9F416964D915D916D917C91199741153D
:101D400051056105710509F099C057968D919D91D6
:101D50000D90BC91A02D0097A105B10509F0B0C070
:101D6000C7010E948D0B882309F47FC080E092E0B8
:101D7000801B910B46018C159D0508F44C01D70181
:101D80005B964D915C915C9716968D919D910D900F
:101D9000BC91A02D0297A109B109FA01258504C0C3
:101DA000880F991FAA1FBB1F2A95D2F74685578512
:101DB00060897189840F951FA61FB71F9C01AD0113
:101DC000270D311D411D511D29013A01811432E0B9
:101DD000930609F07BC08091370190913801A09162
:101DE0003901B0913A0184159505A605B70559F456
:101DF0008FEF9FEFDC018093370190933801A09320
:101E00003901B0933A01022D9501B301A2018091ED
:101E1000E7039091E8030E94E706882331F19EEFE3
:101E2000B91AC818D908F70182859385A485B585A4
:101E3000880D991DA11DB11D82879387A487B58741
:101E400055CFF701438954896589768982859385C1
:101E5000A485B585481759076A077B0709F43DCF64
:101E6000C7010E94F90A811138CF81E090E0D701C3
:101E700013969C938E93129780E007C09E012F5F6C
:101E80003F4F0E94B909811102C090E079C0898159
:101E90009A81AB81BC81F701238D348DF9012789AB
:101EA00048EF5FEF60E070E0203121F048EF5FEF36
:101EB0006FEF7FE084179507A607B70708F050CFAC
:101EC000F70186839783A087B18750CF011511054D
:101ED00099F5D7011A964D915D916D917C911D9761
:101EE00053968D919D910D90BC91A02D4817590747
:101EF0006A077B0708F181E00E947907882309F4CB
:101F0000B4CF4092370150923801609239017092FB
:101F10003A018091E90381608093E903C801865109
:101F20009C4FD5019C01280D391DFC012E173F0740
:101F300059F04D914193FACF41E0C301B2010E94A3
:101F4000A4078111EBCF91CF281B390BA20EB31E32
:101F500068CFF70183899489A589B6898417950785
:101F6000A607B70738F48481438B548B658B768B37
:101F700080688483F701848183FD1AC0832D9D814D
:101F80000F900F900F900F900F90DF91CF911F91B6
:101F90000F91FF90EF90DF90CF90BF90AF909F9008
:101FA0008F907F906F905F904F903F902F9008950B
:101FB00061E0C7010E94940D882309F456CFDECF5B
:101FC000CF93DF931F92CDB7DEB7698341E050E036
:101FD000BE016F5F7F4F0E94450E0F90DF91CF9142
:101FE0000895FC01DB0112968D919C9113979383C8
:101FF000828388E791E09183808314968C91149773
:10200000848315968C911597858316964D915D91D5
:102010006D917C91199746835783608771871A96D3
:102020004D915D916D917C911D9742875387648797
:1020300075871E964D915D916D917C915197468764
:102040005787608B718B52968C915297828B5396E7
:102050004D915D916D917C915697438B548B658B1F
:10206000768B57964D915D916D917C915A97478BE8
:10207000508F618F728F5B968D919C91948F838F1F
:102080000895FC01818D928D009719F061E00C9408
:10209000940D0895DC015996ED91FC913097B9F0BB
:1020A00083899489A589B689428553856485758518
:1020B000841B950BA60BB70B811520E89207A10591
:1020C000B10538F08FEF9FE7A0E0B0E0089590E011
:1020D00080E00895DC0159968D919C91009739F02C
:1020E000DC01ED91FC910480F581E02D099490E0F4
:1020F00080E00895CF93DF93EC01E98DFA8D30975E
:1021000049F481E090E09B838A8390E080E0DF9156
:10211000CF91089513821282898D9A8D0E94450E67
:10212000E98DFA8D22813381232B59F7F0CFCF939C
:10213000DF931F92CDB7DEB76983DC01ED91FC918F
:102140000280F381E02D41E050E0BE016F5F7F4FE0
:1021500009950F90DF91CF910895CF93DF931F9250
:10216000CDB7DEB741E050E0BE016F5F7F4F0E9408
:102170008D0C019731F4898190E00F90DF91CF9120
:1021800008958FEF9FEFF9CFFC01818D928D00971D
:1021900011F00C94AD108FEF9FEF08950F931F93E4
:1021A000CF93DF93EC01898D9A8D10E000E00097CA
:1021B00099F00E94AD108C010F3F100769F0898DD6
:1021C0009A8DFC014285538564857585415051097E
:1021D000610971090E94F90AC801DF91CF911F912D
:1021E0000F910895CF93DF93FB0122813381DC01AE
:1021F00013963C932E931297448155816681778183
:1022000014964D935D936D937C93179740855185FC
:102210006285738518964D935D936D937C931B97A0
:102220001C96EF012C969C01275E3F4F49914D93E0
:10223000A217B307D9F7218D328DFC01328F218F80
:10224000DF91CF910895089590E080E008950F9375
:102250001F93CF93DF93EC0180E2689FF00111247C
:10226000E651FC4F6A8B8091370190913801A09123
:102270003901B0913A018E879F87A88BB98B048969
:10228000158930E020E09801112700270F8B188F67
:10229000298F3A8F828D938DB0E0A0E0AC01BD0113
:1022A000402B512B622B732B4F8B588F698F7A8F5A
:1022B00083858871A9F4848D958DA68DB78D8B8BC0
:1022C0009C8BAD8BBE8B81E08D8381E08C831E82E5
:1022D0001F82188619861A861B861C861D8603C0D7
:1022E000803131F080E0DF91CF911F910F910895FF
:1022F0009E012D5E3F4F8B8D9C8D0E943A0A882354
:1023000089F384E0E1CFCF93DF93EC0160E08E812D
:102310000E94C30361E08E810E94C30360E08E814E
:102320000E94C3038BE891E00197F1F7DF91CF9111
:102330000895CF92DF92EF92FF920F931F93CF9366
:10234000DF936C018C01095F1F4FD0E0C0E0E62EE7
:10235000F12C61E0F80181918F010E94F103B70136
:102360000C2E02C0759567950A94E2F76170F8012A
:10237000319780810E94C3032196C430D10549F76B
:10238000C601DF91CF911F910F91FF90EF90DF90E9
:10239000CF900C948311CF92DF92EF92FF920F9324
:1023A0001F93CF93DF93EC01F62E642F8C810E9454
:1023B000C3038D818F3F19F060E00E94C3030F2D8E
:1023C00010E08F8584FF2BC06E0187E0C80ED11C02
:1023D000F12CE12C61E0F60181916F010E94F10383
:1023E000B8010E2C02C0759567950A94E2F76170EA
:1023F000F601319780810E94C303FFEFEF1AFF0AB5
:1024000088E0E816F10431F7CE01DF91CF911F91FA
:102410000F91FF90EF90DF90CF900C948311B80153
:1024200084E0759567958A95E1F7CE010E94991130
:102430006F2DCE01DF91CF911F910F91FF90EF9003
:10244000DF90CF900C94991140E0682F82ED96E0D8
:102450000C94CB1181E00E9424128BE39FE1019741
:10246000F1F70895CF93DF93CDB7DEB728970FB676
:10247000F894DEBF0FBECDBF98E0E1E4F1E0DE01ED
:10248000119601900D929A95E1F79091E5066917E2
:1024900010F06FEF690F70E0660F771F21E030E0FA
:1024A0002C0F3D1F620F731FFB019081890F806805
:1024B00028960FB6F894DEBF0FBECDBFDF91CF9147
:1024C0000C942412CF93DF93823029F49091E1068B
:1024D00098609093E1068093E5061092E6068BE300
:1024E0009DE00197F1F760E08091D6060E94C3035A
:1024F00060E08091D8060E94C3038091D7068F3F89
:1025000019F060E00E94C3038091E10684FD34C0AD
:1025100063E082ED96E00E949911CBE4D6E4CE010F
:102520000197F1F763E082ED96E00E9499112197FF
:10253000F1F763E082ED96E00E94991183E592E065
:102540000197F1F762E082ED96E00E949911809187
:10255000E10680620E94241284E08093E2068CE00F
:102560000E9424120E942A1282E08093E30686E0F1
:10257000DF91CF910C94241280620E9424128BE48C
:1025800096E40197F1F78091E10680620E9424129F
:1025900083E592E00197F1F78091E10680620E9465
:1025A0002412D5CF41E00E94CB1181E090E0089544
:1025B0000F931F93CF93DF938B0128E0829FC0017D
:1025C000112480640E942412E801085F1F4F699162
:1025D00082ED96E00E94D212C017D107C1F7DF91B9
:1025E000CF911F910F910895DF92EF92FF920F9379
:1025F0001F93CF93DF93C82F7B01D42E6091E50307
:10260000082F10E08091E603860F9927991F801705
:10261000910741F480E00E9432126EE382ED96E071
:102620000E9410028091E603C817B0F1081B11093F
:10263000023011058CF56C2F681B81E00E9432126C
:10264000DEE0F70164911FEF1D0F662351F041E0BA
:1026500082ED96E00E94CB11FFEFEF1AFF0AD12F17
:10266000F0CFD15030F060E282ED96E00E9410028F
:10267000F8CF8091E6036C2F681B8FE00E94321226
:102680006D2D82ED96E0DF91CF911F910F91FF901C
:10269000EF90DF900C941002DF91CF911F910F917A
:1026A000FF90EF90DF900895DF92EF92FF920F93EB
:1026B0001F93CF93DF93C82F7B01D42ED22F60912D
:1026C000E503082F10E08091E603860F9927991FF4
:1026D0008017910791F480E00E9432126D2D82EDF7
:1026E00096E00E9410026091E5038FE00E94321292
:1026F0006D2F82ED96E00E9410028091E603C817CC
:1027000018F1081B110902301105F4F46C2F681B35
:1027100081E00E943212CEE0F70164911FEF1C0F9E
:10272000662351F041E082ED96E00E94CB11FFEF6D
:10273000EF1AFF0AC12FF0CFC15030F060E282EDF6
:1027400096E00E941002F8CFDF91CF911F910F9178
:10275000FF90EF90DF90089521E041E067E771E09E
:1027600080E00E94541322E04EE360E771E081E0D4
:102770000E94541322E04EE369E671E082E00E9479
:10278000541322E04EE362E671E083E00C945413AC
:10279000AF92BF92CF92DF92EF92FF920F931F936F
:1027A000CF93DF93CDB7DEB72B970FB6F894DEBF8C
:1027B0000FBECDBF6C01FE013196CE010C967F019C
:1027C00020E22193E817F907E1F7DA0120E037E08A
:1027D0009D91B92E9923A9F19E32B9F43A3091F422
:1027E00080E02B960FB6F894DEBF0FBECDBFDF9111
:1027F000CF911F910F91FF90EF90DF90CF90BF90FE
:10280000AF90089528E03AE0E3CFE1EFF2E0849161
:10281000882321F031969813FACFE2CF321700F3D4
:102820008FED890F8E35E0F68FE9890F8A3118F424
:1028300040EEB42EB90EF701E20FF11DB0822F5F0A
:10284000C7CF8981803261F28B01FB01838D948D2A
:10285000F601948F838FFB011682178210861186F2
:102860001286138614861586F80182859385A485C1
:10287000B585438954896589768984179507A607A4
:10288000B70708F0ADCF25E0B695A7959795879542
:102890002A95D1F7F82FFF70AF2EF801858182308D
:1028A00008F49ECFC8010E94AD1097FD99CFF801A2
:1028B00082859385A485B5854F96A11DB11D82871C
:1028C0009387A487B587F0E2AF9EB00111246651CB
:1028D0007C4F6115710509F483CFFB01808188234A
:1028E00009F1853E19F4B11032C01EC04BE050E032
:1028F000C7010E945B32892B09F0B6CF6A2DC60151
:102900002B960FB6F894DEBF0FBECDBFDF91CF91EF
:102910001F910F91FF90EF90DF90CF90BF90AF90FD
:102920000C942711B1105CCFF601A28A8091370177
:1029300090913801A0913901B0913A01868797872B
:10294000A08BB18BFB018081882309F449CFBB2484
:10295000B3948ACFFB0101900020E9F73197AF01D2
:10296000461B570BDC01ED91FC910280F381E02DB9
:1029700009948F929F92AF92BF920F931F93CF9320
:10298000DF93CDB7DEB7A1970FB6F894DEBF0FBEC9
:10299000CDBF19A2423008F44AE08E010F5D1F4FEF
:1029A000842E912CB12CA12CA50194010E945130B0
:1029B000E62FB901CA01EA3044F5E05DD801EE9393
:1029C0008D01232B242B252B79F790E080E01097A5
:1029D00069F0FD0101900020E9F73197AF014A1B32
:1029E0005B0BBD0182ED96E00E941702A1960FB627
:1029F000F894DEBF0FBECDBFDF91CF911F910F9135
:102A0000BF90AF909F908F900895E95CD7CFCF9300
:102A1000DF93EC01898D9A8D009741F00E94380E6A
:102A2000898D9A8D0E9415311A8E198EDF91CF9162
:102A300008950F931F93CF93DF93EC0188819981C1
:102A4000009759F02A813B812617370730F081E043
:102A5000DF91CF911F910F9108958B016F5F7F4F91
:102A60000E949E31009759F0998388831B830A83C3
:102A70002C813D81232B59F7FC011082E8CF80E0A7
:102A8000E7CFEF92FF920F931F93CF93DF93EC0169
:102A90007B018A011B821A8288EE93E0A0E0B0E0FD
:102AA0008C839D83AE83BF8380E991E09983888383
:102AB0008DE190E00E9479309A8F898F009779F0AC
:102AC0002DE1F701DC0101900D922A95E1F74CE030
:102AD00050E0B801CE010C960E948A32188EDF9128
:102AE000CF911F910F91FF90EF900895EF92FF9279
:102AF0000F931F93CF93DF93CDB7DEB7C756D1099E
:102B00000FB6F894DEBF0FBECDBF8C01E09000077A
:102B1000F0900107D70115968C911597823008F433
:102B200086C01A968D919D910D90BC91A02D8F71AC
:102B30009927AA27BB27892B8A2B8B2B09F077C0D3
:102B400040E250E0BE016F5F7F4FC7010E948D0CD5
:102B5000803209F06CC08981882309F468C0853E01
:102B600079F38E3269F38C8583FDEACF22961FAE0E
:102B70001EAE229788E791E09FAF8EAF24961FAEDE
:102B80002497BE016F5F7F4FE0E080E02EE2DB0123
:102B90009D91BD019032A1F0883049F44BE550E0A1
:102BA0004C0F5D1F4E0F511DDA012C93EF5F4BE56B
:102BB00050E04C0F5D1F4E0F511DDA019C93EF5FEB
:102BC0008F5F8B3021F78BE590E08C0F9D1F8E0F70
:102BD000911DFC0110826091000770910107AE0108
:102BE000455A5F4FCE01CE960E94C8138823F9F054
:102BF000BE01625C7F4FCE0181960E94F10FAE0153
:102C0000455A5F4FBE016F5D7F4FC8010E9441155D
:102C1000C801C959DF4F0FB6F894DEBF0FBECDBF54
:102C2000DF91CF911F910F91FF90EF900895D80100
:102C300013961C921E92129788EE93E0A0E0B0E0EB
:102C4000F80184839583A683B78380E991E091831B
:102C50008083128E118E1486DBCF1F93CF93DF9368
:102C6000CDB7DEB76B970FB6F894DEBF0FBECDBF02
:102C700010E0CE0101960E947615EA8DFB8D30970B
:102C800069F40E94FE01812F6B960FB6F894DEBFA7
:102C90000FBECDBFDF91CF911F910895858188230D
:102CA00081F3823018F41F3F71F31F5FCE0101964C
:102CB0000E940715DECF2F923F924F925F926F9244
:102CC0007F928F929F92AF92BF92CF92DF92EF92BC
:102CD000FF920F931F93CF93DF93CDB7DEB7C65606
:102CE000D1090FB6F894DEBF0FBECDBF6C015B01FA
:102CF00019A218A288E791E09F8F8E8F1BA21C82D9
:102D00001B829A8389831E824E018EE1880E911C5C
:102D1000C4010E94A50A75018E010F5F1F4F240197
:102D200018016FE270E0C7010E947832009709F441
:102D30005CC0F70120812F3271F4FFEFEF1AFF0A18
:102D4000902F812F8201492E582E942D852D2801F8
:102D5000092F182FE6CF8E198D3008F08CE0682EE1
:102D6000712CA301B701CE01885A9F4F0E948A326D
:102D7000E8E5F0E0EC0FFD1FE60DF71D1082C8013D
:102D80000E94380EF8018581882301F11EAE1DAE28
:102D900088E791E09CAF8BAF21961FAE2197A79655
:102DA000EEADFFADA797AE0EBF1EF501808181117C
:102DB00029C0BE01655C7F4FC1010E94F10F4EE941
:102DC00051E0B101C6010E9441153AC0AE01485A16
:102DD0005F4FB201C8010E94C8138823B9F2E60C04
:102DE000F71CC2010E94380EB0CFC7018A199B0997
:102DF000A7969FAF8EAFA797B201CE01CB960E9448
:102E0000F10FCDCF19A218A288E791E09F8F8E8F86
:102E10001BA221968FAD219781112DC0F60113823F
:102E2000128288EE93E0A0E0B0E084839583A683CD
:102E3000B78380E991E091838083128E118E14868E
:102E4000C601CA59DF4F0FB6F894DEBF0FBECDBF23
:102E5000DF91CF911F910F91FF90EF90DF90CF9076
:102E6000BF90AF909F908F907F906F905F904F90AA
:102E70003F902F900895A501BE01655C7F4FC4016E
:102E80000E94C813882351F2CE01CB960E94380EBF
:102E9000B401C1010E94F10FA50193CF8F929F92BF
:102EA000AF92BF92FF920F931F93CF93DF93CDB753
:102EB000DEB76B970FB6F894DEBF0FBECDBF61E0F3
:102EC0008AE00E94F1038FE00E944D03019799F47C
:102ED000FF24F3948F2D6B960FB6F894DEBF0FBED0
:102EE000CDBFDF91CF911F910F91FF90BF90AF9019
:102EF0009F908F9008958091B806882321F083EBEE
:102F000096E00E94380E109294061092920610924B
:102F10008F0610928E068AE080938D060E945A05D5
:102F20008B0161E080918D060E94F10361E0809148
:102F30008D060E94C303FFB6F8948091140281119C
:102F400027C0E6EEF2E08491E8ECF2E09491E82FFD
:102F5000F0E0EE0FFF1FEA56FD4FA591B491EC9102
:102F6000E92321F461E08AE00E94C30361E08AE082
:102F70000E94F1038CB580618CBD8CB580648CBDE2
:102F800061E08DE00E94F10361E08BE00E94F103BB
:102F9000809114028F5F80931402FFBE82E58093BC
:102FA00087061092880680918706909188060E9475
:102FB000CF052AE0F22E8FEF0E94AA05FA94F110B5
:102FC000FACF89E896E00E94D20520E030E0A9011E
:102FD00060E089E896E00E94E805F82E8093930669
:102FE00081E0F81679F00E945A05601B710B613D73
:102FF000774058F381E080938E0689E896E00E943E
:103000009F0566CF2AEA31E040E050E068E089E8B9
:1030100096E00E94E80582FF2BC0F0929406809112
:103020009406812C912C5401823029F4812C912C0E
:10303000A12C80E4B82E20E030E0A90167E389E804
:1030400096E00E94E805A501940169E289E896E00E
:103050000E94E805F82E809393068823D1F00E9401
:103060005A05601B710B613D774028F388E0C3CFA0
:1030700094E0F92E0E94B10580939306FA94F11022
:10308000F9CF8A3A11F082E0B6CF82E080939406BD
:10309000C6CF809194068230D1F420E030E0A901BF
:1030A0006AE389E896E00E94E805882311F086E04B
:1030B000A2CF0E94B105807C803C19F483E080930C
:1030C00094060E94B1050E94B1050E94B10589E8ED
:1030D00096E00E949F0580E58093870610928806FF
:1030E00081E00E94EE078823A9F083EB96E00E941E
:1030F000A50A882309F4ECCE6EE971E0CE010196B1
:103100000E945B16BE016F5F7F4F87EE96E00E94C4
:10311000F210E0CE80E00E94EE07882309F4D8CEBA
:10312000E4CF0F931F93CF93DF938C01EB014AE021
:103130000E94112CFE0101900020E9F73197CF0188
:103140008C1B9D0B282F9927DC011196AC0FBD1FFE
:10315000FC013197EC0FFD1FC80FD91F17FD0EC0E2
:10316000213071F41A8280818C938EE2888380E30F
:103170008083DF91CF911F910F910895223091F3B9
:103180001C92808188838EE2F3CFEF92FF920F939F
:103190001F93CF93DF93CDB7DEB728970FB6F89480
:1031A000DEBF0FBECDBF8091B6039E012F5F3F4FA4
:1031B000790160E08111ACC00E94321268E582EDB5
:1031C00096E00E94100218E0F701212F11922A9533
:1031D000E9F7B70180916402909165020E9491180D
:1031E000F70101900020E9F73197EE19FF0907E098
:1031F00060E0802F8E1B0E943212B70182ED96E0B4
:103200000E94AA1460E088E00E94321269E582ED13
:1032100096E00E941002F701212F11922A95E9F7FA
:10322000B70180916602909167020E949118F701A0
:1032300001900020E9F78E2D8E1B60E0805F0E94D8
:103240003212B70182ED96E00E94AA1461E080E09C
:103250000E9432126AE582ED96E00E941002F701A8
:1032600011921A95E9F7B70180916802909169026D
:103270000E949118F70101900020E9F73197EE19AB
:10328000FF0961E0802F8E1B0E943212B70182ED90
:1032900096E00E94AA1461E088E00E94321260EA7F
:1032A00071E082ED96E00E94AA1488E0F701119285
:1032B0008A95E9F76091C9037091CA038091CB03A5
:1032C0009091CC03870121E043E00E94F32BF701AA
:1032D00001900020E9F78E2D8E1B61E0815F0E9436
:1032E0003212B70182ED96E00E94AA1465E282EDE7
:1032F00096E00E94100228960FB6F894DEBF0FBE2B
:10330000CDBFDF91CF911F910F91FF90EF90089566
:1033100080E00E94321268E582ED96E00E94100281
:103320008DED93E0FC0101900020E9F7CF018E5D67
:10333000934017E060E0F12FF81B8F2F0E943212AC
:103340006DED73E082ED96E00E94AA1460E088E0E3
:103350000E94321269E582ED96E00E94100225ED8E
:1033600033E0F90101900020E9F79F01265D334029
:1033700060E08FE0821B0E94321265ED73E082ED07
:1033800096E00E94AA1461E080E00E9432126AE591
:1033900082ED96E00E9410028DEC93E0FC0101901A
:1033A0000020E9F7CF018E5C934061E0181B812F6C
:1033B0000E9432126DEC73E06ACFCF92DF92EF92EF
:1033C000FF920F931F93CF93DF93CDB7DEB76B9729
:1033D0000FB6F894DEBF0FBECDBF811111C00E94A1
:1033E000C5186B960FB6F894DEBF0FBECDBFDF9148
:1033F000CF911F910F91FF90EF90DF90CF900895A4
:10340000813009F04DC08091B60321E041E0811187
:1034100024C063EA71E00E94541322E04EE36BE99A
:1034200071E081E00E94541322E04EE363E971E011
:1034300082E00E94541380911D0122E04EE367E870
:1034400071E0882331F0813061F620E24EE36CE7D1
:1034500071E083E00E945413C4CF6EEC71E080E011
:103460000E94541320E24EE366EC71E081E00E947A
:1034700054138091B603813061F420E24EE36CEB8B
:1034800071E082E00E94541320E24EE368EA71E0AA
:10349000E0CF8230C9F720E24EE361EB71E0F2CF7A
:1034A000823009F0C0C080913802823079F18330D7
:1034B00009F446C0813009F094CF21E041E068E092
:1034C00072E080E00E94541320E24EE36EEF71E060
:1034D00081E00E94541320E24EE360EF71E084E04B
:1034E0000E94541322E04EE366EE71E083E00E94F6
:1034F000541320E24EE36DED71E082E00E9454131C
:1035000022E04EE363ED71E085E0A4CF21E041E0ED
:1035100067E272E080E00E94541322E04EE36EE125
:1035200072E081E00E94541322E04EE364E172E015
:1035300082E00E94541322E04EE36DE072E089CFF6
:1035400021E041E06CE272E080E00E945413EE243E
:10355000E394F12CCE0101960E947615EA8DFB8D45
:10356000309719F08581811103C00E94FE0139CF87
:10357000823008F053C01E2D6091E5036701DD2401
:103580008091E603860F9927991F8C159D05C9F434
:1035900080E00E9432126EE382ED96E00E941002FB
:1035A0006091E5038FE00E94321260E282ED96E0C6
:1035B0000E941002BE01635F7F4F8AE993E00E9480
:1035C00083328091E603181730F1C81AD10822E03F
:1035D000C216D10404F5612F681B81E00E943212EB
:1035E0006E018DE0C80ED11C1EE0F60161916F01E5
:1035F0000FEF010F662339F041E082ED96E00E9463
:10360000CB11102FF2CF115030F060E282ED96E036
:103610000E941002F8CFFFEFEF1AFF0ACE010196C9
:103620000E94071597CF833009F05CC18091380262
:10363000813009F0B5C080913902843001F18530C4
:1036400009F491C0833009F0CCCE21E041E061E97A
:1036500072E080E00E94541322E04EE367E872E0DB
:1036600081E00E94541322E04EE36EE772E082E0B4
:103670000E94541322E04EE363E772E0EACE4091E9
:10368000490250914A0228EE33E0429FC001439F15
:10369000900D529F900D1124092E000CAA0BBB0B0C
:1036A0004091150250911602609117027091180214
:1036B000840F951FA61FB71FB7FD4CC0809315023E
:1036C00090931602A0931702B093180280911502EE
:1036D00090911602A0911702B0911802813C9D456D
:1036E000A105B10564F080EC9DE5A0E0B0E0809319
:1036F000150290931602A0931702B093180260E08F
:1037000080E00E94321262EA71E082ED96E00E944F
:10371000AA1460E089E00E943212C0901502D09095
:103720001602E0901702F09018024AE0C701B601B5
:10373000F7FE0DC06DE282ED96E00E941002662752
:103740007727CB016C197D098E099F094AE00E94F9
:10375000B91447CE10921502109216021092170259
:1037600010921802B3CF8091000110E203E0882389
:1037700029F010E2813009F413E000E221E041E099
:103780006EE672E080E00E945413402F66E672E01D
:1037900081E00E94F412412F60E672E082E07AC07C
:1037A000823009F01ECE80913902823079F1833067
:1037B00009F47CC0813009F014CE809149029091C7
:1037C000AA03890F87FD1FC08093AA038091AA03D3
:1037D0008D331CF08CE38093AA0360E080E00E94AC
:1037E000321269EA71E082ED96E00E94AA1460E06C
:1037F0008BE00E943212C090AA030C2C000CDD0852
:10380000EE08FF0892CF1092AA03E0CF80916A02DF
:1038100090916B02A0916C02B0916D028530910580
:10382000A105B105D0F5FC01E35AFE4FD080FC01A3
:10383000E85AFE4FE080FC01ED5AFE4FF080FC019B
:10384000E25BFE4F0081875B9E4FFC01108121E00F
:1038500041E06BE572E080E00E9454134D2D66E577
:1038600072E081E00E94F4124E2D60E572E082E089
:103870000E94F4124F2D6AE472E083E00E94F41279
:10388000402F64E472E084E00E94F412412F6DE363
:1038900072E085E00E94F412A4CD10E200E280E222
:1038A000F82E90E2E92E20E2D22ED1CF8091620252
:1038B0008823B1F010E203E0813009F000E221E05A
:1038C00041E068E372E080E00E945413402F64E31B
:1038D00072E081E00E94F412412F61E372E05ECF5A
:1038E00013E0ECCF843099F480913802813009F0F4
:1038F00078CD80913902833009F073CD80913A02FE
:103900008150833008F06DCD0E94AC136ACD8530B4
:1039100009F067CD80913802813009F062CD809145
:103920003902833009F05DCD90913A0280913B02DB
:10393000913009F08CC08230C1F1833009F45EC04F
:103940002091490230914A0244E6813009F049CD84
:10395000429FC001439F900D11242091310230916C
:103960003202820F931F909332028093310260E003
:1039700085E00E94321268E582ED96E00E94100216
:1039800060E08AE00E943212BE016F5F7F4F80913B
:103990003102909132020E949118BE016F5F7F4FF9
:1039A00082ED96E00E94AA141CCD2091490230912C
:1039B0004A0244E6429FC001439F900D112420918A
:1039C000330230913402820F931F9093340280931C
:1039D000330260E085E00E94321269E582ED96E0F4
:1039E0000E94100260E08AE00E943212BE016F5F06
:1039F0007F4F8091330290913402CDCF20914902C4
:103A000030914A0244E6429FC001439F900D112429
:103A10002091350230913602820F931F9093360227
:103A20008093350260E085E00E9432126AE582ED03
:103A300096E00E94100260E08AE00E943212BE010D
:103A40006F5F7F4F8091350290913602A4CF923004
:103A5000C9F4823059F0833079F0813009F0C1CC5B
:103A60002091490230914A024AE072CF20914902E6
:103A700030914A024AE09ECF2091490230914A0299
:103A80004AE0C1CF933011F5823071F08330A9F054
:103A9000813009F0A6CC80913102909132022091C0
:103AA000490230914A025DCF8091330290913402F5
:103AB0002091490230914A0286CF8091350290913F
:103AC00036022091490230914A02A6CF823009F491
:103AD00080CF833009F4A6CF813009F082CC47CF64
:103AE00028E0EFE2F1E0ADEDB3E001900D922A9510
:103AF000E1F728E0E7E2F1E0A5EDB3E001900D92F7
:103B00002A95E1F728E0EFE1F1E0ADECB3E00190B8
:103B10000D922A95E1F76093C9037093CA038093CD
:103B2000CB039093CC030E942A128091C8030C947B
:103B3000DD190C94802F0F931F93CF93DF93CDB794
:103B4000DEB768970FB6F894DEBF0FBECDBF809189
:103B500052028130A1F48091620281110E942204FC
:103B6000109252028091C803823009F476C108F0A5
:103B700050C0882309F4E0C0813009F4EDC0809181
:103B800050029091510297FD0396959587959595D2
:103B9000879590934F0280934E0240914C02509132
:103BA0004D021091C80320914B028417950709F02C
:103BB0009AC51213A1C510914802809147021817A7
:103BC000D9F08091620281110E942204111147C62E
:103BD0000E944E1780931D01811104C080914802FC
:103BE000809347020E942D16809363020E942A123E
:103BF0008091C8030E94DD190E945A0568960FB68D
:103C0000F894DEBF0FBECDBFDF91CF911F910F9112
:103C10000895843009F4DBC408F404C2853009F047
:103C2000AECF80913802813009F0A9CF809139025E
:103C3000833009F0A4CF8E010F5F1F4F80E1D801C0
:103C40001D928A95E9F76AED71E0C8010E948332FE
:103C500080E28B8380913B02823009F416C5833069
:103C600009F42AC58130B1F488E58C83BE016F5E0A
:103C70007F4F80913102909132020E949118BE01D3
:103C80006F5E7F4FCE0105960E9483321092320202
:103C900010923102F80101900020E9F7319780E29B
:103CA0008083F80101900020E9F7CF016DED71E00C
:103CB00001970E948332F80101900020E9F73197C3
:103CC000108263EE71E08AEE95E00E94AA14B801BA
:103CD0008AEE95E00E94AA1467EC71E08AEE95E006
:103CE0000E94AA1464EC71E08AEE95E00E94AA1486
:103CF0008091C803E82FF0E0E95CFD4F108210923C
:103D000051021092500210924A02109249028150C0
:103D10008093C80390E0FC01E75DFD4F2081209374
:103D2000E603FC01EF5DFD4F20812093E503875EF4
:103D30009D4FDC018C91CFC081E08093C80310922D
:103D40005102109250021092E6031092E503109275
:103D50004A021092490213CF5091B6034091E603F4
:103D60009091E503642F690F7727771F9B0151110D
:103D70005AC06130710509F1A4F4232B09F0FFCE7C
:103D80001092380210925102109250021092E603E3
:103D90001092E50310924A02109249021092C80351
:103DA000EECE6230710529F16330710509F0E7CE7E
:103DB00080911D018111E3CE83E08093380240930E
:103DC0002A02909322028091500290915102809396
:103DD0001A0210925102109250021092E6031092B1
:103DE000E50310924A021092490282E08093C803D0
:103DF000C6CE82E08093380240932A02909322023A
:103E0000209150023091510220931A0210925102D7
:103E1000109250021092E6031092E50310924A02AB
:103E200010924902E3CF6230710541F063307105B1
:103E300009F0A3CF83E08093B603A1CE513049F4BB
:103E400082E08093B6030E942A1281E00E94DD196D
:103E500096CE523009F093CEF4CF20913802213023
:103E600009F081C04091E6033091E503A42FA30F30
:103E7000BB27BB1FA230B10509F45CC064F41097E6
:103E8000A1F0119709F07BCE62EB71E08AEE95E02C
:103E90000E94AA1474CEA430B10589F10CF488C034
:103EA000159709F06CCE85E02BC010923902109264
:103EB00051021092500210924A021092490220932D
:103EC000C80380912A028093E603809122028093A6
:103ED000E50380911A0290E0909351028093500282
:103EE000809150029091510297FD03969595879588
:103EF0009595879590934D0280934C0240CE84E037
:103F00008093390240932B02309323028091500218
:103F10009091510280931B02109251021092500214
:103F20001092E6031092E50310924A0210924902A1
:103F300083E05CCF66EB71E08AEE95E00E94AA1404
:103F400064EC71E08AEE95E00E94AA14109265027A
:103F50001092640210926702109266021092690237
:103F6000109268020CCE2230B1F54091E6033091F8
:103F7000E503E42FE30FFF27FF1FE130F10531F1E7
:103F80008CF4EF2B09F0FBCD109239021092510204
:103F90001092500210924A021092490281E08093DE
:103FA000C8038FCFE230F10599F0339709F0E7CDE0
:103FB00083E08093390240932B02309323022091B7
:103FC00050023091510220931B0220CF81E098CF04
:103FD0002093390297CF233009F0D1CD8091E603A9
:103FE0009091E503890F9927991F892B69F281E048
:103FF0008093B6031092C80388E0EDEDF3E0DF0193
:10400000682F1D926A95E9F7E5EDF3E0DF01682F6F
:104010001D926A95E9F7EDECF3E0DF011D928A95B8
:10402000E9F7ADCD80913902833009F06DC140913F
:104030003802413089F43091E6032091E503E32F03
:10404000E20FFF27FF1FE130F10509F439C10CF041
:10405000FFC0EF2B09F405C180913902853009F0CA
:1040600058C020913802213009F053C08091E603F6
:104070009091E503890F9927991F8130910509F4E3
:104080009FC18230910509F4A4C1892BE1F580918B
:10409000C8038823C1F1E82FF0E0E95CFD4F1082EE
:1040A000109251021092500210924F0210924E0242
:1040B00010924A021092490281508093C80390E006
:1040C000FC01E75DFD4F20812093E603FC01EF5DDD
:1040D000FD4F20812093E503875E9D4FDC018C918D
:1040E00090E0909351028093500280915002909101
:1040F000510297FD03969595879595958795909391
:104100004D0280934C020E942A128091C8030E94A3
:10411000DD1980913902813009F045C08091380263
:10412000823009F040C06091AA0383E090E00E94D1
:10413000991D8091C803E82FF0E0E95CFD4F1082E3
:10414000109251021092500210924F0210924E02A1
:1041500010924A021092490281508093C80390E065
:10416000FC01E75DFD4F20812093E603FC01EF5D3C
:10417000FD4F20812093E503875E9D4FFC018081E8
:1041800090E0909351028093500280915002909160
:10419000510297FD039695958795959587959093F0
:1041A0004D0280934C0280913902823009F09DC10A
:1041B00080913802823009F098C140916A02509192
:1041C0006B0260916C0270916D028091E603909198
:1041D000E503890F9927991F8230910509F453C18E
:1041E0000CF0FCC0009709F407C1019709F442C123
:1041F00000916A0210916B0220916C0230916D0265
:10420000552766277727401751076207730709F478
:1042100066C1602F81E090E00E94991D80916A0242
:1042200090916B02A0916C02B0916D02813091056A
:10423000A105B10509F475C10CF03CC1892B8A2B8D
:104240008B2B09F446C160E072EC81E090E045C13F
:10425000E230F10509F454C0339709F0FDCE83E054
:1042600050C010923A0210925102109250021092D5
:104270004F0210924E0210924A021092490282E0BE
:104280008093C80380912B028093E60380912302E0
:104290008093E50380911B0290E0909351028093FC
:1042A0005002809150029091510297FD039695958E
:1042B00087959595879590934D0280934C02CCCE2F
:1042C00040933A0230932C022093240280915002B2
:1042D0009091510280931C02109251021092500250
:1042E00010924F0210924E021092E6031092E503D4
:1042F00010924A021092490284E08093C803ACCE27
:1043000082E080933A02DECF843009F0A5CE80911E
:104310003802813009F0A0CE8E010F5F1F4F88E078
:10432000D8011D928A95E9F769EC71E0C8010E94F5
:10433000833280E28B8383E58C834AE0BE016B5F2E
:104340007F4F80911502909116020E94112CF80166
:1043500001900020E9F731971082B8018AEE95E0CC
:104360000E94AA1467EC71E08AEE95E00E94AA14FC
:104370008091C803E82FF0E0E95CFD4F10821092B5
:1043800051021092500210924F0210924E0210925F
:104390004A021092490281508093C80390E0FC01C8
:1043A000E75DFD4F20812093E603FC01EF5DFD4FAB
:1043B00020812093E503875E9D4FFC0180816CCFB7
:1043C000109200016CEC71E08AEE95E00E94AA1454
:1043D0009ACE2093000163ED71E0F6CF8430910511
:1043E00009F463C00CF45CC0059709F001CF84E0C8
:1043F00090E0A0E0B0E04BC08091C803882309F4AE
:10440000F7CEE82FF0E0E95CFD4F108210925102E8
:104410001092500210924F0210924E0210924A02D5
:104420001092490281508093C80390E0FC01E75D3F
:10443000FD4F20812093E603FC01EF5DFD4F2081BD
:104440002093E503875E9D4FDC018C9190E0909373
:10445000510280935002809150029091510297FD39
:104460000396959587959595879590934D028093A2
:104470004C02BECE10926A0210926B0210926C0235
:1044800010926D02B5CE81E090E0A0E0B0E08093A4
:104490006A0290936B02A0936C02B0936D02A8CE57
:1044A00082E090E0A0E0B0E0F2CF83E090E0A0E016
:1044B000B0E0EDCF82309105A105B105B9F10397C8
:1044C000A105B10509F0BFCE60E071EE80E090E09B
:1044D00004C060E875E280E090E00E94AC010E94B8
:1044E0002A128091C8030E94DD198091390283301D
:1044F00009F045CB80913802823009F040CB209101
:1045000062028091E6039091E503890F9927991F34
:10451000009789F0029709F457C081E08093620206
:1045200046C060E07BE480E090E0D7CF60E076E9D1
:1045300080E090E0D2CF8091C8038823C1F1E82FBA
:10454000F0E0E95CFD4F108210925102109250028F
:1045500010924F0210924E0210924A02109249029B
:1045600081508093C80390E0FC01E75DFD4F3081EE
:104570003093E603FC01EF5DFD4F30813093E5039E
:10458000875E9D4FFC01808190E090935102809363
:104590005002809150029091510297FD039695959B
:1045A00087959595879590934D0280934C026091E5
:1045B0006202261721F082E090E00E94991D0E947D
:1045C0002A128091C80342CC10926202F0CF8091EF
:1045D0003A028150833008F0D2CA509139025330E8
:1045E00009F0CDCA40913802413009F0C8CA309173
:1045F000E6032091E503632F620F7727771FCB0136
:104600006130710521F1D4F4892B09F0B8CA1092F8
:104610003B02109251021092500210924A021092E4
:1046200049025093C80380912C028093E603809145
:1046300024028093E50380911C024DCC6230710509
:1046400001F16330710509F09ACA83E01BC0409301
:104650003B0230932D0220932502809150029091CD
:10466000510280931D02109251021092500210923A
:10467000E6031092E50310924A021092490285E087
:10468000B5CB82E080933B02E4CF89E58C83BE0109
:104690006F5E7F4F80913302909134020E94911897
:1046A000BE016F5E7F4FCE0105960E94833210924D
:1046B000340210923302EECA8AE58C83BE016F5E2B
:1046C0007F4F80913502909136020E949118BE0171
:1046D0006F5E7F4FCE0105960E94833210923602A4
:1046E00010923502D7CA121307C09C01241B350B48
:1046F00030934A022093490297FF08C010924F025C
:1047000010924E021092510210925002113029F470
:1047100080914E0290914F024AC01230C9F58091AB
:10472000380220914E0230914F02813069F42630D8
:1047300031050CF455C085E090E090934F028093D2
:104740004E0284E190E01FC0823069F424303105CC
:104750000CF446C083E090E090934F0280934E02A9
:104760008CE090E010C08330D9F58091630290E036
:1047700082179307ACF590934F0280934E02880FF7
:10478000991F880F991F909351028093500228C05F
:10479000133009F047C02091380280914E02909169
:1047A0004F022130A1F420913902233019F40497EB
:1047B000BCF0D0CF2530A1F4039794F082E090E0D4
:1047C00090934F0280934E0288E090E0DCCF22303D
:1047D00039F420913902223011F506970CF0ABCF55
:1047E00080914E0290914F022091E503481759079E
:1047F0007CF5211103C021E02093E50390934D0245
:1048000080934C0210934B029091E503891B809397
:10481000E6030E942A12812F0E94DD19CCC92330A1
:10482000F9F6CACF143049F4809138028130C1F6CC
:10483000809139028330A1F66BCF153089F6109242
:104840004F0210924E021092510210925002C8CFA5
:10485000841795079CF6222389F22150CDCF113081
:1048600009F0C4C910931D0110934702BFC91F92DC
:104870000F920FB60F9211242F933F934F935F9394
:104880006F937F938F939F93AF93BF93EF93FF9318
:104890008091BC039091BD03A091BE03B091BF0372
:1048A000892B8A2B8B2BD1F19091B703E091B80320
:1048B000F091B9038081892780838091BC03909116
:1048C000BD03A091BE03B091BF03181619061A06C6
:1048D0001B069CF48091BC039091BD03A091BE0384
:1048E000B091BF030197A109B1098093BC039093D4
:1048F000BD03A093BE03B093BF03FF91EF91BF919F
:10490000AF919F918F917F916F915F914F913F9167
:104910002F910F900FBE0F901F90189580911E0140
:10492000E0EFF2E0E4919FEF90931E01E13051F04F
:1049300030F0E23069F061E00E94C303DECF1092F4
:104940006E00F9CF90916F009D7F90936F00F3CF31
:10495000909170009D7F9093700091E09093B000D3
:104960009091B100987F94609093B1001092B30041
:10497000E2CF1F920F920FB60F9211242F933F9305
:104980004F935F936F937F938F939F93AF93BF9357
:10499000EF93FF938AEE95E00E949502FF91EF91CD
:1049A000BF91AF919F918F917F916F915F914F9147
:1049B0003F912F910F900FBE0F901F9018951F924F
:1049C0000F920FB60F9211242F938F939F93EF9313
:1049D000FF93E091FA05F091FB058081E0910006DC
:1049E000F091010682FD1BC09081809103068F5FCC
:1049F0008F7320910406821741F0E0910306F0E0E6
:104A0000E651FA4F958F80930306FF91EF919F91A6
:104A10008F912F910F900FBE0F901F90189580814E
:104A2000F4CF1F920F920FB60F9211242F933F9342
:104A30008F939F93AF93BF9380915A0290915B02A3
:104A4000A0915C02B0915D023091590223E0230FE6
:104A50002D3758F50196A11DB11D20935902809361
:104A60005A0290935B02A0935C02B0935D02809126
:104A70005E0290915F02A0916002B0916102019686
:104A8000A11DB11D80935E0290935F02A09360020E
:104A9000B0936102BF91AF919F918F913F912F9100
:104AA0000F900FBE0F901F90189526E8230F0296C7
:104AB000A11DB11DD2CF1F920F920FB60F921124DC
:104AC0002F933F934F935F936F937F938F939F9316
:104AD000AF93BF93EF93FF93E0910301F091040133
:104AE0000995FF91EF91BF91AF919F918F917F9128
:104AF0006F915F914F913F912F910F900FBE0F904B
:104B00001F9018951F920F920FB60F9211242F939A
:104B10003F934F935F936F937F938F939F93AF9345
:104B2000BF93EF93FF93E0910101F091020109958A
:104B3000FF91EF91BF91AF919F918F917F916F9175
:104B40005F914F913F912F910F900FBE0F901F904B
:104B500018951F920F920FB60F9211240F931F9367
:104B60002F933F934F935F936F937F938F939F9375
:104B7000AF93BF93EF93FF930E945A0500910E02EB
:104B800010910F022091100230911102601B710BE5
:104B9000820B930B6C32714081059105A8F00E9445
:104BA0005A0560930E0270930F0280931002909347
:104BB00011028EE00E944D03892BC9F481E080939D
:104BC000520281E08093B503FF91EF91BF91AF91C5
:104BD0009F918F917F916F915F914F913F912F9115
:104BE0001F910F910F900FBE0F901F9018958FE09F
:104BF0000E944D0380934802E4CF1F920F920FB69C
:104C00000F9211240F900FBE0F901F9018951F92B6
:104C10000F920FB60F9211240F900FBE0F901F909E
:104C200018951092ED051092EC0588EE93E0A0E047
:104C3000B0E08093EE059093EF05A093F005B0935C
:104C4000F10586E691E09093EB058093EA0585EC0B
:104C500090E09093F7058093F60584EC90E09093B4
:104C6000F9058093F80580EC90E09093FB05809324
:104C7000FA0581EC90E09093FD058093FC0582ECB1
:104C800090E09093FF058093FE0586EC90E0909372
:104C900001068093000610920306109204061092FB
:104CA00005061092060680E5809387061092880616
:104CB00010928E0610928F06109292061092940611
:104CC00082E090E0A0E0B0E0809395069093960695
:104CD000A0939706B09398061092AC061092B60671
:104CE0001092B50688E791E09093B4068093B306DE
:104CF0001092B8061092D5061092D40684E891E07E
:104D00009093D3068093D20689E08093D6068FEFE6
:104D10008093D70688E08093D80687E08093D906F1
:104D200086E08093DA0685E08093DB0684E080935A
:104D3000DC061092DD061092DE061092DF0610925D
:104D4000E00661E089E00E94F1038091D7068F3F81
:104D500019F061E00E94F10361E08091D8060E94A1
:104D6000F1031092E10681E00E9462121092EA06BD
:104D70001092E90648EE53E060E070E04093EB06E5
:104D80005093EC066093ED067093EE0680E991E097
:104D90009093E8068093E7061092010710920007AF
:104DA0001092F3061092050710920407409306072D
:104DB00050930707609308077093090790930307C0
:104DC0008093020710921C0710921B0710920E0787
:104DD0000895CF93DF93CDB7DEB7E6970FB6F8947B
:104DE000DEBF0FBECDBF789484B5826084BD84B52C
:104DF000816084BD85B5826085BD85B5816085BDD6
:104E000080916E00816080936E001092810080918D
:104E10008100826080938100809181008160809315
:104E20008100809180008160809380008091B1003A
:104E300084608093B1008091B00081608093B00065
:104E400080917A00846080937A0080917A008260F9
:104E500080937A0080917A00816080937A008091BB
:104E60007A00806880937A001092C10060E072EC52
:104E700081E090E00E94AC0190E080E00E94782FF9
:104E80008E3F99F581E090E00E94782F90E0B0E0AD
:104E9000A0E080936A0290936B02A0936C02B0939F
:104EA0006D0282E090E00E94782F8093620283E09E
:104EB00090E00E94782F8093AA0380916A029091DB
:104EC0006B02A0916C02B0916D0281309105A10539
:104ED000B10509F44CC16CF5892B8A2B8B2BC1F1E0
:104EE00060E072EC81E090E037C06EEF90E080E02F
:104EF0000E94991D64E081E090E00E94991D61E0AC
:104F000082E090E00E94991D60E083E090E00E94C2
:104F1000991D84E090E0A0E0B0E080936A02909355
:104F20006B02A0936C02B0936D0281E080936202E9
:104F3000C4CF82309105A105B10509F41DC10397C5
:104F4000A105B10569F660E071EE80E090E004C073
:104F500060E875E280E090E00E94AC0160E082E0F1
:104F60000E94F10360E083E00E94F10361E082E0CF
:104F70000E94C30361E083E00E94C30326E733E09D
:104F80003093020120930101809169008C7F816040
:104F900080936900E89A3093040120930301809183
:104FA0006900837F846080936900E99A80916C0036
:104FB000836080936C00D99A8091680082608093AE
:104FC00068000E944E1780931D0165E171E081E049
:104FD0000E94D8126DE071E082E00E94D81265E074
:104FE00071E083E00E94D81282E00E94621268EEB3
:104FF00071E082ED96E00E94AA1461E080E00E94D8
:10500000321269EF71E082ED96E00E94AA1410E17D
:105010008CE10E9424121150D9F710E188E10E941E
:10502000241262E370E080E090E00E9428051150B5
:10503000A9F760E273E080E090E00E9428050E94FA
:105040002A120E94C51810926502109264021092F2
:1050500067021092660210926902109268020E9422
:105060002D16809363028091B603811109C080914F
:10507000B503882309F485C01092B5030E949B1DD7
:105080008091B403882309F4D0C08091B3038823AE
:1050900009F4AAC10E945A058090AF039090B00312
:1050A000A090B103B090B203681979098A099B09ED
:1050B000693E73408105910508F4B7C06FE38AEE3D
:1050C00095E00E9410026AE070E080E090E00E94AB
:1050D00028050E945A056093AF037093B003809334
:1050E000B1039093B2038AEE95E00E947502181600
:1050F00019060CF09AC01AAA19AA1CAA1BAA1EAA61
:105100001DAA70E060E0CE01C1960E94191529A980
:105110003AA9811139C02115310519F0C9010E9440
:1051200015311AAA19AA1EAA1DAA1CAA1BAA0E94F6
:10513000660597FD31C089831A82EDA8FEA83FEF6E
:10514000E31AF30AB701CE01C1960E94191588230C
:1051500071F329A93AA98DA99EA9BE016F5F7F4F5E
:10516000820F931F0E948332FEAAEDAAE0CF60E077
:105170007BE480E090E0F0CE60E076E980E090E0D3
:10518000EBCE0E945A057CCF1EAA1DAA68EC71E0E6
:10519000C9010E948332CBCF1A8219821C821B82E2
:1051A0001E821D8264E070E0CE0101960E941915F6
:1051B00029813A8181110EC12115310519F0C901EA
:1051C0000E9415311A8219821E821D821C821B8246
:1051D000A980BA808DA99EA9892B09F4F9C2E9A8F2
:1051E000FAA8B501C7010E949932009709F4F0C2EC
:1051F000BC016E197F097B01A114B10409F0EFC253
:10520000EF20E09461F01092B3030E945A0560937E
:10521000AB037093AC038093AD039093AE0389A965
:105220009AA9009711F00E9415318091B603813040
:1052300009F02EC16AE973E0CE0101960E945B1667
:10524000BE016F5F7F4F82E097E00E94F2101092E4
:1052500093031092940344244394512C9FE2892E8B
:1052600091E0992E8091B603823009F0F8C08091C8
:10527000B503882321F01092B5030E949B1D8091F5
:10528000B6038130A1F78091B503882321F01092F5
:10529000B5030E949B1D8091C80381114BC00E94E1
:1052A0005A05C0909603D0909703E0909803F09031
:1052B00099036C197D098E099F09693E7340810528
:1052C0009105C0F1E0901B07F0901C076FEF7FEF96
:1052D000CB01E114F10429F0F7016285738584851F
:1052E00095850E947D2E5B016C0160E070E0CB0132
:1052F000E114F10429F0F70163897489858996899D
:105300000E947D2E9B01AC01C601B5010E94DF2FDA
:1053100020E030E048EC52E40E94BA2E0E94701D5A
:105320000E945A05609396037093970380939803A5
:1053300090939903E0911B07F0911C07309771F04F
:10534000438954896589768982859385A485B58545
:10535000481759076A077B0709F4D0C1B090930337
:10536000332433943B0CF5E03F1201C0312C809183
:105370009403831509F4C2C180E3EEE6F2E01192D2
:105380008A95E9F782E097E00E944A10892B09F498
:105390008CC082E097E00E94CE10883209F085C070
:1053A000E0911B07F0911C07309769F04285538507
:1053B0006485758583899489A589B68948175907B5
:1053C0006A077B07F9F282E097E00E94C4100A970F
:1053D00039F7D8CF84E090E09E838D8369E072E056
:1053E000C9010E948332F4CE0E945A058090AB031B
:1053F0009090AC03A090AD03B090AE03AB01BC01A4
:10540000481959096A097B091091AA0328EE33E06B
:105410001203C001139F900D1124092E000CAA0B3A
:10542000BB0B84179507A607B70708F0FECE0E94AE
:10543000220464EF71E080E090E00E9428050E9461
:10544000220464EF71E080E090E00E9428050E9451
:1054500022041092B40381E08093B603E6CE833039
:1054600009F011CF1092B4031092B6031092C80342
:105470001092C9031092CA031092CB031092CC036E
:105480000E949B1D1092B60382E097E00E940715D0
:1054900080E090E0892B09F4E6CD0E948102882308
:1054A00009F4E1CD0E940000DECDE0911B07F091F0
:1054B0001C078FEF9FEFDC01309721F082859385E9
:1054C000A485B585AC01BD01405D5F4F6F4F7F4F37
:1054D000309709F4E7C0C388D488E588F688C416F5
:1054E000D506E606F70608F4E5C010E3712C612C3A
:1054F00082E097E00E944A10892B69F082E097E0F1
:105500000E94C410F301E259FD4F80838A3019F4E0
:1055100011E0160DD3C0FFEF6F1A7F0A611640F33A
:10552000CDC06935C9F4E7E2F1E0342F11923A9524
:10553000E9F7822F00E0E02FF0E0E95DFE4FA1E007
:10554000B0E0AC0FBD1FA80FB11D9C91908321E06E
:10555000280F0F5F92E029C06A35C9F4EFE1F1E04E
:10556000342F11923A95E9F7822F00E0E02FF0E016
:10557000E15EFE4FA1E0B0E0AC0FBD1FA80FB11D72
:105580009C91908321E0280F0F5F93E00EC0303292
:1055900059F0333549F0363439F0923061F29330B6
:1055A00029F3913009F403C190E0822FD9C0E09033
:1055B0001B07F0901C076FEF7FEFCB01E114F104A4
:1055C00029F0F70162857385848595850E947D2E7B
:1055D0002B013C0160E070E0CB01E114F10429F003
:1055E000F70163897489858996890E947D2E9B01C4
:1055F000AC01C301B2010E94DF2F20E030E048EC93
:1056000052E40E94BA2E0E94701D8EEF582E0E9406
:105610005A056B017C018AEE95E00E94530290913D
:1056200095038B3621F49F5F9093950302C08A33D4
:10563000D1F380919503823039F51092950344247B
:105640004394E0911B07F0911C07309709F40ACEB0
:10565000438954896589768982859385A485B58532
:10566000481759076A077B0709F0FCCDFEEF5F1268
:10567000F9CD8091AA03882309F404CF81E08093B7
:10568000B4038093B303FECE0E945A056C197D09C2
:105690008E099F09653171058105910508F4BBCF1D
:1056A000412CCFCF452B462B472B09F41ECFC12CC5
:1056B000D12C76011C2D181B09F018CF8091940372
:1056C0003816E1F021E3B29EC0011124FC01E2563C
:1056D000FD4F1083BC0161567D4F7B0140E350E0DC
:1056E0006FEF70E0C7010E947132412F50E06EE60B
:1056F00072E0C7010E9468323092930371E0471252
:1057000086CF1091940380919303181709F44FCF1B
:1057100081E3189FB0011124FB01E256FD4F508038
:10572000E52CF12C61567D4FA701CE0101960E9418
:1057300068321F5F153009F410E010939403EEEF08
:105740005E1609F434CFA701BE016F5F7F4F8AEE6A
:1057500095E00E9417025EEF550D90E080E048E072
:10576000851708F054CF282F30E0823050F0EFEF4B
:10577000FFEFEC0FFD1FE20FF31F60816E3209F4A3
:1057800090E061E070E06C0F7D1F260F371FF9017C
:105790003081632F6F7D21E0280F683509F0C1CE7D
:1057A000F401342F11923A95E9F7822F00E0E02FAF
:1057B000F0E0E15DFE4FA1E0B0E0AC0FBD1FA80F2F
:1057C000B11D9C91908321E0280F0F5F91E0EDCEF9
:1057D000EE24EA94FE2CA114B10409F420CDC501F5
:1057E0000E9415310DCDEF920F931F93CF93DF934E
:1057F000E80134E047FD34E1042E000C550B57FF5F
:1058000003C0519541955109E32E022F242FAE017B
:105810000E94362CCE01DF91CF911F910F91EF9016
:105820000895BB274A3031F4992322F4BDE29095C4
:1058300081959F4F0C941D2CBB27FB015527AA2750
:10584000880F991FAA1FA41710F0A41B839550510D
:10585000B9F7A05DAA3308F0A95DA193009779F785
:10586000B111B1931192CB010C946D2EA9E0B0E06F
:10587000ECE3FCE20C949F2F6A01F22EB02E102F65
:10588000FBE3AF2EA01608F41BE31F5F012F27E0F8
:10589000AE014F5F5F4F0E94952DBC018981982F0B
:1058A0009970913009F43FC09BE2E1FC04C09E2D49
:1058B0009170E0FC3AC05E2D5071E82FE87083FFD4
:1058C00046C084E0911101C083E0EF2DE81B8F15E5
:1058D00008F0E0E0D6018E2F20E2552351F1992304
:1058E00029F0D6019C93C60101966C0196012D5FAB
:1058F0003F4FE2FE24C08EE4D6018C9391E41196D2
:105900009C93119712968C93D9018E2F90E281115E
:105910001BC0E20FF32FF11D10828EEF9FEF29962F
:10592000ECE00C94BB2F9DE2C6CF90E2C4CF2D9348
:1059300081508111FCCFCE0ED11CE0E0D0CF8EE69D
:10594000D6018C9391E6DBCF9D938150E0CF482F19
:10595000447082FF3DC084E0911101C083E08F1547
:1059600010F4EF2DE81BD6018E2F20E2552309F10C
:10597000992329F0D6019C93C60101966C019601EA
:105980002D5F3F4FE2FE1BC089E4D6018C938EE46D
:1059900011968C93119786E412968C93D9018E2FD1
:1059A00090E2882309F4B5CF9D938150FACF2D93CF
:1059B00081508111FCCFCE0ED11CE0E0D9CF89E619
:1059C000D6018C938EE611968C93119786E6E4CFE0
:1059D0009B0177FF02C030E020E0A1E0B0E0911130
:1059E00002C0B0E0A0E0F9013196AE0FBF1F8B2CD2
:1059F000912CBB2009F461C05401EFEFAE1ABE0A2E
:105A0000AA0DBB1DFA161B0619F014F04F2D4A1BE8
:105A1000511188C0E3FC59C07601A42FB0E2A11156
:105A20004FC0C40ED11C992309F45BC040E0D601DD
:105A30001196F60190836D01552309F448C0012F9A
:105A4000060F9A81582F507184FF03C0913309F4D7
:105A5000015010160CF047C0093008F008E0EEE2E3
:105A6000FE2E5B01A01AB1088501919481949108E2
:105A70002F3F320729F4D601FC92F60131966F01CF
:105A80006217730794F1021713077CF5DB01A21B61
:105A9000B30BAA24A394B12CAC0EBD1EAA0DBB1D42
:105AA00011968C9121503109D6011196281539058E
:105AB000F4F0F60180836D01DBCFB12CA12CA0CFD7
:105AC000F701B1937F01A150AACF9111B0CFD601B8
:105AD000942F50E302C05D9391509111FCCFC40EFE
