:100000000C94A4010C949D1D0C94761D0C94480531
:100010000C94F2040C9452050C94CC010C94C41D65
:100020000C94CC010C94CC010C94CC010C94CC011C
:100030000C94CC010C94CC010C94CC010C94CC010C
:100040000C942C1D0C94CC010C9438120C941212AC
:100050000C94CC010C94CC010C94CC010C94CC01EC
:100060000C94CC010C94CC012E0BB10AB40ABB0A3F
:10007000D80AD60AF10AF40AF70A00407A10F35AAD
:1000800000A0724E18090010A5D4E80000E87648D8
:10009000170000E40B54020000CA9A3B000000E184
:1000A000F505000080969800000040420F00000017
:1000B000A08601000000102700000000E8030000F7
:1000C00000006400000000000A00000000000100C1
:1000D000000000002C76D888DC674F0823DFC1DFE2
:1000E000AE59E1B1B796E5E3E453C63AE6519976E5
:1000F00096E8E6C28426EB898C9B62ED407C6FFC1F
:10010000EFBC9C9F40F2BAA56FA5F490055A2AF760
:100110005C936B6CF9676DC11BFCE0E40D47FEF569
:1001200020E6B500D0ED902E0300943577050080D1
:10013000841E080000204E0A000000C80C33333330
:10014000330F986E12831141EF8D2114893BE655D0
:1001500016CFFEE6DB18D1844B381BF77C1D901DB3
:10016000A4BBE424203284725E228100C9F124EC15
:10017000A1E53D274D6F7665205A004D6F766520CD
:1001800059004D6F76652058004261636B004E6FD9
:10019000205344204361726400434E432046726FF3
:1001A0006D2053440053657474696E6700436F6E2D
:1001B00074726F6C004D61696E0053746F702043F0
:1001C0004E4300526573756D6520434E4300506188
:1001D00075736520434E4300436F6E74726F6C00FD
:1001E0004D61696E00556E6C6F636B204772626C77
:1001F000004772626C204D6F646500476F20546F3A
:10020000204F726967696E00536574204F72696789
:10021000696E005A6F726520506F73004D6F76657E
:100220002041786973005370696E646C6520537067
:10023000656564004175746F20486F6D65004261AB
:10024000636B0042757A7A6572004D656E75204D5C
:10025000656D6F727900426175642052617465004A
:100260004261636B004261636B004E6F00596573BE
:10027000004261636B004E6F005965730042616319
:100280006B003131353230300035373630300033A5
:1002900038343030003139323030003936303000C7
:1002A0004261636B004C61736572005370696E64E8
:1002B0006C65004261636B004D6F766520302E31B6
:1002C0006D6D004D6F766520316D6D004D6F7665FB
:1002D0002031306D6D004261636B007C3C3E5E2BD3
:1002E0003D3F2F5B5D3B2C2A225C00000000002478
:1002F0000027002A0000000000230026002900003B
:1003000000000800020100000304070000000000D4
:1003100000000001020408102040800102040810BF
:100320002001020408102000000000250028002BF6
:10033000000404040404040404020202020202038E
:10034000030303030302EE2411241FBECFEFD8E002
:10035000DEBFCDBF12E0A0E0B1E0E8E4FFE502C0FF
:1003600005900D92AE36B107D9F727E0AEE6B2E0C0
:1003700001C01D92A431B207E1F711E0C4EAD1E057
:1003800004C02197FE010E941E2EC33AD107C9F76F
:100390000E949B250C94A22F0C940000089580E0ED
:1003A00090E00895CF93DF9382E00E94AF20EC01AC
:1003B00083E00E94AF20CC0FDD1F8C2B9D2B209162
:1003C000720230917302220F331F220F331F282B2A
:1003D000392B2D30310549F02430310531F02230F0
:1003E000310519F02B30310529F440918E024F5F11
:1003F00040938E022E30310549F0A9014750510932
:100400004230510518F02130310529F420918E0237
:10041000215020938E02909373028093720281E0A8
:1004200080930606DF91CF910895CF93DF93EC017F
:1004300060E08E810E94D82061E08E810E94D820E9
:1004400060E08E810E94D8208BE891E00197F1F75F
:10045000DF91CF9108950F931F93CF93DF938C017A
:10046000EB014AE00E94DB29FE0101900020E9F740
:100470003197BF016C1B7D0B862F7727DE01A60FFE
:10048000B71F17FD0AC0813051F011961C921197C9
:10049000FB013197EC0FFD1F19C0823079F41296E1
:1004A0001C921297FB013197EC0FFD1F8081119672
:1004B0008C9311978EE28C9380E30BC011961C9263
:1004C000119761507109FE01E60FF71F80818C932F
:1004D0008EE28083DF91CF911F910F910895EF926B
:1004E000FF920F931F93CF93DF93CDB7DEB728977B
:1004F0000FB6F894DEBF0FBECDBF809107069E01F8
:100500002F5F3F4F790160E0811166C00E94311971
:1005100088E50E94541C18E0F701212F11922A95BA
:10052000E9F7B7018091E7059091E8050E942B0259
:10053000F70101900020E9F73197EE19FF0907E074
:1005400060E0802F8E1B0E943119B70189E995E088
:100550000E94101260E088E00E94311989E50E9433
:10056000541CF701212F11922A95E9F7B7018091C8
:10057000E9059091EA050E942B02F7010190002005
:10058000E9F78E2D8E1B60E0805F0E943119B70164
:1005900089E995E00E94101261E080E00E94311923
:1005A0008AE50E94541CF70111921A95E9F7B701E8
:1005B0008091EB059091EC050E942B02F7010190D0
:1005C0000020E9F73197EE19FF0961E0802F8E1BBB
:1005D0000E943119B7014AC080E00E94311988E5B4
:1005E0000E94541CE2EFF6E001900020E9F73197F9
:1005F000E25FF64017E060E0812F8E1B0E94311908
:1006000062EF76E089E995E00E94101260E088E0F0
:100610000E94311989E50E94541CEAEEF6E001902F
:100620000020E9F73197EA5EF64060E08FE08E1B2C
:100630000E9431196AEE76E089E995E00E94101275
:1006400061E080E00E9431198AE50E94541CE2EECC
:10065000F6E001900020E9F73197E25EF64061E0B4
:10066000812F8E1B0E94311962EE76E089E995E0B8
:100670000E94101261E088E00E9431196EEB71E077
:1006800089E995E00E94101288E0F70111928A959D
:10069000E9F76091DE067091DF068091E0069091A7
:1006A000E106870121E043E00E94BB29F7010190A8
:1006B0000020E9F78E2D8E1B61E0815F0E943119C9
:1006C000B70189E995E00E94101285E20E94541C4E
:1006D00028960FB6F894DEBF0FBECDBFDF91CF9145
:1006E0001F910F91FF90EF9008950C944A2C1F9347
:1006F000CF93DF93CDB7DEB76B970FB6F894DEBF1D
:100700000FBECDBF10E0CE0101960E948E1CEA8D77
:10071000FB8D309719F40E946E1A0DC085818823D5
:10072000D1F3823018F41F3F31F01F5FCE010196E4
:100730000E945C1AE8CF812F6B960FB6F894DEBF4B
:100740000FBECDBFDF91CF911F9108958F929F92E1
:10075000AF92BF92CF92DF92EF92FF921F93CF930F
:10076000DF93CDB7DEB76B970FB6F894DEBF0FBE41
:10077000CDBF61E08AE00E9407218FE00E94AF2098
:10078000019719F480EC91E005C180917F058823E1
:1007900021F08AE795E00E94771710925B0510928E
:1007A000590510925605109255058AE0809354051C
:1007B0000E9462226B017C0161E0809154050E94DD
:1007C000072161E0809154050E94D8201FB7F8945A
:1007D00080917402811127C0EBE3F3E08491EDE195
:1007E000F3E09491E82FF0E0EE0FFF1FE551FD4F8D
:1007F000A591B491EC91E92321F461E08AE00E9493
:10080000D82061E08AE00E9407218CB580618CBD10
:100810008CB580648CBD61E08DE00E94072161E0B1
:100820008BE00E940721809174028F5F8093740295
:100830001FBF82E580934E0510924F0580914E05B3
:1008400090914F050E94D7231AE08FEF0E94B323A7
:100850001150D9F780E595E00E94DA2320E030E0DE
:10086000A90160E080E595E00E94F023182F8093B5
:100870005A05813049F00E9462226C197D09613D60
:10088000774060F381E055C02AEA31E040E050E073
:1008900068E080E595E00E94F02382FF03C010939A
:1008A0005B050EC014E00E94BA2380935A051150D4
:1008B000D1F78A3A11F082E03CC082E080935B0578
:1008C00080915B05823021F0812C912C540105C070
:1008D000812C912CA12C80E4B82E20E030E0A901DD
:1008E00067E380E595E00E94F023A501940169E2A9
:1008F00080E595E00E94F023182F80935A05882305
:1009000049F00E9462226C197D09613D774028F30D
:1009100088E00FC080915B05823001F520E030E077
:10092000A9016AE380E595E00E94F023882341F065
:1009300086E08093550580E595E00E94A82328C0B5
:100940000E94BA23807C803C19F483E080935B058D
:100950000E94BA230E94BA230E94BA2380E595E040
:100960000E94A82380E580934E0510924F0581E0F8
:100970000E94FB1E882339F08AE795E00E94941EAE
:10098000882331F00BC080E00E94FB1E8111F4CF60
:100990008BEC91E00E94E81E11E011C082EE91E024
:1009A0000E94E81E67EF71E0CE0101960E946E2260
:1009B000BE016F5F7F4F8EEA95E00E945D1C812F24
:1009C0006B960FB6F894DEBF0FBECDBFDF91CF910F
:1009D0001F91FF90EF90DF90CF90BF90AF909F90CE
:1009E0008F9008951F920F920FB60F9211240F93BC
:1009F0001F932F933F934F935F936F937F938F93A7
:100A00009F93AF93BF93EF93FF930E946222009155
:100A10006E0210916F022091700230917102DC0120
:100A2000CB01801B910BA20BB30B8C329140A10523
:100A3000B105D8F00E94622260936E0270936F023B
:100A400080937002909371028EE00E94AF20892BF8
:100A500021F481E080938F0205C08FE00E94AF20D7
:100A600080938C0281E080930606FF91EF91BF9105
:100A7000AF919F918F917F916F915F914F913F9136
:100A80002F911F910F910F900FBE0F901F901895EF
:100A90001F920F920FB60F9211240F900FBE0F905E
:100AA0001F9018951F920F920FB60F9211240F905E
:100AB0000FBE0F901F901895AF92BF92CF92DF920A
:100AC000EF92FF920F931F93CF93DF935C017C0112
:100AD00087E0E80EF11CC0E0D0E0062F10E06701CF
:100AE00061E0F70181917F010E940721B8010C2E7E
:100AF00002C0759567950A94E2F76170F6018081EE
:100B00000E94D8202196C430D10549F7C501DF9154
:100B1000CF911F910F91FF90EF90DF90CF90BF90FA
:100B2000AF900C941502AF92BF92CF92DF92EF92EA
:100B3000FF920F931F93CF93DF93EC01F62E642F58
:100B40008C810E94D8208D818F3F19F060E00E9437
:100B5000D8208F850F2D10E084FF2DC05E0187E027
:100B6000A80EB11CE12CF12C650161E0F501819129
:100B70005F010E940721B8010E2C02C07595679590
:100B80000A94E2F76170F60180810E94D820FFEF9D
:100B9000EF1AFF0A88E0E816F10431F7CE01DF9181
:100BA000CF911F910F91FF90EF90DF90CF90BF906A
:100BB000AF900C941502B80184E0759567958A95FD
:100BC000E1F7CE010E945C056F2DCE01DF91CF9140
:100BD0001F910F91FF90EF90DF90CF90BF90AF905B
:100BE0000C945C0541E00E94930581E090E008953B
:100BF000DF92EF92FF920F931F93CF93DF93C82F53
:100C00007B01D42ED22F60910107082F10E0209194
:100C10000207862F90E0820F911D8017910771F4D3
:100C200080E00E9431198D2D0E94541C60910107B3
:100C30008FE00E9431198D2F0E94541C8091020771
:100C4000C81700F1081B110902301105DCF46C2FE4
:100C5000681B81E00E943119CEE0F70164916623A0
:100C600051F041E089E995E00E949305C150FFEF02
:100C7000EF1AFF0AF2CFCC2329F080E20E94541C25
:100C8000C150F9CFDF91CF911F910F91FF90EF905D
:100C9000DF90089521E041E069E871E080E00E9482
:100CA000F80522E04EE362E871E081E00E94F80579
:100CB00022E04EE36BE771E082E00E94F80522E05B
:100CC0004EE364E771E083E00C94F8058F929F9205
:100CD000AF92BF92CF92DF92EF92FF920F931F934A
:100CE000CF93DF93CDB7DEB7A1970FB6F894DEBFF1
:100CF0000FBECDBF811103C00E946F026EC3813051
:100D000009F04FC08091070621E041E0811126C023
:100D100065EB71E00E94F80522E04EE36DEA71E0B8
:100D200081E00E94F80522E04EE365EA71E082E08E
:100D30000E94F80580912101811105C022E04EE357
:100D400069E971E007C0813009F047C320E24EE352
:100D50006EE871E083E00E94F8053FC360EE71E049
:100D600080E00E94F80520E24EE368ED71E081E04A
:100D70000E94F80580910706813031F420E24EE3AD
:100D80006EEC71E082E006C0823031F420E24EE386
:100D900063EC71E00E94F80520E24EE36AEB71E03B
:100DA000D9CF823009F0ABC080917D02823009F446
:100DB00043C0833009F45BC0813009F00EC321E0E9
:100DC00041E06EE372E080E00E94F80520E24EE32D
:100DD00064E372E081E00E94F80520E24EE366E2FF
:100DE00072E085E00E94F80522E04EE36CE172E0DB
:100DF00083E00E94F80520E24EE363E172E084E0C4
:100E00000E94F80520E24EE368E072E086E00E946E
:100E1000F80520E24EE36BEF71E087E00E94F805F1
:100E200022E04EE361EF71E088E00E94F80520E2E5
:100E30004EE365EE71E019C021E041E060E672E04A
:100E400080E00E94F80522E04EE366E572E081E072
:100E50000E94F80522E04EE36AE472E083E00E941B
:100E6000F80522E04EE363E472E082E074CF21E013
:100E700041E065E672E080E00E94F80501E010E0E4
:100E8000CE0101960E948E1CEA8DFB8D309719F0E1
:100E90008581811103C00E946E1A9FC2823050F575
:100EA000609101077801FF2420910207862F90E0CE
:100EB000820F911D8E159F05A9F480E00E943119C3
:100EC0008EE30E94541C609101078FE00E9431194B
:100ED00080E20E94541CBE01635F7F4F82EF95E069
:100EE0000E948C2F602F80910207081708F050C2D3
:100EF0000F5F1F4FCE0101960E945C1AC1CF833055
:100F000009F051C180917D02813009F0B5C0809116
:100F10007E02853001F1883009F490C0833009F0F9
:100F20005CC221E041E066ED72E080E00E94F805DD
:100F300022E04EE36CEC72E081E00E94F80522E0D2
:100F40004EE363EC72E082E00E94F80522E04EE39B
:100F500068EB72E0FFCE90918D0280917502FAE00D
:100F60009F9F800D112487FD03C08093750202C0EE
:100F7000109275028091750285361CF084E680938C
:100F8000750260E080E00E94311969EF71E089E943
:100F900095E00E94101260E08BE00E943119C09031
:100FA00075020C2C000CDD08EE08FF08F7FE23C0CC
:100FB0008DE20E94541C22273327A9012C193D09D8
:100FC0004E095F0919A2CE0181967C017AE0872E35
:100FD000912CA12CB12CCA01B901A50194010E9448
:100FE000FC2D605DF70162937F01211531054105FC
:100FF000510589F71AC0A701960119A2CE01819661
:101000007C016AE0862E912CA12CB12CCA01B90179
:10101000A50194010E94FC2D605DF70162937F01A0
:10102000211531054105510589F7B70189E995E099
:101030000E94FB1185E20E94541CCFC180910001E7
:10104000882321F0813029F413E004C010E203E08A
:1010500002C010E200E221E041E063EB72E080E0D8
:101060000E94F805402F6BEA72E081E00E9429207F
:10107000412F65EA72E093C0823009F0AEC18091E1
:101080007E02823009F470C0833009F451C081308F
:1010900009F0A3C18091ED059091EE05A091EF05B7
:1010A000B091F00585309105A105B105A8F4FC01CA
:1010B000EB5AFE4FD080FC01E05BFE4FE080FC016C
:1010C000E55BFE4FF080FC01EA5BFE4F0081FC0116
:1010D000EF5BFE4F108108C010E200E280E2F82EC4
:1010E00090E2E92E20E2D22E21E041E060EA72E0B7
:1010F00080E00E94F8054D2D6BE972E081E00E94CE
:1011000029204E2D65E972E082E00E9429204F2DB2
:101110006FE872E083E00E942920402F69E872E0C6
:1011200084E00E942920412F62E872E085E038C007
:101130008091E505882329F010E2813019F403E05D
:1011400002C013E000E221E041E06DE772E080E0E0
:101150000E94F805402F69E772E081E00E94292093
:10116000412F66E772E01BC08091E405882329F0D7
:1011700010E2813019F403E002C013E000E221E044
:1011800041E061E772E080E00E94F805402F6DE6E3
:1011900072E081E00E942920412F6AE672E082E03D
:1011A0000E9429201AC18430B1F480917D028130DF
:1011B00009F013C180917E02833009F00EC1809145
:1011C0007F02823029F0833019F0813009F005C1A7
:1011D0000E944A0602C1853009F0FFC080917D025D
:1011E000813009F0FAC080917E02833009F0F5C0A9
:1011F00090917F02809180029130F9F4823069F001
:10120000833099F0813009F07AC020918D0280916D
:10121000760290917702F4E620C020918D028091B1
:1012200078029091790234E624C020918D02809159
:101230007A0290917B02E4E628C0923079F5823000
:1012400089F08330D9F0813009F059C020918D02A6
:101250008091760290917702FAE02F02800D911D25
:1012600011242EC020918D028091780290917902F4
:101270003AE02302800D911D112431C020918D028E
:1012800080917A0290917B02EAE02E02800D911DFE
:10129000112490937B0280937A025EC0933079F59B
:1012A000823099F0833001F1813049F520918D022F
:1012B0008091760290917702820F911D27FD9A9579
:1012C000909377028093760221C020918D028091C5
:1012D000780290917902820F911D27FD9A95909343
:1012E00079028093780225C020918D0280917A0244
:1012F00090917B02820F911D27FD9A95CACF823073
:10130000C1F0833049F1813009F067C060E085E0C9
:101310000E94311988E50E94541C60E08AE00E9416
:101320003119BE016F5F7F4F8091760290917702F5
:1013300025C060E085E00E94311989E50E94541CB7
:1013400060E08AE00E943119BE016F5F7F4F80919B
:1013500078029091790212C060E085E00E94311914
:101360008AE50E94541C60E08AE00E943119BE01A7
:101370006F5F7F4F80917A0290917B020E942B02D7
:10138000BE016F5F7F4F89E995E00E94101225C072
:10139000E81AF10822E0E216F1040CF0A9CD681B6E
:1013A00081E00E9431196E013DE0C30ED11CEEE0D8
:1013B000FE2EF60161916F01662339F041E089E963
:1013C00095E00E949305FA94F4CFFF2009F490CDA4
:1013D00080E20E94541CFA94F8CFA1960FB6F894BC
:1013E000DEBF0FBECDBFDF91CF911F910F91FF9058
:1013F000EF90DF90CF90BF90AF909F908F90089527
:101400000F931F93CF93DF93CDB7DEB768970FB6D7
:10141000F894DEBF0FBECDBF80918F02813009F0FE
:101420004AC58091E40581110E94432110928F02E8
:101430002091DD06223009F47FC028F4222361F0D8
:101440002130B1F038C5243009F413C408F440C188
:10145000253009F46FC42FC581E08093DD0610921A
:101460008E02109202071092010710928D0223C57E
:10147000409107063091020780910107411134C065
:10148000482F50E0430F511D4130510559F01CF4D5
:10149000452BB1F110C54230510539F043305105AB
:1014A00031F009C520937D0209C092E005C09091FA
:1014B0002101911100C593E090937D029091E50583
:1014C000913041F43093A1028093990280918E0271
:1014D0008093910210928E021092020710920107DF
:1014E00010928D0282E05FC090E0830F911D8230E8
:1014F000910599F083309105E1F0892B09F0DBC467
:1015000010927D0210928E02109202071092010733
:1015100010928D021092DD06CEC4413021F482E09B
:10152000809307069FC3423009F0C5C42093070685
:1015300099C310920706BFC420917D02213009F0A3
:1015400058C09091020780910107E82FF0E0E90F61
:10155000F11DE930F10508F0AEC4EC5CFF4F0C94CE
:101560001E2E60E072E002C064E072E081EB94E065
:101570000E941012A0C423E020937E022091E50572
:10158000213041F49093A20280939A0280918E02BE
:101590008093920210928E0210920207109201071D
:1015A00010928D0283E08093DD0685C425E0E4CFB0
:1015B00068E072E081EB94E00E94101266E172E054
:1015C00081EB94E00E9410121092E8051092E7055A
:1015D0001092EA051092E9051092EC051092EB05C5
:1015E0006AC46BE172E0C2CF62E272E0BFCF28E072
:1015F000C3CF223039F54091020730910107832F84
:1016000090E0840F911D8130910561F01CF4892BCD
:1016100029F151C48230910549F0039709F04BC478
:1016200083E001C081E080937E0202C020937E02AD
:101630008091E505813009F0ADCF4093A20230934F
:101640009A02A4CF233009F036C42091020780917A
:10165000010790E0820F911D892BF9F410927E0210
:1016600010928E021092AA021092020710920107A5
:1016700010928D0281E08093DD068091E505813036
:1016800009F019C48091A102809302078091990208
:10169000809301078091910204C481E08093070642
:1016A0001092DD0688E0E2EFF6E0DF01282F1D92C0
:1016B0002A95E9F7EAEEF6E0DF01282F1D922A9538
:1016C000E9F7E2EEF6E0DF011D928A95E9F7F3C350
:1016D00080917E02833009F05BC040917D024130F1
:1016E00009F0BFC03091020720910107822F90E0DE
:1016F000830F911D8130910559F11CF4892B49F01C
:10170000B0C08230910539F1039709F0AAC083E097
:1017100023C010927F0210928E021092AA021092A1
:1017200002071092010710928D0282E08093DD067D
:101730008091E505813009F094C08091A2028093E8
:10174000020780919A0280930107809192027FC0E4
:1017500040937F0203C082E080937F028091E50581
:10176000813041F43093A30220939B0280918E023A
:101770008093930210928E021092AA021092020796
:101780001092010710928D0284E08093DD0669C0FB
:10179000853009F066C080917D02813009F061C01A
:1017A0008E010F5F1F4F88E0F80111928A95E9F7CB
:1017B00067E272E0C8010E948C2F80E28B8383E590
:1017C0008C83809175024AE0BE016B5F7F4FFAE027
:1017D0008F02C00111240E94DB29F8010190002032
:1017E000E9F731971082B80181EB94E00E94101262
:1017F0006CE672E081EB94E00E9410128091DD06AD
:10180000E82FF0E0E458FD4F108210928E02109203
:10181000AA02109202071092010710928D028150C5
:101820008093DD069091E5059130D9F490E0FC01BC
:10183000E056FD4F208120930207FC01E856FD4F42
:10184000208120930107FC01E057FD4F80818093A8
:101850008E0280918E0287FD8D5F859585958093A0
:10186000A90280917E02883009F061C020917D023A
:10187000213009F05CC0309102078091010790E0AF
:10188000830F911D8130910509F43EC0823091058E
:1018900009F43FC0892B09F044C08091DD068823FC
:1018A00009F43FC0E82FF0E0E458FD4F1082109299
:1018B0008E021092AA021092020710920107109253
:1018C0008D0281508093DD069091E505913049F5B8
:1018D00090E0FC01E056FD4F208120930207FC01BF
:1018E000E856FD4F208120930107FC01E057FD4F92
:1018F000808180938E0280918E0287FD8D5F859519
:1019000085958093A9020DC0109200016AE272E0F1
:1019100004C02093000161E372E081EB94E00E9437
:1019200010120E9429198091DD060E94660680919E
:101930007E02813009F0D3C080917D02823009F0AF
:10194000CEC04091ED055091EE056091EF0570918C
:10195000F005209102078091010790E0820F911D10
:101960008230910509F454C074F40097D1F00197C6
:1019700009F064C01092ED051092EE051092EF058B
:101980001092F0055BC08430910509F44BC00CF453
:1019900044C0059709F052C084E090E0A0E0B0E0B8
:1019A00045C08091DD06882309F448C0E82FF0E0A7
:1019B000E458FD4F108210928E021092AA021092EB
:1019C00002071092010710928D0281508093DD066C
:1019D0009091E505913091F590E0FC01E056FD4FC6
:1019E000208120930207FC01E856FD4F20812093BF
:1019F0000107FC01E057FD4F808180938E028091AA
:101A00008E0287FD8D5F859585958093A90216C00E
:101A100081E090E0A0E0B0E009C082E090E0A0E0CA
:101A2000B0E004C083E090E0A0E0B0E08093ED057A
:101A30009093EE05A093EF05B093F0050091ED05AE
:101A40001091EE052091EF053091F005DB01CA0100
:101A50009927AA27BB2780179107A207B307C9F1C7
:101A6000602F81E090E00E9475038091ED059091D8
:101A7000EE05A091EF05B091F00582309105A1052A
:101A8000B105E1F06CF40097A105B10591F0019763
:101A9000A105B105C1F460E07BE480E090E017C0EF
:101AA0000397A105B10579F460E071EE80E090E064
:101AB0000EC060E875E280E090E009C060E076E981
:101AC00080E090E004C060E072EC81E090E00E9471
:101AD000EA190E9429198091DD060E94660680910C
:101AE0007E02833009F05EC080917D02823009F071
:101AF00059C02091E505309102078091010790E0DF
:101B0000830F911D81309105C9F182309105D1F18A
:101B1000892BC1F58091DD068823B1F1E82FF0E033
:101B2000E458FD4F108210928E021092AA02109279
:101B300002071092010710928D0281508093DD06FA
:101B4000213011F590E0FC01E056FD4F30813093DB
:101B50000207FC01E856FD4F308130930107FC017C
:101B6000E057FD4F808180938E0280918E0287FD29
:101B70008D5F859585958093A90206C081E080934D
:101B8000E50502C01092E5056091E505261721F0F4
:101B900083E090E00E9475030E9429198091DD0680
:101BA0000E94660680917E02823009F084C1809195
:101BB0007D02823009F07FC12091E4053091020757
:101BC0008091010790E0830F911D8130910509F408
:101BD0003EC082309105C1F1892BC9F58091DD06A7
:101BE0008823C1F1E82FF0E0E458FD4F10821092F5
:101BF0008E021092AA021092020710920107109210
:101C00008D0281508093DD069091E505913011F5AC
:101C100090E0FC01E056FD4F308130930207FC015B
:101C2000E856FD4F308130930107FC01E057FD4F2E
:101C3000808180938E0280918E0287FD8D5F8595D5
:101C400085958093A90206C01092E40503C081E047
:101C50008093E4056091E405261721F084E090E08C
:101C60000E9475030E9429198091DD060E94660674
:101C700022C180917F028150833008F01CC15091B5
:101C80007E02533009F017C140917D02413009F0C6
:101C900012C13091020720910107822F90E0830F3B
:101CA000911D8130910551F11CF4892B49F003C13C
:101CB0008230910531F1039709F0FDC083E022C025
:101CC0001092800210928E021092AA0210920207C5
:101CD0001092010710928D025093DD068091E50568
:101CE000813009F0E8C08091A302809302078091BF
:101CF0009B028093010780919302D3C0409380029E
:101D000003C082E0809380028091E505813041F438
:101D10003093A40220939C0280918E0280939402BF
:101D200010928E02109202071092010710928D02FB
:101D300085E039CC80917D02813009F0BCC0809172
:101D40007E02833009F0B7C08E010F5F1F4F80E124
:101D5000D8011D928A95E9F768E372E0C8010E94F4
:101D60008C2F80E28B83809180028230E1F083307F
:101D700089F1813009F044C088E58C83BE016F5E33
:101D80007F4F80917602909177020E942B02BE01D4
:101D90006F5E7F4FCE0105960E948C2F10927702C6
:101DA000109276022DC089E58C83BE016F5E7F4F55
:101DB00080917802909179020E942B02BE016F5EA1
:101DC0007F4FCE0105960E948C2F109279021092BF
:101DD000780216C08AE58C83BE016F5E7F4F8091CA
:101DE0007A0290917B020E942B02BE016F5E7F4FB0
:101DF000CE0105960E948C2F10927B0210927A02DF
:101E0000F80101900020E9F7319780E28083F80122
:101E100001900020E9F7CF016BE372E001970E9487
:101E20008C2FF80101900020E9F73197108261E4CE
:101E300072E081EB94E00E941012B80181EB94E013
:101E40000E9410126CE672E081EB94E00E94101286
:101E50008091DD06E82FF0E0E458FD4F10821092EB
:101E60008E021092AA02109202071092010710929D
:101E70008D0281508093DD069091E5059130D9F473
:101E800090E0FC01E056FD4F208120930207FC0109
:101E9000E856FD4F208120930107FC01E057FD4FDC
:101EA000808180938E0280918E0287FD8D5F859563
:101EB00085958093A90290918E0297FD9D5F9595DF
:101EC00095959093AA024091A9028091DD062091F8
:101ED000F105941303C0821709F4B0C0821304C043
:101EE000292F241B20938D0297FF04C01092AA0271
:101EF00010928E02813031F49091AA0294300CF449
:101F00007DC015C0823041F590917D022091AA02DA
:101F1000913041F429300CF471C098E09093AA02FA
:101F200090E263C0923029F424300CF467C093E04F
:101F300059C0933009F062C09091E605692F70E0B6
:101F4000022E000C330B621773070CF057C09093EE
:101F5000AA02990F990F49C08330B1F530917D02E3
:101F60009091AA023130A1F420917E02233031F405
:101F700094300CF443C08093AA0236C02830F1F5A7
:101F80009330E4F192E09093AA0220938E0236C03F
:101F90003230A1F520917E02213039F4963074F16F
:101FA00095E09093AA0294E120C0233029F4933065
:101FB0002CF13093AA0206C0223001F59330F4F0E0
:101FC0002093AA0298E011C0843091F490917D0290
:101FD0009130A1F490917E02933081F42091AA0275
:101FE000243064F09093AA029CE090938E0206C085
:101FF000853021F41092AA0210928E029091AA02CA
:1020000020910107491724F4211109C021E005C0DE
:1020100094172CF4222319F0215020930107909358
:10202000A9028093F10580910107981B9093020704
:102030000E9429198091DD060E94660610918C028B
:102040008091A802181711F18091E40581110E9476
:10205000432111110FC00E94A60380932101811119
:1020600004C080918C028093A8020E947703809321
:10207000E60506C0113021F4109321011093A80247
:102080000E9429198091DD060E9466060E94622244
:1020900060930206709303068093040690930506EE
:1020A00068960FB6F894DEBF0FBECDBFDF91CF911B
:1020B0001F910F910895CF92DF92EF92FF920F93AD
:1020C0001F93CF93DF936C017A018B01C0E0D0E0C6
:1020D000CE15DF0581F0D8016D918D01D601ED910E
:1020E000FC910190F081E02DC6010995892B11F03A
:1020F0002196EECF7E01C701DF91CF911F910F9105
:10210000FF90EF90DF90CF900895FC01538D448DA8
:10211000252F30E0842F90E0821B930B541710F092
:10212000CF96089501970895FC01918D828D98179F
:1021300061F0828DDF01A80FB11D5D968C91928DAB
:102140009F5F9F73928F90E008958FEF9FEF0895A8
:10215000FC01918D828D981731F0828DE80FF11D71
:10216000858D90E008958FEF9FEF0895FC01918D8C
:10217000228D892F90E0805C9F4F821B91098F7385
:102180009927089581EB94E00E94B61021E0892BF5
:1021900009F420E0822F0895FC01848DDF01A80F4F
:1021A000B11DA35ABF4F2C91848D90E001968F737F
:1021B0009927848FA689B7892C93A089B1898C919E
:1021C000837080648C93938D848D981306C00288ED
:1021D000F389E02D80818F7D80830895EF92FF92B7
:1021E0000F931F93CF93DF93EC0181E0888F9B8D3A
:1021F0008C8D981305C0E889F989808185FD26C0FA
:10220000F62E0B8D10E00F5F1F4F0F731127E02E7E
:102210008C8DE8120CC00FB607FCFACFE889F9895B
:10222000808185FFF5CFCE010E94CC10F1CF8B8D40
:10223000FE01E80FF11DE35AFF4FF0829FB7F894BB
:102240000B8FEA89FB89808180620AC09FB7F8946E
:10225000EE89FF896083E889F989808183708064D1
:1022600080839FBF81E090E0DF91CF911F910F911C
:10227000FF90EF900895CF93DF93EC01888D882332
:10228000C9F0EA89FB89808185FD05C0A889B989E3
:102290008C9186FD0FC00FB607FCF5CF808185FFBE
:1022A000F2CFA889B9898C9185FFEDCFCE010E942C
:1022B000CC10E7CFDF91CF91089580E090E0892B9B
:1022C00029F00E94C21081110C9400000895AF9271
:1022D000BF92CF92DF92EF92FF920F931F93CF9313
:1022E000DF93EC016901C801820F931F8130924096
:1022F00008F070C08E81882371F088819981AA814D
:10230000BB8184179507A607B70729F48F819885A5
:10231000C816D906B0F5488359836A837B838B85B9
:10232000833039F089E0440F551F661F771F8A9567
:10233000D1F79A01AB0161E1CE010E94F02388231D
:1023400019F083E08D8346C00E9462225B010E94E7
:10235000BA238A878F3F49F40E9462226A197B0957
:102360006D327140A0F38FE003C08E3F31F08DE0FD
:102370008D83CE010E94A8232DC018861F8281E084
:102380008E838F8198858C159D0540F40E94BA2319
:102390008F819885019698878F83F3CF6701E00E30
:1023A000F11EEC14FD0431F00E94BA23F601819372
:1023B0006F01F7CF8F819885080F191F18870F833A
:1023C0008985882319F00115124048F0CE010E943A
:1023D000BD2305C0CE010E94A82380E001C081E09A
:1023E000DF91CF911F910F91FF90EF90DF90CF90F1
:1023F000BF90AF9008956115710579F0FB010190D0
:102400000020E9F73197AF01461B570BDC01ED9136
:10241000FC910280F381E02D099480E090E0089522
:102420000C94FB111F920F920FB60F9211242F9351
:102430003F934F935F936F937F938F939F93AF934C
:10244000BF93EF93FF9381EB94E00E94CC10FF9138
:10245000EF91BF91AF919F918F917F916F915F911C
:102460004F913F912F910F900FBE0F901F90189595
:102470001F920F920FB60F9211242F938F939F9359
:10248000EF93FF93E091C104F091C2048081E09149
:10249000C704F091C80482FD12C090818091CA04E3
:1024A0008F5F8F732091CB04821751F0E091CA04A3
:1024B000F0E0EF54FB4F958F8093CA0401C08081F8
:1024C000FF91EF919F918F912F910F900FBE0F90E1
:1024D0001F9018958FB7F8948091AB028FBF089525
:1024E0000F931F93CF93DF93EB010E9462228B0126
:1024F0000E94BA238F3F49F00E946222601B710B39
:102500006C177D07A8F380E001C081E0DF91CF91D7
:102510001F910F910895EF92FF920F931F93CF9306
:10252000DF93EC017901411551056105710511F445
:1025300082E13CC08B85833039F089E0440F551F20
:10254000661F771F8A95D1F79A01AB0168E1CE012A
:102550000E94F023882311F084E028C08EEF0E94AF
:10256000B32387018EEFF81AF80181918F010E9441
:10257000B323E016F106C1F78FEF0E94B3238FEF6C
:102580000E94B3230E94BA238A878F71853031F06D
:1025900081E18D83CE010E94A82309C068E572E025
:1025A000CE010E947012811107C085E18D83CE019A
:1025B0000E94A82380E014C020E030E0A9016DE073
:1025C000CE010E94F023811109C00E94BA2381111B
:1025D00005C0CE010E94A82381E002C084E1E6CFBD
:1025E000DF91CF911F910F91FF90EF90089580910F
:1025F000B0028823A9F1409101015091020160913C
:1026000003017091040121EB32E080910307909166
:1026100004070E948B12811102C080E0089540914E
:10262000AC025091AD026091AE027091AF024115C3
:1026300051056105710591F021EB32E080910307AE
:10264000909104070E948B12882339F31092AC02F8
:102650001092AD021092AE021092AF021092B00230
:1026600081E008958F929F92AF92BF92EF92FF9276
:102670000F931F93CF934B015C01C42F80910101F5
:1026800090910201A0910301B09104018815990570
:10269000AA05BB0501F10E94F712811102C080E07A
:1026A00020C081EBE82E82E0F82E00E012E020E06E
:1026B00030E0B501A40180910307909104070E94C6
:1026C0006711882361F38092010190920201A09228
:1026D0000301B09204018091B002C82BC093B002F4
:1026E00081E0CF911F910F91FF90EF90BF90AF903D
:1026F0009F908F9008954F925F926F927F928F92EA
:102700009F92AF92BF92CF92DF92EF92FF920F9380
:102710001F93CF93DF93EC014230510561057105A2
:1027200010F480E078C089859A85AB85BC850196D8
:10273000A11DB11D84179507A607B70790F3CB8895
:10274000DC88ED88FE888F89803129F4BB27A72F8C
:10275000962F852F09C0DB01CA01E7E0B695A79542
:1027600097958795EA95D1F7480159012A013B01D0
:10277000C80ED91EEA1EFB1E809101019091020134
:10278000A0910301B0910401C816D906EA06FB0620
:1027900081F48F898031A9F4B301A20155276627FE
:1027A0007727440F551FFA01EF54FD4F9182808225
:1027B00019C040E0C701B6010E9432138111E9CF70
:1027C000B0CFB301A2014F77552766277727440F73
:1027D000551F440F551FFA01EF54FD4F808291821F
:1027E000A282B3828091B00281608093B0028A8914
:1027F000823080F08D819E81AF81B885C80ED91E50
:10280000EA1EFB1EC092AC02D092AD02E092AE0274
:10281000F092AF0281E0DF91CF911F910F91FF9075
:10282000EF90DF90CF90BF90AF909F908F907F9070
:102830006F905F904F9008958F929F92AF92BF924A
:10284000CF92DF92EF92FF920F931F93CF93DF937C
:10285000FC0181859285A385B4850196A11DB11DDA
:1028600084179507A607B70710F480E05BC083883C
:102870009488A588B6888789803129F4BB27A72F3B
:10288000962F852F09C0DB01CA01C7E0B695A79531
:1028900097958795CA95D1F7E9016A017B018F0168
:1028A000BC01CD01680D791D8A1D9B1D8090010121
:1028B00090900201A0900301B09004016815790581
:1028C0008A059B0591F4F80187898031A1F4DD2404
:1028D000EE24FF24C601880F991FFC01EF54FD4F21
:1028E00080819181A0E0B0E018C040E00E943213E6
:1028F0008111E9CFBACFE894C7F8DD24EE24FF2494
:10290000C601880F991F880F991FFC01EF54FD4FD6
:1029100080819181A281B381BF7088839983AA83CA
:10292000BB8381E0DF91CF911F910F91FF90EF90DA
:10293000DF90CF90BF90AF909F908F9008958F922F
:102940009F92AF92BF92CF92DF92EF92FF920F933E
:102950001F93CF93DF93EC018D81811102C080E042
:1029600078C00B891C892D893E8904171507260715
:102970003707A8F36A017B01823029F4CA86DB8617
:10298000EC86FD860DC0C114D104E104F10451F4BC
:102990001E821F82188619861A861B861C861D8633
:1029A00081E057C08A849B84AC84BD84EB8DFC8D10
:1029B000258530E0275F3F4FB501A4014150510903
:1029C00061097109022E04C0769567955795479560
:1029D0000A94D2F7D701C6010197A109B10904C031
:1029E000B695A795979587952A95D2F78417950759
:1029F000A607B70720F089288A288B2871F44F8909
:102A0000588D698D7A8D4E835F83688779874C01F5
:102A10005D018E010A5F1F4F16C0841B950BA60B2C
:102A2000B70BF5CF4E815F816885798598018B8DD5
:102A30009C8D0E941C1491E0891A9108A108B1088C
:102A4000882309F48CCF81149104A104B10451F7B7
:102A500095CFDF91CF911F910F91FF90EF90DF9075
:102A6000CF90BF90AF909F908F9008953F924F92DC
:102A70005F926F927F928F929F92AF92BF92CF920E
:102A8000DF92EF92FF920F931F93CF93DF93CDB717
:102A9000DEB72C970FB6F894DEBF0FBECDBF5C013A
:102AA000DC015B968D909C905C971696CD90DD90A6
:102AB000ED90FC901997C114D104E104F10439F0B0
:102AC000BFEFCB1ADB0AEB0AFB0A312C07C0F4017B
:102AD000C080D180E280F38033243394F401818577
:102AE0009285A385B4859C01AD012F5F3F4F4F4F69
:102AF0005F4F29873A874B875C87260137011D8204
:102B00001E821F821886F40181859285A385B48573
:102B10002D813E814F815885281739074A075B0769
:102B200008F063C089859A85AB85BC858C159D05A9
:102B3000AE05BF0550F482E0C82ED12CE12CF12C5B
:102B400092E0492E512C612C712C9E012F5F3F4F3A
:102B5000B701A601C4010E941C14882309F445C0D2
:102B600089819A81AB81BC81892B8A2B8B2B41F087
:102B7000260137019FEF491A590A690A790A05C0E7
:102B8000C414D504E604F70491F02D813E814F81F1
:102B900058852F5F3F4F4F4F5F4F2D833E834F83AD
:102BA00058873FEFC31AD30AE30AF30AACCF0FEFFB
:102BB0001FEF2FEF3FE0B301A201C4010E947B137E
:102BC000882399F0D50116964D915D916D917C9178
:102BD0001997411551056105710549F0930182016D
:102BE000C4010E947B13811102C080E02AC0D5017C
:102BF00016964D925D926D927C921997332051F00A
:102C0000D301C2010196A11DB11DF40180839183FE
:102C1000A283B383F5018789908DA18DB28D892B15
:102C20008A2B8B2B69F4D50157964D925D926D924C
:102C30007C925A9714968C911497806814968C9372
:102C400081E02C960FB6F894DEBF0FBECDBFDF91AA
:102C5000CF911F910F91FF90EF90DF90CF90BF9099
:102C6000AF909F908F907F906F905F904F903F902C
:102C700008952F923F924F925F926F927F928F9220
:102C80009F92AF92BF92CF92DF92EF92FF920F93FB
:102C90001F93CF93DF93EC016B014A018D8181116A
:102CA00003C08FEF9FEFD7C08C8180FFFACF4B8896
:102CB0005C886D887E884A855B856C857D85C401CE
:102CC000A0E0B0E093018201041B150B260B370B2B
:102CD000081719072A073B0718F44201841A950AB6
:102CE00054011E0126E0220E311CA114B10409F486
:102CF0007EC04A855B856C857D852A0181E05822EE
:102D0000ED818B8D9C8D8A019B01F9E0369527958D
:102D100017950795FA95D1F7E23061F4FC01828DA1
:102D2000938DA48DB58DBC01CD01600F711F821FE5
:102D3000931F3FC0FC0174807A94702241145104A7
:102D4000C9F4711017C0452B462B472B49F48F89C6
:102D5000988DA98DBA8D8E839F83A887B9870AC065
:102D60004E815F816885798591010E941C148823BA
:102D700009F497CFEB8DFC8D8E819F81A885B98555
:102D80000297A109B109058404C0880F991FAA1FE1
:102D9000BB1F0A94D2F74685578560897189840FD5
:102DA000951FA61FB71FBC01CD01670D711D811DA9
:102DB000911D20E032E02419350935012A153B0523
:102DC00008F439012C8126FD04C06114F2E07F066D
:102DD00081F40091010110910201209103013091D1
:102DE00004016017710782079307B1F402C0C401A0
:102DF00032C040E00E943213882309F452CFF2011E
:102E0000EF54FD4FD601CF01860D971D8E179F07FA
:102E100089F021912D93FACF760183019201AB01C4
:102E2000BC0180910307909104070E9467118823D9
:102E300009F437CFC60CD71C8A859B85AC85BD8528
:102E4000860D971DA11DB11D8A879B87AC87BD8705
:102E5000A618B7084ACFDF91CF911F910F91FF902D
:102E6000EF90DF90CF90BF90AF909F908F907F902A
:102E70006F905F904F903F902F900895CF93DF9386
:102E8000EC018D81882379F18C8187FF28C06E85C4
:102E90007F858889998941E00E943213882319F13E
:102EA000EA8980E2E89FF0011124EF54FD4F30974A
:102EB000D1F08D81823040F48B899C89AD89BE89A7
:102EC000848F958FA68FB78F8F89988DA98DBA8D96
:102ED000938F828FB58BA48B8C818F778C83DF91BE
:102EE000CF910C94F71280E0DF91CF910895CF93AA
:102EF000DF93EC010E943E17882311F01D8281E0D0
:102F0000DF91CF9108952F923F924F925F926F92EF
:102F10007F928F929F92AF92BF92CF92DF92EF9269
:102F2000FF920F931F93CF93DF9300D000D0CDB7C4
:102F3000DEB78C015B011A01DC0115968C911597A7
:102F40008130C9F414968C9181FF15C082FF1DC099
:102F5000F801438954896589768982859385A4859A
:102F6000B58584179507A607B70779F0C8010E94B1
:102F70009F1481110AC081E090E0D80113969C93C0
:102F80008E93129780E090E036C1610183C05B961A
:102F90008D919C915C97FC0174802FEF270D2A0185
:102FA0003B0139E076946794579447943A95D1F76A
:102FB000722E74207A01F1E0FF22772009F476C0A6
:102FC00080E092E08E199F0946018C159D0508F45A
:102FD0004C01D8015B962D913C915C9716968D9192
:102FE0009D910D90BC91A02D0297A109B109F90105
:102FF000058404C0880F991FAA1FBB1F0A94D2F72B
:103000004685578560897189840F951FA61FB71F54
:103010009C01AD01270D311D411D511D29013A01B2
:10302000811432E0930609F088C0809101019091EB
:103030000201A0910301B0910401481659066A06E5
:103040007B0659F48FEF9FEFDC0180930101909391
:103050000201A0930301B09304019501B301A20101
:1030600080910307909104070E948B12882309F432
:1030700082CF9EEFB91AC818D908F80182859385C6
:10308000A485B585880D991DA11DB11D82879387E3
:10309000A487B587D8011A964D915D916D917C9169
:1030A0001D97C114D10409F072CF87C0E114F10457
:1030B00009F086CF16964D915D916D917C9119978F
:1030C000411551056105710559F457968D919D91F2
:1030D0000D90BC91A02D0097A105B10541F521C02F
:1030E0009E012F5F3F4F0E941C14882309F44BCF91
:1030F00089819A81AB81BC81F801238D348DF901DE
:103100002789203129F048EF5FEF6FEF7FE004C09F
:1031100048EF5FEF60E070E084179507A607B707F8
:1031200030F0C8010E94361581114ACF24CFF80132
:1031300086839783A087B18743CFE114F10429F5F3
:10314000D8011A964D915D916D917C911D97539682
:103150008D919D910D90BC91A02D481759076A073C
:103160007B0798F00E94F712882309F404CF40925D
:10317000010150920201609203017092040180915A
:10318000B00281608093B00208C041E0C301B20187
:103190000E943213882309F4EECED501F701EF54D3
:1031A000FD4F9F01280D391D2E173F0719F08D91F6
:1031B0008193FACFA80CB91C5ECFF801838994895A
:1031C000A589B68984179507A607B70738F4438BF6
:1031D000548B658B768B848180688483F80184812D
:1031E00083FD02C0C10107C0C8010E943E178823A9
:1031F00009F4C1CEF7CF0F900F900F900F90DF9191
:10320000CF911F910F91FF90EF90DF90CF90BF90E3
:10321000AF909F908F907F906F905F904F903F9076
:103220002F900895CF93DF931F92CDB7DEB76983B8
:1032300041E050E0BE016F5F7F4F0E9483170F9007
:10324000DF91CF91089540E0682F89E995E00C94D3
:10325000930581E00E9423198BE39FE10197F1F729
:103260000895CF93DF93CDB7DEB728970FB6F894C4
:10327000DEBF0FBECDBF98E0EAE5F1E0DE011196BA
:1032800001900D929A95E1F79091AC05691710F0B5
:103290006FEF690FFE013196E60FF11DE60FF11D8C
:1032A0009081890F806828960FB6F894DEBF0FBE14
:1032B000CDBFDF91CF910C942319CF93DF93823050
:1032C00028F09091A80598609093A8058093AC058C
:1032D0001092AD058BE39DE00197F1F760E08091DE
:1032E0009D050E94D82060E080919F050E94D82013
:1032F00080919E058F3F19F060E00E94D820809158
:10330000A80584FD20C063E089E995E00E945C0582
:10331000CBE4D6E4CE010197F1F763E089E995E0CB
:103320000E945C052197F1F763E089E995E00E942E
:103330005C0583E592E00197F1F762E089E995E0A9
:103340000E945C0515C080620E9423198BE496E4FC
:103350000197F1F78091A80580620E94231983E507
:1033600092E00197F1F78091A80580620E942319ED
:103370008091A80580620E94231984E08093A905AA
:103380008CE00E9423190E94291982E08093AA05EB
:1033900086E0DF91CF910C9423190F931F93CF9365
:1033A000DF938B01877028E0829FC0011124806425
:1033B0000E942319E801085F1F4F699189E995E090
:1033C0000E94F205C017D107C1F7DF91CF911F917D
:1033D0000F910895CF92DF92EF92FF926B017C01E3
:1033E000E091C104F091C20482E08083C11481EEB7
:1033F000D806E104F104B1F060E079E08DE390E0FB
:10340000A70196010E94FC2DDA01C9010197A109CB
:10341000B109B695A795979587959C01211580E1EF
:103420003807B8F0E091C104F091C204108260E85E
:1034300074E88EE190E0A70196010E94FC2DDA016C
:10344000C9010197A109B109B695A79597958795E7
:103450009C01E091BD04F091BE043083E091BF0473
:10346000F091C00420831092C904E091C504F0914A
:10347000C60486E08083E091C304F091C404808197
:1034800080618083E091C304F091C40480818860EE
:103490008083E091C304F091C404808180688083BC
:1034A000E091C304F091C40480818F7D8083FF90FC
:1034B000EF90DF90CF900895CF93DF93EC01898D4B
:1034C0009A8D009741F00E947717898D9A8D0E94FE
:1034D000D62E1A8E198EDF91CF910895E091C705EF
:1034E000F091C805309759F08581823040F01682FE
:1034F0001782108611861286138614861586089503
:10350000EF92FF920F931F93CF93DF93EC017B0118
:103510008A011B821A8288EE93E0A0E0B0E08C83DF
:103520009D83AE83BF8388E691E0998388838DE194
:1035300090E00E943E2E9A8F898F009779F02DE1BE
:10354000F701DC0101900D922A95E1F74CE050E083
:10355000B801CE010C960E94932F188EDF91CF9167
:103560001F910F91FF90EF9008954F925F926F928D
:103570007F92AF92BF92CF92DF92EF92FF920F9322
:103580001F93CF93DF9300D000D0CDB7DEB78C016F
:1035900049835A836B837C835901C12CD12C7601DA
:1035A000412C82E0582E612C712C49815A816B810B
:1035B0007C819E012F5F3F4FC8010E941C1488230D
:1035C00051F1D301C201F801058404C0880F991F8D
:1035D000AA1FBB1F0A94D2F7C80ED91EEA1EFB1EF3
:1035E00049815A816B817C818789803129F088EFFC
:1035F0009FEFAFEFBFE004C088EF9FEFA0E0B0E027
:10360000481759076A077B0780F2F501C082D1820B
:10361000E282F38281E00F900F900F900F90DF9184
:10362000CF911F910F91FF90EF90DF90CF90BF90BF
:10363000AF907F906F905F904F900895CF93DF93FE
:10364000EC0180E2689FF0011124EF54FD4F6A8B7A
:103650008091010190910201A0910301B0910401B8
:103660008E879F87A88BB98B4489558960E070E06D
:10367000BA0155274427828D938DA0E0B0E0482BF6
:10368000592B6A2B7B2B4F8B588F698F7A8F8385B1
:10369000887151F4848D958DA68DB78D8B8B9C8B05
:1036A000AD8BBE8B81E00EC0803111F080E015C083
:1036B0009E012D5E3F4F8B8D9C8D0E94B51A8823F5
:1036C000A9F384E08D8381E08C831E821F8218869B
:1036D00019861A861B861C861D86DF91CF91089558
:1036E000AF92BF92CF92DF92EF92FF920F931F9310
:1036F000CF93DF93CDB7DEB72B970FB6F894DEBF2D
:103700000FBECDBF6C01FE013196CE010C967F013C
:1037100020E22193E817F907E1F7DA0120E037E02A
:103720009D91992331F19E3231F43A3009F4AAC0C7
:1037300028E03AE0F5CFEBEDF2E08491882321F028
:1037400031969813FACF9EC0321708F49BC08FEDC4
:10375000890F8E3508F096C081E0820FF701E20FE5
:10376000F11D2FE9290F2A3108F490529083282F58
:10377000D7CF8981803209F485C08B01FB01838D0D
:10378000948DF601948F838FFB0116821782108629
:1037900011861286138614861586B12CF80182854F
:1037A0009385A485B585438954896589768984176D
:1037B0009507A607B70708F065C025E0B695A79559
:1037C000979587952A95D1F7F82FFF70AF2EF801BE
:1037D0008581823008F456C0C8010E94A32497FD59
:1037E00051C0F80182859385A485B5854F96A11DAA
:1037F000B11D82879387A487B587F0E2AF9EB001A1
:1038000011246F547D4F61157105E1F1FB01808139
:103810008823F1F0853E99F14BE050E0C7010E940A
:10382000642F892B09F0BACF6A2DC6012B960FB6EB
:10383000F894DEBF0FBECDBFDF91CF911F910F91E6
:10384000FF90EF90DF90CF90BF90AF900C941E1B35
:10385000B11018C0F601A28A809101019091020175
:10386000A0910301B091040186879787A08BB18B4B
:10387000FB018081882331F0BB24B3948FCFB1103A
:10388000FBCFE8CF80E02B960FB6F894DEBF0FBEDB
:10389000CDBFDF91CF911F910F91FF90EF90DF90FF
:1038A000CF90BF90AF90089541E0682F89E995E0EF
:1038B0000E94930581E090E00895CF93DF93FB0190
:1038C00022813381DC0113963C932E93129744811D
:1038D00055816681778114964D935D936D937C93AA
:1038E0001797408551856285738518964D935D9332
:1038F0006D937C931B971C96EF012C969C01275E81
:103900003F4F49914D93A217B307D9F7218D328DBF
:10391000FC01328F218FDF91CF910895EF92FF92BA
:103920000F931F93CF93DF93CDB7DEB7C756D1095F
:103930000FB6F894DEBF0FBECDBF8C01E090C70577
:10394000F090C805F7018581823008F470C0828547
:103950009385A485B5858F719927AA27BB27892BC5
:103960008A2B8B2B09F063C040E250E0BE016F5FF1
:103970007F4FC7010E943916803209F058C08981F3
:10398000882309F454C0853E79F38E3269F38C851F
:1039900083FDEACF22961FAE1EAE22978EE991E0FC
:1039A0009FAF8EAF24961FAE2497FE01319680E024
:1039B00090E03EE22191203291F0983041F4ABE565
:1039C000B0E0AC0FBD1FA80FB11D3C938F5FABE5FE
:1039D000B0E0AC0FBD1FA80FB11D2C938F5F9F5F90
:1039E0009B3041F7EBE5F0E0EC0FFD1FE80FF11D18
:1039F00010826091C7057091C805AE01455A5F4FAE
:103A0000CE01CE960E94701B882389F0BE01625CB5
:103A10007F4FCE0181960E943F24AE01455A5F4FF1
:103A2000BE016F5D7F4FC8010E94801A03C0C801AC
:103A30000E949024C801C959DF4F0FB6F894DEBF29
:103A40000FBECDBFDF91CF911F910F91FF90EF90EF
:103A5000089508950E945F2F1F920F920FB60F9244
:103A600011242F933F938F939F93AF93BF93809194
:103A7000D5069091D606A091D706B091D806309180
:103A8000D40623E0230F2D3720F40196A11DB11D8C
:103A900005C026E8230F0296A11DB11D2093D40670
:103AA0008093D5069093D606A093D706B093D806F8
:103AB0008091D9069091DA06A091DB06B091DC06E0
:103AC0000196A11DB11D8093D9069093DA06A093AB
:103AD000DB06B093DC06BF91AF919F918F913F9130
:103AE0002F910F900FBE0F901F9018951F920F925D
:103AF0000FB60F9211242F933F934F935F936F93C1
:103B00007F938F939F93AF93BF93EF93FF93E09136
:103B10000701F09108010995FF91EF91BF91AF91D5
:103B20009F918F917F916F915F914F913F912F91D5
:103B30000F900FBE0F901F9018951F920F920FB607
:103B40000F9211242F933F934F935F936F937F9323
:103B50008F939F93AF93BF93EF93FF93E0910501F2
:103B6000F09106010995FF91EF91BF91AF919F915F
:103B70008F917F916F915F914F913F912F910F9016
:103B80000FBE0F901F9018951F920F920FB60F92B5
:103B900011242F933F934F935F936F937F938F9352
:103BA0009F93AF93BF93EF93FF938091FD06909106
:103BB000FE06A091FF06B0910007892B8A2B8B2B64
:103BC00059F19091FA06E091FB06F091FC06808194
:103BD000892780838091FD069091FE06A091FF06C3
:103BE000B0910007181619061A061B060CF03DC006
:103BF0008091FD069091FE06A091FF06B09100070E
:103C00000197A109B1098093FD069093FE06A09348
:103C1000FF06B093000729C080913A01E5E4F3E084
:103C2000E4919FEF90933A01E130B9F098F0E230DF
:103C3000C9F4909170009D7F9093700091E09093F3
:103C4000B0009091B100987F94609093B100109271
:103C5000B30008C010926E0005C090916F009D7F68
:103C600090936F0061E00E94D820FF91EF91BF9187
:103C7000AF919F918F917F916F915F914F913F9104
:103C80002F910F900FBE0F901F901895833081F0E9
:103C900028F4813099F08230A1F008958730A9F09E
:103CA0008830B9F08430D1F4809180008F7D03C0DA
:103CB000809180008F7780938000089584B58F77FE
:103CC00002C084B58F7D84BD08958091B0008F7748
:103CD00003C08091B0008F7D8093B00008953FB7FE
:103CE000F8948091D9069091DA06A091DB06B09104
:103CF000DC0626B5A89B05C02F3F19F00196A11D33
:103D0000B11D3FBFBA2FA92F982F8827820F911D71
:103D1000A11DB11DBC01CD0142E0660F771F881FB8
:103D2000991F4A95D1F70895CF93DF93FC01258120
:103D3000222311F080E049C0EC01809173058031AD
:103D4000C1F482E08583178A108E118E128E8091C5
:103D5000740590917505A0E0B0E025E0880F991FEB
:103D6000AA1FBB1F2A95D1F7838B948BA58BB68B8B
:103D700019C08032F9F683E0858340917605509131
:103D800077056091780570917905478B508F618F29
:103D9000728F9F012D5E3F4F8CE595E00E94B51A12
:103DA000882341F28CE595E09C8F8B8F81E08C839A
:103DB0001E821F82188619861A861B861C861D86FF
:103DC0001E861F86188A198A1A8ADF91CF91089554
:103DD000CF93DF93BC0181EB94E00E94FB11EC01D7
:103DE0006BE672E081EB94E00E94FB118C0F9D1F4B
:103DF000DF91CF9108958F929F92AF92BF92CF9211
:103E0000DF92EF92FF92CF93DF93C82F80E595E08A
:103E10009093040780930307CC2369F1C53010F019
:103E200080E00CC140E060E070E0CB010E94321302
:103E30008823B1F320E1C29FC00111248F559D4F0B
:103E4000FC01E254FE4F20812F7751F73C964081D0
:103E5000518162817381443651056105710500F31A
:103E60003497C080D180E280F380C114D104E10492
:103E7000F10421F4D5CFC12CD12C760140E0C7014B
:103E8000B6010E943213882359F28091BC029091AE
:103E9000BD028115924021F6A091C102AA2309F426
:103EA000BFCF6091BF027091C0026115710509F426
:103EB000B7CF2091BE02222309F4B2CFA0936E05A2
:103EC0002093600580E030E041E050E0C82FFA0127
:103ED000082E02C0EE0FFF1F0A94E2F72E173F07CD
:103EE00039F08F5FC83091F789E08093690598CFEA
:103EF000809369052091C7023091C80221153105D0
:103F000019F040E050E008C02091D5023091D6026F
:103F10004091D7025091D8022093610530936205F9
:103F2000409363055093640546015701860E971E22
:103F3000A11CB11C80926F0590927005A092710532
:103F4000B0927205E091C202F091C302F093750540
:103F5000E0937405B0E00E94242E860E971EA81EE2
:103F6000B91E8092760590927705A0927805B0925E
:103F7000790585E0EE0FFF1F8A95E1F7E150FE4FCE
:103F8000EF2FFF27E6958E0E9F1EA11CB11C80927D
:103F90006A0590926B05A0926C05B0926D05209118
:103FA000C4023091C5022115310521F0A90160E05C
:103FB00070E008C04091D1025091D2026091D302CA
:103FC0007091D402D701C60188199909AA09BB09C1
:103FD000840F951FA61FB71F04C0B695A795979588
:103FE0008795CA95D2F78093650590936605A0934F
:103FF0006705B0936805853F2FE09207A105B105DD
:1040000010F48CE018C0853F9F4FA105B10510F456
:1040100080E111C08091DD029091DE02A091DF026B
:10402000B091E0028093760590937705A093780590
:10403000B093790580E28093730581E0DF91CF91A1
:10404000FF90EF90DF90CF90BF90AF909F908F90B8
:104050000895BF92CF92DF92EF92FF920F931F933A
:10406000CF93DF93C82F7B01B42ED0910207CD2EC2
:10407000D12C60910107082F10E0C601860F911D19
:104080008017910731F480E00E9431198EE30E947D
:10409000541CCD1788F10C191D090230110564F567
:1040A000CD1BDC2F6C2F81E00E943119CEE0F7018F
:1040B0006491662351F041E089E995E00E949305FF
:1040C000C150FFEFEF1AFF0AF2CFCC2329F080E2B4
:1040D0000E94541CC150F9CF6D2F8FE00E943119FE
:1040E0008B2DDF91CF911F910F91FF90EF90DF907B
:1040F000CF90BF900C94541CDF91CF911F910F91E2
:10410000FF90EF90DF90CF90BF90089528E0E2E31A
:10411000F1E0A2EFB6E001900D922A95E1F728E0D8
:10412000EAE2F1E0AAEEB6E001900D922A95E1F7FD
:1041300028E0E2E2F1E0A2EEB6E001900D922A95CD
:10414000E1F76093DE067093DF068093E0069093BC
:10415000E1060E9429198091DD060C946606CF9332
:10416000DF93282F30E0F901E150FD4F8491F901F0
:10417000ED5EFC4FD491F901EF5CFC4FC491CC2370
:1041800091F081110E94461EEC2FF0E0EE0FFF1F10
:10419000EB50FD4FA591B491EC91ED2381E090E0BF
:1041A00021F480E002C080E090E0DF91CF9108959B
:1041B0001F93CF93DF93282F30E0F901E150FD4F9B
:1041C0008491F901ED5EFC4FD491F901EF5CFC4F55
:1041D000C491CC23C1F0162F81110E94461EEC2FF2
:1041E000F0E0EE0FFF1FE95DFC4FA591B4919FB782
:1041F000F894111104C08C91D095D82302C0EC9191
:10420000DE2BDC939FBFDF91CF911F910895CF9359
:10421000DF9390E0FC01ED5EFC4F2491FC01EF5C2C
:10422000FC4F8491882361F190E0880F991FFC0175
:10423000E551FD4FC591D491FC01E95DFC4FA5917D
:10424000B491611109C09FB7F894888120958223A9
:104250008883EC912E230BC0623061F49FB7F894F1
:104260008881322F309583238883EC912E2B2C93D9
:104270009FBF06C08FB7F894E8812E2B28838FBF8D
:10428000DF91CF910895CF9380913A01803121F051
:104290008F3F09F0DBC004C0E5E4F3E0C49175C0D2
:1042A00080E180933A01E5E4F3E0E491EF3F09F423
:1042B000CDC0E13009F446C048F1E23009F064C0F5
:1042C0001092B0001092B1008091B0008260809393
:1042D000B0008091B10081608093B100E1E4F3E02F
:1042E000E491F0E0EE0FFF1FE95DFC4F85919491A2
:1042F0009093FC068093FB06E3E2F3E0E491E09305
:10430000FA0661E080E10E94072162C014BC15BC7E
:1043100084B5826084BD85B5816085BDE1E4F3E04C
:10432000E491F0E0EE0FFF1FE95DFC4F8591949161
:10433000E3E2F3E0E491E093060761E080E10E94AC
:1043400007212EC010928000109281008091810080
:1043500088608093810080918100816080938100DA
:10436000E1E4F3E0E491F0E0EE0FFF1FE95DFC4FC4
:1043700085919491E3E2F3E0E491E093050761E035
:1043800080E10E9407212EC0CE2FC7FD5FC061E0F3
:1043900080E10E940721CC2319F0C23009F518C032
:1043A00085B5887F826085BD87EC87BD84EF91E00D
:1043B000A0E0B0E080930B0790930C07A0930D074B
:1043C000B0930E0780916E00826080936E003EC0B5
:1043D0008091B100887F82608093B10087EC23C018
:1043E000C130F1F480918100887F816080938100E9
:1043F0008FE396E0909389008093880084EF91E0AA
:10440000A0E0B0E08093070790930807A093090706
:10441000B0930A0780916F00826080936F0016C08E
:10442000C230A1F48FE38093B30084EF91E0A0E069
:10443000B0E08093FD069093FE06A093FF06B09334
:10444000000780917000826080937000CF91089582
:104450008F929F92AF92BF92CF92DF92EF92FF9294
:104460006B017C010E946F1E4B015C01C114D104E1
:10447000E104F104F1F00E946F1EDC01CB01881908
:104480009909AA09BB09883E9340A105B10570F3BB
:1044900021E0C21AD108E108F10888EE880E83E015
:1044A000981EA11CB11CC114D104E104F10419F738
:1044B000DDCFFF90EF90DF90CF90BF90AF909F90B7
:1044C0008F9008952FB7F8946091D5067091D60615
:1044D0008091D7069091D8062FBF08952F923F92D2
:1044E0004F925F926F927F928F929F92AF92BF9204
:1044F000CF92DF92EF92FF920F931F93CF93DF93B0
:10450000CDB7DEB7C656D1090FB6F894DEBF0FBEE1
:10451000CDBF4C016B0119A218A28EE991E09F8FCB
:104520008E8F1BA21C821B829A8389831E825E014E
:104530008EE1A80EB11CC5010E94941E76018E0169
:104540000F5F1F4F250118016FE270E0C7010E9445
:10455000812F009709F441C0F70120812F3221F407
:10456000FFEFEF1AFF0AF0CF8E198D3008F08CE0C4
:10457000682E712CA301B701CE01885A9F4F0E946B
:10458000932FE8E5F0E0EC0FFD1FE60DF71D10821C
:10459000C8010E947717F8018581882351F01EAE6B
:1045A0001DAE8EE991E09CAF8BAF21961FAE219797
:1045B00020C0AE01485A5F4FB201C8010E94701B73
:1045C000882369F3E60CF71CC2010E947717942D2B
:1045D000852D2801092F182FB7CFC7018C199D09E8
:1045E000A7969FAF8EAFA797B201CE01CB960E9440
:1045F0003F24A796EEADFFADA797CE0EDF1EF601C6
:104600008081811109C0BE01655C7F4FC1010E949C
:104610003F2447EF51E022C019A218A28EE991E091
:104620009F8F8E8F1BA221968FAD2197811104C081
:10463000C4010E94902416C0A601BE01655C7F4F94
:10464000C5010E94701B882399F3CE01CB960E946E
:104650007717B501C1010E943F24A601B101C40131
:104660000E94801AC401CA59DF4F0FB6F894DEBF0A
:104670000FBECDBFDF91CF911F910F91FF90EF90B3
:10468000DF90CF90BF90AF909F908F907F906F9072
:104690005F904F903F902F900895DC015996ED91D7
:1046A000FC915A973097B9F083899489A589B68986
:1046B0004285538564857585841B950BA60BB70BC6
:1046C000811520E89207A105B10538F08FEF9FE72B
:1046D000A0E0B0E0089580E090E00895CF93DF93EC
:1046E0001F92CDB7DEB76983DC01ED91FC910280AA
:1046F000F381E02D41E050E0BE016F5F7F4F0995EF
:104700000F90DF91CF910895FC01818D928D0097DC
:1047100011F00C943E170895CF93DF93EC01898D2F
:104720009A8D009739F481E090E09B838A8380E042
:1047300090E00BC0FC01138212820E948317E98D66
:10474000FA8D22813381232B71F7DF91CF91089568
:1047500061E0FC0184810E94D82080910F078111C3
:1047600010920F0708958EBD00000DB407FEFDCF17
:104770008EB508958FEF0C94B323CF93DF93EC01A4
:104780008E81882389F08F8198859C012F5F3F4F10
:1047900038872F838230924018F40E94BA23F3CFD7
:1047A000CE010E94A8231E82DF91CF9108958CBD77
:1047B0009DBD0895CF93DF93EC0180910F07811188
:1047C00009C081E080930F0780914E0590914F05BD
:1047D0000E94D72360E08C81DF91CF910C94D82088
:1047E0008F929F92AF92BF92FF920F931F93CF939E
:1047F000DF93EC01F62E49015A010E94BD23CE0140
:104800000E94DA236CE271E0CE010E9470128F2DBB
:1048100080640E94B32308E110E0D501C401002E9A
:1048200004C0B695A795979587950A94D2F70E94EC
:10483000B32308501109083F8FEF180771F7FF20C5
:1048400029F088E0F81204C087E803C085E901C0B8
:104850008FEF0E94B32310E00E94BA238A8787FF5C
:1048600004C01F3F11F01F5FF7CFDF91CF911F9161
:104870000F91FF90BF90AF909F908F900895FC0193
:10488000DB0112968D919C911397938382838EE91D
:1048900091E09183808314968C911497848315966C
:1048A0008C911597858316964D915D916D917C91B4
:1048B000199746835783608771871A964D915D914A
:1048C0006D917C911D9742875387648775871E96EB
:1048D0004D915D916D917C91519746875787608B83
:1048E000718B52968C915297828B53964D915D911C
:1048F0006D917C915697438B548B658B768B579635
:104900004D915D916D917C915A97478B508F618F3E
:10491000728F5B968D919C915C97948F838F089595
:10492000FC011382128288EE93E0A0E0B0E0848361
:104930009583A683B78388E691E091838083128E66
:10494000118E14860895CF93DF931F92CDB7DEB7F3
:1049500041E050E0BE016F5F7F4F0E943916019722
:1049600019F4898190E002C08FEF9FEF0F90DF91E3
:10497000CF910895FC01818D928D009711F00C94D8
:10498000A3248FEF9FEF08950F931F93CF93DF938F
:10499000FC01818D928D0097B9F0EF010E94A32454
:1049A0008C010F3F8FEF180791F0898D9A8DFC01D4
:1049B00042855385648575854150510961097109A6
:1049C0000E949F14C80105C080E090E002C08FEFF4
:1049D0009FEFDF91CF911F910F9108951092B40432
:1049E0001092B30488EE93E0A0E0B0E08093B504A9
:1049F0009093B604A093B704B093B8048CE891E008
:104A00009093B2048093B10485EC90E09093BE043F
:104A10008093BD0484EC90E09093C0048093BF0425
:104A200080EC90E09093C2048093C10481EC90E00C
:104A30009093C4048093C30482EC90E09093C604E6
:104A40008093C50486EC90E09093C8048093C704DB
:104A50001092CA041092CB041092CC041092CD0490
:104A600080E580934E0510924F05109255051092E7
:104A700056051092590510925B0582E090E0A0E087
:104A8000B0E080935C0590935D05A0935E05B093C4
:104A90005F051092730510927D0510927C058EE9DA
:104AA00091E090937B0580937A0510927F05109298
:104AB0009C0510929B058AEA91E090939A05809359
:104AC000990589E080939D058FEF80939E0588E08E
:104AD00080939F0587E08093A00586E08093A105E1
:104AE00085E08093A20584E08093A3051092A4053D
:104AF0001092A5051092A6051092A70561E089E025
:104B00000E94072180919E058F3F19F061E00E946D
:104B1000072161E080919F050E9407211092A8055E
:104B200081E00E945D198EEA95E00E94902489EC54
:104B300095E00C949024CF93DF93CDB7DEB7A09788
:104B40000FB6F894DEBF0FBECDBF789484B58260F7
:104B500084BD84B5816084BD85B5826085BD85B521
:104B6000816085BD80916E00816080936E0010929F
:104B7000810080918100826080938100809181001A
:104B800081608093810080918000816080938000AB
:104B90008091B10084608093B1008091B000816009
:104BA0008093B00080917A00846080937A00809135
:104BB0007A00826080937A0080917A00816080938D
:104BC0007A0080917A00806880937A001092C10008
:104BD00060E072EC81E090E00E94EA1980E090E0F1
:104BE0000E94422C8E3FD1F481E090E00E94422C42
:104BF00090E0A0E0B0E08093ED059093EE05A093E7
:104C0000EF05B093F00583E090E00E94422C809382
:104C1000E50584E090E00E94422C28C06EEF80E021
:104C200090E00E94750364E081E090E00E947503CB
:104C300061E082E090E00E94750360E083E090E034
:104C40000E94750361E084E090E00E94750384E0B7
:104C500090E0A0E0B0E08093ED059093EE05A09386
:104C6000EF05B093F0051092E50581E08093E4052F
:104C70008091ED059091EE05A091EF05B091F005C2
:104C800082309105A105B105E1F06CF40097A10512
:104C9000B10591F00197A105B105C1F460E07BE495
:104CA00080E090E017C00397A105B10579F460E0BA
:104CB00071EE80E090E00EC060E875E280E090E088
:104CC00009C060E076E980E090E004C060E072EC4A
:104CD00081E090E00E94EA1960E082E00E940721F2
:104CE00060E083E00E94072161E082E00E94D8201A
:104CF00061E083E00E94D82022ED31E0309306018C
:104D000020930501809169008C7F81608093690008
:104D1000E89A309308012093070180916900837F0E
:104D2000846080936900E99A80916C00836080932D
:104D30006C00D99A809168008260809368000E941C
:104D4000A6038093210169E171E081E00E94CD1901
:104D500061E171E082E00E94CD1969E071E083E0D9
:104D60000E94CD1982E00E945D1966E472E089E933
:104D700095E00E94101261E080E00E94311964E524
:104D800072E089E995E00E94101200E18CE10E9436
:104D900023190150D9F700E188E10E94231962E349
:104DA00070E080E090E00E9428220150A9F760E2C4
:104DB00073E080E090E00E9428220E9429190E945E
:104DC0006F021092E8051092E7051092EA05109222
:104DD000E9051092EC051092EB050E947703809391
:104DE000E60542E2A42E41E0B42E5AE2852E51E0BF
:104DF000952E8091070681112FC080910606882389
:104E000029F0109206060E94000A7DC20E946222CA
:104E1000C0900206D0900306E0900406F0900506CC
:104E2000DC01CB018C199D09AE09BF098131974284
:104E3000A105B10508F467C28091DD06882309F455
:104E400062C21092DD061092F1050E94291980912C
:104E5000DD060E94660657C2813009F054C262EF37
:104E600075E0CE0101960E946E22BE016F5F7F4FFA
:104E700089EC95E00E945D1C1092CE061092CD0642
:104E800066246394712C32E3C32E31E0D32E8091DB
:104E90000706823069F480910606882321F010927B
:104EA00006060E94000A809107068130A1F715C00E
:104EB000811113C064E672E081EB94E00E9410124D
:104EC0001092DD061092DE061092DF061092E006C8
:104ED0001092E1060E94000A10C280910606882303
:104EE00021F0109206060E94000A8091DD068111D1
:104EF00049C00E9462222091D0063091D106409193
:104F0000D2065091D306DC01CB01821B930BA40B7C
:104F1000B50B893E9340A105B105A0F1E090E205F3
:104F2000F090E305E114F10409F4F0C1F7016285A2
:104F30007385848595850E94012D1B012C01E11448
:104F4000F10409F4E7C1F7016389748985899689B9
:104F50000E94012D9B01AC01C201B1010E948F2C66
:104F600020E030E048EC52E40E948F2D0E94862021
:104F70000E9462226093D0067093D1068093D2067D
:104F80009093D306E091E205F091E305309771F03C
:104F9000438954896589768982859385A485B585F9
:104FA000481759076A077B0709F489C02090CE0685
:104FB00044244394420CF5E04F1611F0842D01C0B7
:104FC00080E09091CD069813A9C179C089EC95E055
:104FD0000E94C4248832D9F4E091E205F091E305FF
:104FE000309709F4A2C1428553856485758583890C
:104FF0009489A589B689481759076A077B0709F07C
:1050000094C189EC95E00E944D23892BF9F6E0913B
:10501000E205F091E305309709F48FC1828593850D
:10502000A485B5858096A11DB11D309709F489C16D
:105030004389548965897689481759076A077B0728
:1050400008F485C120E2522E9DEAE92E96E0F92E61
:10505000312C89EC95E00E944D2301E0030D892B52
:1050600009F480C189EC95E00E94BA24F70180839D
:105070008A3009F077C125E0421201C0412C8091AD
:10508000CD068415E1F031E2239EC0011124FC011C
:10509000E85FF94F0083FC01E75FF94F7F0140E2D1
:1050A00050E06FEF70E0CF010E947A2F402F50E068
:1050B0006DEA76E0C7010E94712F4092CE06F1E0C2
:1050C0006F12DBC00091CD068091CE06081709F45F
:1050D000A2C021E2029FB0011124FB01E85FF94F59
:1050E0007080E72CF12C675F794FA701CE01019604
:1050F0000E94712F0F5F053009F400E00093CD0688
:105100003EEF731609F487C0A701BE016F5F7F4FA2
:1051100081EB94E00E945B105EEF570D90E080E021
:1051200048E0851708F0A9C0282F30E0823050F001
:10513000EFEFFFEFEC0FFD1FE20FF31F60816E3208
:1051400009F490E0E1E0F0E0EC0FFD1FE20FF31F47
:105150002081322F3F7D383541F4F601242F119202
:105160002A95E9F78F5F10E026C0393541F4F40144
:10517000242F11922A95E9F78F5F10E02CC03A3561
:1051800041F4F501242F11922A95E9F78F5F10E081
:1051900032C0203269F0233559F0263449F091307D
:1051A00051F030F09230B9F0933009F0BACF23C00B
:1051B0008F5F90E0B6CFE12FF0E0EE5CFE4FA1E014
:1051C000B0E0AC0FBD1FA80FB11D9C9190838F5F05
:1051D0001F5F91E0A6CFE12FF0E0E65DFE4FA1E07A
:1051E000B0E0AC0FBD1FA80FB11D9C9190838F5FE5
:1051F0001F5F92E096CFE12FF0E0EE5DFE4FA1E061
:10520000B0E0AC0FBD1FA80FB11D9C9190838F5FC4
:105210001F5F93E086CFE090E205F090E305E11494
:10522000F10431F0F701628573858485958503C0AB
:105230006FEF7FEFCB010E94012D2B013C01E114A8
:10524000F10431F0F701638974898589968903C077
:1052500060E070E0CB010E94012D9B01AC01C30115
:10526000B2010E948F2C20E030E048EC52E40E9412
:105270008F2D0E9486208EEF782E0E9462221B01C5
:105280002C0181EB94E00E9494108B3631F48091D4
:10529000CF068F5F8093CF0602C08A33C1F380911F
:1052A000CF06823029F41092CF06662463940DC095
:1052B0000E946222DC01CB0182199309A409B5097D
:1052C0004597A105B105E8F2612CE091E205F09166
:1052D000E305309709F4DBCD4389548965897689E4
:1052E00082859385A485B585481759076A077B078A
:1052F00009F0CDCDFEEF7F12CACD1092070689ECE2
:1053000095E00E945C1A0E945D1173CD6FEF7FEFF4
:10531000CB0111CE60E070E0CB011ACE80E2EDEA65
:10532000F6E011928A95E9F76CCE89EC95E00E943F
:10533000BA240A9709F050CE64CE8FEF9FEFDC01BC
:1053400071CE892B8A2B8B2B09F47CCE02C053881B
:1053500001C0512C309711F0828501C08FEF581A8F
:1053600041F072CE302EFFEFEF1AFF0A051171CE19
:1053700082CE00E080CEEF920F931F93CF93DF9306
:10538000E80147FD02C034E001C034E1042E000C06
:10539000550B57FF03C0519541955109E32E022F3C
:1053A000242FAE010E94002ACE01DF91CF911F91E0
:1053B0000F91EF900895BB274A3031F4992322F4DE
:1053C000BDE2909581959F4F0C94E729BB27FB0187
:1053D0005527AA27880F991FAA1FA41710F0A41BEE
:1053E00083955051B9F7A05DAA3308F0A95DA19348
:1053F000009779F7B111B1931192CB010C94322C33
:10540000A9E0B0E0E6E0FAE20C945E2C6A01122F0B
:10541000B02E2BE3201720F0FF24F394F00E02C0EF
:105420002CE3F22E0F2D27E0AE014F5F5F4F0E945D
:105430005A2BBC014981842F8970813031F0E1FC05
:1054400006C0E0FE06C090E205C09DE203C09BE2FC
:1054500001C090E05E2D507143FF3CC0911102C02D
:1054600083E001C084E0811718F4212F281B01C0BC
:1054700020E051110BC0F601822F30E2882319F091
:1054800031938150FBCFC20ED11C20E0992329F02B
:10549000D6019C93F60131966F01C6010396E2FE98
:1054A0000AC03EE4D6013C9341E411964C93119717
:1054B00012963C9306C03EE6F601308341E64183F6
:1054C0003283FC01322F40E2332309F442C041937E
:1054D0003150FACF42FF44C0911102C083E001C0B5
:1054E00084E0811718F4212F281B01C020E05111FE
:1054F0000BC0F601822F30E2882319F031938150DE
:10550000FBCFC20ED11C20E0992329F0D6019C9339
:10551000F60131966F01C6010396E2FE0BC039E435
:10552000D6013C933EE411963C93119736E41296D3
:105530003C9307C039E6F60130833EE6318336E618
:105540003283FC01322F40E2332319F04193315072
:10555000FBCFFC01E20FF11D10828EEF9FEFA6C082
:1055600021E030E0911102C020E030E0161617066D
:105570001CF4FB01319602C0E1E0F0E02E0F3F1F6A
:10558000BB2021F0EB2DF0E0319602C0E0E0F0E02E
:105590002E0F3F1FE12FF0E02E173F071CF4121BC8
:1055A000212F01C020E08E2D887159F4F601822F41
:1055B00030E2882319F031938150FBCFC20ED11C09
:1055C00020E0992329F0D6019C93F60131966F01D2
:1055D00051110BC0F601822F90E3882319F09193AB
:1055E0008150FBCFC20ED11C20E00F2D060F9A81F7
:1055F000342F307144FF03C0913309F40150101669
:1056000024F4093018F008E001C001E0AB0177FF95
:1056100002C040E050E0FB01E41BF50BA1E0B0E06C
:10562000AC0FBD1FEA0FFB1F8EE2A82E4B01801AA4
:1056300091080B2D10E01195019511094F3FBFEF17
:105640005B0721F4D601AC9211966D0164177507C2
:105650002CF08416950614F4818101C080E341503A
:1056600051093196D60111967D014017510724F05A
:10567000D6018C936701E2CF6417750739F496332E
:1056800020F4953319F4311101C081E3F6018083D0
:10569000F701822F90E2882319F091938150FBCF7C
:1056A000F701E20FF11D108280E090E02996ECE016
:1056B0000C947A2C283008F027E03327DA01990F70
:1056C000311D87FD916000966105710539F43260E6
:1056D0002E5F3D9330E32A95E1F708959F3F30F028
:1056E00080387105610509F03C5F3C5F3D93913066
:1056F00008F08068911DDF93CF931F930F93FF9263
:10570000EF92192F987F9695E92F96959695E90F28
:10571000FF27EC52FF4F99273327EE24FF24A701E0
:10572000E70105900894079428F4360FE71EF81E49
:10573000491F511D660F771F881F991F0694A1F7F7
:105740000590079428F4E70EF81E491F561FC11D47
:10575000770F881F991F661F0694A1F7059007947D
:1057600028F4F80E491F561FC71FD11D880F991F17
:10577000661F771F0694A1F70590079420F4490F40
:10578000561FC71FD81F990F661F771F881F0694C3
:10579000A9F784911095177041F0D695C795579544
:1057A0004795F794E7941A95C1F7EAE7F0E0689413
:1057B0001590159135916591959105907FE27395BE
:1057C000E118F10A430B560BC90BD009C0F7E10CE5
:1057D000F11E431F561FC91FD01D7EF4703311F4F4
:1057E0008A95E6CFE894015030F0080F0AF40027BC
:1057F000021708F4202F2395022F7A3328F079E33B
:105800007D932A95E9F710C07D932A9589F6069431
:1058100097956795379517951794E118F10A430BFB
:10582000560BC90BD00998F023957E9173957A3366
:1058300008F070E37C932013B8F77E9170617D933C
:1058400030F0839571E37D9370E32A95E1F711249D
:10585000EF90FF900F911F91CF91DF91992787FDD6
:1058600090950895DC01FC01672F71917723E1F792
:10587000329704C07C916D9370836291AE17BF071D
:10588000C8F30895F999FECF92BD81BDF89A992782
:1058900080B50895262FF999FECF1FBA92BD81BD1C
:1058A00020BD0FB6F894FA9AF99A0FBE01960895A2
:1058B0002F923F924F925F926F927F928F929F9220
:1058C000AF92BF92CF92DF92EF92FF920F931F930E
:1058D000CF93DF93CDB7DEB7CA1BDB0B0FB6F894BF
:1058E000DEBF0FBECDBF09942A88398848885F84FF
:1058F0006E847D848C849B84AA84B984C884DF8070
:10590000EE80FD800C811B81AA81B981CE0FD11D53
:105910000FB6F894DEBF0FBECDBFED0108950E9413
:10592000A32C0C94552D0E944E2D58F00E94472D0B
:1059300040F029F45F3F29F00C943E2D51110C9456
:10594000892D0C94442D0E94662D68F39923B1F3A0
:10595000552391F3951B550BBB27AA276217730795
:10596000840738F09F5F5F4F220F331F441FAA1F29
:10597000A9F335D00E2E3AF0E0E832D091505040E5
:10598000E695001CCAF72BD0FE2F29D0660F771F93
:10599000881FBB1F261737074807AB07B0E809F079
:1059A000BB0B802DBF01FF2793585F4F3AF09E3FFE
:1059B000510578F00C943E2D0C94892D5F3FE4F353
:1059C000983ED4F3869577956795B795F7959F5F41
:1059D000C9F7880F911D9695879597F90895E1E08D
:1059E000660F771F881FBB1F621773078407BA07EC
:1059F00020F0621B730B840BBA0BEE1F88F7E09547
:105A00000895E89409C097FB3EF4909580957095B1
:105A100061957F4F8F4F9F4F9923A9F0F92F96E9FA
:105A2000BB279395F695879577956795B795F1116F
:105A3000F8CFFAF4BB0F11F460FF1BC06F5F7F4F0C
:105A40008F4F9F4F16C0882311F096E911C077231E
:105A500021F09EE8872F762F05C0662371F096E827
:105A6000862F70E060E02AF09A95660F771F881FF6
:105A7000DAF7880F9695879597F9089597F99F67B4
:105A800080E870E060E008959FEF80EC08950024C6
:105A90000A941616170618060906089500240A9493
:105AA00012161306140605060895092E0394000C19
:105AB00011F4882352F0BB0F40F4BF2B11F460FFA8
:105AC00004C06F5F7F4F8F4F9F4F089557FD9058D1
:105AD000440F551F59F05F3F71F04795880F97FBB2
