:100000000C9496010C94170C0C94F00B0C94BF05F7
:100010000C9469050C945F050C94BE010C94801C33
:100020000C94BE010C94BE010C94BE010C94BE0154
:100030000C94BE010C94BE010C94BE010C94BE0144
:100040000C94A60B0C94BE010C943F1D0C94191D2E
:100050000C94BE010C94BE010C94BE010C94BE0124
:100060000C94BE010C94BE011B16A415AE15CB1545
:10007000C915E415A71500407A10F35A00A0724E76
:1000800018090010A5D4E80000E87648170000E43D
:100090000B54020000CA9A3B000000E1F505000085
:1000A00080969800000040420F000000A0860100EA
:1000B0000000102700000000E803000000006400BA
:1000C000000000000A000000000001000000000025
:1000D0002C76D888DC674F0823DFC1DFAE59E1B149
:1000E000B796E5E3E453C63AE651997696E8E6C258
:1000F0008426EB898C9B62ED407C6FFCEFBC9C9F5F
:1001000040F2BAA56FA5F490055A2AF75C936B6C80
:10011000F9676DC11BFCE0E40D47FEF520E6B50074
:10012000D0ED902E0300943577050080841E0800E2
:1001300000204E0A000000C80C333333330F986E92
:1001400012831141EF8D2114893BE65516CFFEE64F
:10015000DB18D1844B381BF77C1D901DA4BBE42415
:10016000203284725E228100C9F124ECA1E53D2792
:100170004D6F7665205A004D6F76652059004D6FA2
:1001800076652058004261636B004E6F2053442017
:100190004361726400434E432046726F6D205344A6
:1001A0000053657474696E6700436F6E74726F6C90
:1001B000004D61696E0053746F7020434E430052CE
:1001C0006573756D6520434E4300506175736520FE
:1001D000434E4300436F6E74726F6C004D61696EE5
:1001E00000556E6C6F636B204772626C00477262E1
:1001F0006C204D6F6465005A6F726520506F7300FC
:100200004D6F76652041786973005370696E646C38
:1002100065205370656564004175746F20486F6D8B
:1002200065004261636B0042757A7A6572004D65C4
:100230006E75204D656D6F72790042617564205254
:10024000617465004261636B004261636B004E6FD5
:1002500000596573004261636B004E6F005965730E
:10026000004261636B003131353230300035373652
:1002700030300033383430300031393230300039EA
:10028000363030004261636B004C6173657200531D
:1002900070696E646C65004261636B004D6F7665DA
:1002A00020302E316D6D004D6F766520316D6D0003
:1002B0004D6F76652031306D6D004261636B0000DB
:1002C000000000240027002A000000000023002670
:1002D00000290000000008000201000003040700DC
:1002E000000000000000000102040810204080010E
:1002F000020408102001020408102000000000255C
:100300000028002B00040404040404040402020274
:10031000020202030303030303027C3C3E5E2B3D07
:100320003F2F5B5D3B2C2A225C005D2911241FBE00
:10033000CFEFD8E0DEBFCDBF12E0A0E0B1E0ECEF40
:10034000FFE502C005900D92A233B107D9F726E070
:10035000A2E3B2E001C01D92A03EB207E1F711E0B6
:10036000C6E9D1E004C02197FE010E946C2EC53978
:10037000D107C9F70E944B250C94FC2F0C94000068
:10038000089580E090E00895CF93DF9382E00E948B
:10039000711DEC0183E00E94711DCC0FDD1F8C2BC1
:1003A0009D2B2091360230913702220F331F220FEE
:1003B000331F282B392B2D30310549F024303105DE
:1003C00031F02230310519F02B30310529F44091FC
:1003D00054024F5F409354022E30310549F0A90179
:1003E000475051094230510518F02130310529F4A8
:1003F000209154022150209354029093370280930D
:10040000360281E08093A302DF91CF910895CF93CC
:10041000DF93EC0160E08E810E94F40A61E08E813E
:100420000E94F40A60E08E810E94F40A8BE891E059
:100430000197F1F7DF91CF9108950F931F93CF9319
:10044000DF938C01EB014AE00E942C2AFE0101900F
:100450000020E9F73197AF014C1B5D0B9A01332760
:10046000DE01A20FB31F17FD0AC04130D1F412966E
:100470001C921297F9013197EC0FFD1F0AC0423010
:1004800081F412961C921297C9010197FE01E80FA0
:10049000F91F808111968C9311978EE28C9380E3E3
:1004A0000BC011961C921197C9010197FE01E80F2C
:1004B000F91F80818C938EE28083DF91CF911F9111
:1004C0000F910895EF92FF920F931F93CF93DF93B5
:1004D000CDB7DEB728970FB6F894DEBF0FBECDBFFD
:1004E0008091A4029E012F5F3F4F790160E081114E
:1004F00066C00E947A2288E50E94211F18E0F70159
:10050000212F11922A95E9F7B701809184029091E9
:1005100085020E941D02F70101900020E9F7319742
:10052000EE19FF0907E060E0802F8E1B0E947A22FF
:10053000B70181E996E00E94171D60E088E00E9403
:100540007A2289E50E94211FF701212F11922A9515
:10055000E9F7B70180918602909187020E941D02FF
:10056000F70101900020E9F78E2D8E1B60E0805F7F
:100570000E947A22B70181E996E00E94171D61E08E
:1005800080E00E947A228AE50E94211FF7011192E1
:100590001A95E9F7B70180918802909189020E942B
:1005A0001D02F70101900020E9F73197EE19FF09CC
:1005B00061E0802F8E1B0E947A22B7014AC080E042
:1005C0000E947A2288E50E94211FEAEBF2E0019066
:1005D0000020E9F73197EA5BF24017E060E0812FF5
:1005E0008E1B0E947A226AEB72E081E996E00E94FB
:1005F000171D60E088E00E947A2289E50E94211F91
:10060000E2EBF2E001900020E9F73197E25BF24083
:1006100060E08FE08E1B0E947A2262EB72E081E93B
:1006200096E00E94171D61E080E00E947A228AE530
:100630000E94211FEAEAF2E001900020E9F73197D9
:10064000EA5AF24061E0812F8E1B0E947A226AEA08
:1006500072E081E996E00E94171D61E088E00E9447
:100660007A226CEB71E081E996E00E94171D88E028
:10067000F70111928A95E9F76091A6027091A7029D
:100680008091A8029091A902870121E043E00E9495
:100690000C2AF70101900020E9F78E2D8E1B61E0F6
:1006A000815F0E947A22B70181E996E00E94171DBE
:1006B00085E20E94211F28960FB6F894DEBF0FBE78
:1006C000CDBFDF91CF911F910F91FF90EF900895D3
:1006D0000C94CF2C1F93CF93DF93CDB7DEB76B97DE
:1006E0000FB6F894DEBF0FBECDBF10E0CE0101966D
:1006F0000E94851EEA8DFB8D309719F40E94B52368
:100700000DC085818823D1F3823018F41F3F31F06A
:100710001F5FCE0101960E945724E8CF812F6B9670
:100720000FB6F894DEBF0FBECDBFDF91CF911F9102
:1007300008958F929F92AF92BF92CF92DF92EF92E5
:10074000FF921F93CF93DF93CDB7DEB76B970FB6B2
:10075000F894DEBF0FBECDBF61E08AE00E94240B9B
:100760008FE00E94711D019709F495C11092530604
:100770001092510610924E0610924D068AE0809318
:100780004C060E949A0B6B017C0161E080914C0643
:100790000E94240B61E080914C060E94F40A1FB76E
:1007A000F89480913802811127C0EFE0F3E0849142
:1007B000E1EFF2E09491E82FF0E0EE0FFF1FE1543B
:1007C000FD4FA591B491EC91E92321F461E08AE019
:1007D0000E94F40A61E08AE00E94240B8CB58061DB
:1007E0008CBD8CB580648CBD61E08DE00E94240BD3
:1007F00061E08BE00E94240B809138028F5F809330
:1008000038021FBF82E5809346061092470680910A
:100810004606909147060E948E0C1AE08FEF0E94C8
:100820004F0C1150D9F788E496E00E94910C20E01B
:1008300030E0A90160E088E496E00E94A70C182F40
:1008400080935206813049F00E949A0B6C197D0901
:10085000613D774060F381E054C02AEA31E040E036
:1008600050E068E088E496E00E94A70C82FF03C095
:10087000109353060EC014E00E94560C809352064B
:100880001150D1F78A3A11F082E03BC082E08093A8
:10089000530680915306823021F0812C912C540113
:1008A00005C0812C912CA12C90E4B92E20E030E0E1
:1008B000A90167E388E496E00E94A70CA5019401D2
:1008C00069E288E496E00E94A70C80935206882390
:1008D00049F00E949A0B6C197D09613D774030F315
:1008E00088E00FC080915306823001F520E030E0AF
:1008F000A9016AE388E496E00E94A70C882341F0EE
:1009000086E080934D0688E496E00E94440CC3C0C4
:100910000E94560C807C803C19F483E0809353063F
:100920000E94560C0E94560C0E94560C88E496E0D9
:100930000E94440C80E5809346061092470681E0B1
:100940000E946820882329F010917706112341F036
:10095000A2C080E00E946820882309F49CC0F4CFE4
:1009600080916B06803109F582E0809377061092C2
:10097000890610928A0610928B0610928C0640917E
:100980006C0650916D0660E070E085E0440F551FE5
:10099000661F771F8A95D1F7409385065093860688
:1009A00060938706709388061FC0803209F073C079
:1009B00083E08093770640916E0650916F066091B8
:1009C0007006709171064093890650938A06609371
:1009D0008B0670938C0625E836E084E596E00E944D
:1009E000B00F882309F457C084E596E090938E06F3
:1009F00080938D0681E0809376061092780610929F
:100A0000790610927A0610927B0610927C0610925C
:100A10007D0610927E0610927F061092800610923C
:100A200081061092820610928306109284066EEB65
:100A300071E0CE0101960E94861F8B819C8190936C
:100A4000A9068093A8068D819E81AF81B885809389
:100A5000AA069093AB06A093AC06B093AD06898529
:100A60009A85AB85BC858093AE069093AF06A09324
:100A7000B006B093B1068DE0FE013D96A2EBB6E064
:100A800001900D928A95E1F78A8D9B8D9093C00617
:100A90008093BF0601C011E0812F6B960FB6F894CA
:100AA000DEBF0FBECDBFDF91CF911F91FF90EF90C2
:100AB000DF90CF90BF90AF909F908F9008951F923E
:100AC0000F920FB60F9211240F900FBE0F901F9030
:100AD00018951F920F920FB60F9211240F931F9328
:100AE0002F933F934F935F936F937F938F939F9336
:100AF000AF93BF93EF93FF930E949A0B0091320242
:100B0000109133022091340230913502DC01CB0187
:100B1000801B910BA20BB30B8C329140A105B10548
:100B2000D8F00E949A0B6093320270933302809344
:100B30003402909335028EE00E94711D892B21F4BE
:100B400081E08093550205C08FE00E94711D809363
:100B5000520281E08093A302FF91EF91BF91AF9188
:100B60009F918F917F916F915F914F913F912F91C5
:100B70001F910F910F900FBE0F901F9018951F920D
:100B80000F920FB60F9211240F900FBE0F901F906F
:100B90001895AF92BF92CF92DF92EF92FF920F9390
:100BA0001F93CF93DF935C017C0187E0E80EF11C7B
:100BB000C0E0D0E0062F10E0670161E0F70181910D
:100BC0007F010E94240BB8010C2E02C07595679519
:100BD0000A94E2F76170F60180810E94F40A21967E
:100BE000C430D10549F7C501DF91CF911F910F9115
:100BF000FF90EF90DF90CF90BF90AF900C940702E2
:100C0000AF92BF92CF92DF92EF92FF920F931F931A
:100C1000CF93DF93EC01F62E642F8C810E94F40AAF
:100C20008D818F3F19F060E00E94F40A8F850F2DAF
:100C300010E084FF2DC05E0187E0A80EB11CE12CFE
:100C4000F12C650161E0F50181915F010E94240BA7
:100C5000B8010E2C02C0759567950A94E2F7617091
:100C6000F60180810E94F40AFFEFEF1AFF0A88E084
:100C7000E816F10431F7CE01DF91CF911F910F916A
:100C8000FF90EF90DF90CF90BF90AF900C94070251
:100C9000B80184E0759567958A95E1F7CE010E94C9
:100CA000C9056F2DCE01DF91CF911F910F91FF905C
:100CB000EF90DF90CF90BF90AF900C94C90541E0CA
:100CC0000E94000681E090E00895CF92DF92EF92BB
:100CD000FF920F931F93CF93DF9300D0CDB7DEB772
:100CE000D82E162F072F60919803E82EF12C8091B3
:100CF0009903E62FF0E0E80FF11DEE15FF0591F4E2
:100D000080E02A8349830E947A224981842F0E94AD
:100D1000211F609198038FE00E947A222A81822FFE
:100D20000E94211F80919903D81620F1E81AF1083A
:100D300092E0E916F104F4F46D2D681B81E00E9445
:100D40007A22C12ED02E125FF12EFC18F60164918A
:100D5000662349F041E081E996E00E940006FFEF3A
:100D6000CF1ADF0AF1CFFF2029F080E20E94211F75
:100D7000FA94F9CF0F900F90DF91CF911F910F91BF
:100D8000FF90EF90DF90CF90089521E041E065E87B
:100D900071E080E00E94650622E04EE36EE771E0BC
:100DA00081E00E94650622E04EE367E771E082E0A1
:100DB0000E94650622E04EE360E771E083E00C9458
:100DC00065068F929F92AF92BF92CF92DF92EF9281
:100DD000FF920F931F93CF93DF93CDB7DEB7A19709
:100DE0000FB6F894DEBF0FBECDBF811103C00E94C5
:100DF00062028DC3813009F04FC08091A40221E0CE
:100E000041E0811126C061EB71E00E94650622E09D
:100E10004EE369EA71E081E00E94650622E04EE35C
:100E200061EA71E082E00E94650680911D018111F6
:100E300005C022E04EE365E971E007C0813009F0AA
:100E400066C320E24EE36AE871E083E00E94650633
:100E50005EC36CED71E080E00E94650620E24EE327
:100E600064ED71E081E00E9465068091A40281300A
:100E700031F420E24EE36AEC71E082E006C0823099
:100E800031F420E24EE36FEB71E00E94650620E250
:100E90004EE366EB71E0D9CF823009F09FC08091BC
:100EA00074028230B1F1833009F44EC0813009F010
:100EB0002EC321E041E062E272E080E00E9465061C
:100EC00020E24EE368E172E081E00E94650620E2E4
:100ED0004EE36AE072E084E00E94650622E04EE3A1
:100EE00060E072E082E00E94650620E24EE367EF78
:100EF00071E083E00E94650622E04EE36DEE71E052
:100F000085E00E94650620E24EE361EE71E086E036
:100F10009DCF21E041E064E472E080E00E9465063C
:100F200022E04EE36AE372E081E00E94650622E07F
:100F30004EE36EE272E083E00E94650622E04EE33B
:100F400067E272E082E082CF21E041E069E472E092
:100F500080E00E946506EE24E394F12CCE01019618
:100F60000E94851EEA8DFB8D309719F085818111D5
:100F700003C00E94B523CBC2823058F5609198031C
:100F80006701DD2420919903862F90E0820F911D47
:100F90008C159D05A9F480E00E947A228EE30E94C0
:100FA000211F609198038FE00E947A2280E20E94C4
:100FB000211FBE01635F7F4F8FE892E00E94E62F02
:100FC0006E2D80919903E81608F07EC22FEFE21A89
:100FD000F20ACE0101960E945724C0CF833009F057
:100FE0007EC180917402813009F0E2C08091750267
:100FF000843001F1853009F4BDC0823009F087C228
:1010000021E041E06AEB72E080E00E94650622E0A8
:101010004EE360EB72E081E00E94650622E04EE361
:1010200067EA72E082E00E94650622E04EE36CE926
:1010300072E00BCF4091530228EE33E04203C0012F
:10104000439F900D1124092E000CAA0BBB0B40915D
:1010500048025091490260914A0270914B02840FFC
:10106000951FA61FB71FB7FD09C080934802909334
:101070004902A0934A02B0934B0208C01092480262
:101080001092490210924A0210924B02809148023B
:1010900090914902A0914A02B0914B02813C9D453A
:1010A000A105B10564F080EC9DE5A0E0B0E080937F
:1010B000480290934902A0934A02B0934B0260E029
:1010C00080E00E947A2260EC71E081E996E00E9463
:1010D000171D60E089E00E947A22C0904802D090FB
:1010E0004902E0904A02F0904B02F7FE23C08DE2E5
:1010F0000E94211F22273327A9012C193D094E09DF
:101100005F0919A2CE0181967C017AE0872E912C8D
:10111000A12CB12CCA01B901A50194010E944A2E4B
:10112000605DF70162937F0121153105410551058D
:1011300089F71AC0A701960119A2CE0181967C01F8
:101140006AE0862E912CA12CB12CCA01B901A5010F
:1011500094010E944A2E605DF70162937F01211580
:1011600031054105510589F7B70181E996E00E94F3
:10117000021DCDC180910001882321F0813029F426
:1011800013E004C010E203E002C010E200E221E03C
:1011900041E067E972E080E00E946506402F6FE859
:1011A00072E081E00E942C1F412F69E872E093C039
:1011B000823009F0ACC180917502823009F470C0B0
:1011C000833009F451C0813009F0A1C180918A02B5
:1011D00090918B02A0918C02B0918D028530910587
:1011E000A105B105A8F4FC01EB5AFE4FD080FC012B
:1011F000E05BFE4FE080FC01E55BFE4FF080FC0110
:10120000EA5BFE4F0081FC01EF5BFE4F108108C0DE
:1012100010E200E280E2F82E90E2E92E20E2D22EE7
:1012200021E041E064E872E080E00E9465064D2D17
:101230006FE772E081E00E942C1F4E2D69E772E09B
:1012400082E00E942C1F4F2D63E772E083E00E9432
:101250002C1F402F6DE672E084E00E942C1F412F6E
:1012600066E672E085E038C080917202882329F03A
:1012700010E2813019F403E002C013E000E221E043
:1012800041E061E672E080E00E946506402F6DE576
:1012900072E081E00E942C1F412F6AE572E01BC0C2
:1012A00080917102882329F010E2813019F403E063
:1012B00002C013E000E221E041E065E572E080E079
:1012C0000E946506402F61E572E081E00E942C1FBC
:1012D000412F6EE472E082E00E942C1F18C184301E
:1012E000B1F480917402813009F011C180917502CE
:1012F000823009F00CC180917602823029F083306F
:1013000019F0813009F003C10E94C50600C1853083
:1013100009F0FDC080917402813009F0F8C080911D
:101320007502823009F0F3C09091760280917702C5
:101330009130F9F4823069F0833099F0813009F00E
:101340007AC02091530280914C0290914D02F4E6B4
:1013500020C02091530280914E0290914F0234E6BA
:1013600024C0209153028091500290915102E4E6F2
:1013700028C0923079F5823089F08330D9F08130FD
:1013800009F059C02091530280914C0290914D0276
:10139000FAE02F02800D911D11242EC020915302DE
:1013A00080914E0290914F023AE02302800D911DF0
:1013B000112431C02091530280915002909151022A
:1013C000EAE02E02800D911D11249093510280932A
:1013D00050025EC0933079F5823099F0833001F18C
:1013E000813049F52091530280914C0290914D0239
:1013F000820F911D27FD9A9590934D0280934C0288
:1014000021C02091530280914E0290914F02820F91
:10141000911D27FD9A9590934F0280934E0225C00F
:10142000209153028091500290915102820F911DA0
:1014300027FD9A95CACF8230C1F0833049F18130BF
:1014400009F065C060E085E00E947A2288E50E948C
:10145000211F60E08AE00E947A22BE016F5F7F4F09
:1014600080914C0290914D0225C060E085E00E9481
:101470007A2289E50E94211F60E08AE00E947A2298
:10148000BE016F5F7F4F80914E0290914F0212C05C
:1014900060E085E00E947A228AE50E94211F60E0D8
:1014A0008AE00E947A22BE016F5F7F4F80915002D6
:1014B000909151020E941D02BE016F5F7F4F81E932
:1014C00096E00E94171D23C0C81AD10832E0C31647
:1014D000D1040CF07BCD681B81E00E947A22CE0102
:1014E0000D966C011EE0F60161916F01662339F0E3
:1014F00041E081E996E00E9400061150F4CF1123EB
:1015000009F464CD80E20E94211F1150F8CFA1960A
:101510000FB6F894DEBF0FBECDBFDF91CF911F9104
:101520000F91FF90EF90DF90CF90BF90AF909F9082
:101530008F90089540E00C94000661E00E949A0AA2
:101540008BE39FE10197F1F708953FB7F8948091FD
:10155000440290914502A0914602B091470226B5FF
:10156000A89B05C02F3F19F00196A11DB11D3FBFDB
:10157000BA2FA92F982F8827820F911DA11DB11D69
:10158000BC01CD0142E0660F771F881F991F4A9565
:10159000D1F708950895833081F028F4813099F0CF
:1015A0008230A1F008958730A9F08830B9F08430F6
:1015B000D1F4809180008F7D03C0809180008F776F
:1015C00080938000089584B58F7702C084B58F7DA5
:1015D00084BD08958091B0008F7703C08091B000E2
:1015E0008F7D8093B00008951F93CF93DF93282FB2
:1015F00030E0F901ED52FD4F8491F901E951FD4FC1
:10160000D491F901EB5FFC4FC491CC23C9F0162FA4
:1016100081110E94CB0AEC2FF0E0EE0FFF1FE55086
:10162000FD4FA591B4918FB7F894111105C09C910D
:10163000ED2FE095E92302C0EC91ED2BEC938FBFE9
:10164000DF91CF911F910895CF93DF9390E0FC013C
:10165000E951FD4F2491FC01EB5FFC4F84918823FD
:1016600061F190E0880F991FFC01E154FD4FC59195
:10167000D491FC01E550FD4FA591B491611109C0D1
:101680009FB7F8948881209582238883EC912E233C
:101690000BC0623061F49FB7F8943881822F809537
:1016A00083238883EC912E2B2C939FBF06C08FB78A
:1016B000F894E8812E2B28838FBFDF91CF91089576
:1016C0008F929F92AF92BF92CF92DF92EF92FF9252
:1016D0006B017C010E94A50A4B015C01C114D1047D
:1016E000E104F104F1F00E94A50ADC01CB018819A4
:1016F0009909AA09BB09883E9340A105B10570F379
:1017000021E0C21AD108E108F10888EE880E83E0D2
:10171000981EA11CB11CC114D104E104F10419F7F5
:10172000DDCFFF90EF90DF90CF90BF90AF909F9074
:101730008F9008952FB7F894609140027091410204
:1017400080914202909143022FBF08951F920F9201
:101750000FB60F9211242F933F938F939F93AF93C4
:10176000BF938091400290914102A0914202B091BA
:10177000430230913F0223E0230F2D3720F40196DE
:10178000A11DB11D05C026E8230F0296A11DB11DA4
:1017900020933F028093400290934102A093420223
:1017A000B09343028091440290914502A091460279
:1017B000B09147020196A11DB11D80934402909300
:1017C0004502A0934602B0934702BF91AF919F910B
:1017D0008F913F912F910F900FBE0F901F901895F2
:1017E0001F920F920FB60F9211242F933F934F9396
:1017F0005F936F937F938F939F93AF93BF93EF9379
:10180000FF93E0910301F09104010995FF91EF919D
:10181000BF91AF919F918F917F916F915F914F9108
:101820003F912F910F900FBE0F901F9018951F9210
:101830000F920FB60F9211242F933F934F935F9304
:101840006F937F938F939F93AF93BF93EF93FF9388
:10185000E0910101F09102010995FF91EF91BF9193
:10186000AF919F918F917F916F915F914F913F9138
:101870002F910F900FBE0F901F9018958FB7F8946F
:1018800080913A028FBF089561E0FC0184810E943B
:10189000F40A8091390281111092390208958EBDA7
:1018A00000000DB407FEFDCF8EB508958FEF0C94A8
:1018B0004F0C0F931F93CF93DF93EB010E949A0B72
:1018C0008B010E94560C8F3F49F00E949A0B601BBF
:1018D000710B6C177D07A8F380E001C081E0DF91F8
:1018E000CF911F910F910895CF93DF93EC018E81DB
:1018F000882389F08F8198859C012F5F3F4F38871F
:101900002F838230924018F40E94560CF3CFCE0100
:101910000E94440C1E82DF91CF9108958CBD9DBD25
:101920000895CF93DF93EC0180913902811109C0B2
:1019300081E08093390280914606909147060E948B
:101940008E0C60E08C81DF91CF910C94F40ACF92E1
:10195000DF92FF920F931F93CF93DF9300D000D0BD
:10196000CDB7DEB76C01F62E29833A834B835C83B7
:101970000E94740CC6010E94910C6CE271E0C601D9
:101980000E94590C8F2D80640E944F0C08E110E0DA
:101990005C814B813A812981DA01C901002E04C0A2
:1019A000B695A795979587950A94D2F729833A8398
:1019B0004B835C830E944F0C0850110929813A81A6
:1019C0004B815C81083F8FEF180731F7FF2029F02A
:1019D000E8E0FE1204C087E803C085E901C08FEF8C
:1019E0000E944F0C10E00E94560CF601828787FF80
:1019F00004C01F3F11F01F5FF6CF0F900F900F90A4
:101A00000F90DF91CF911F910F91FF90DF90CF90BA
:101A10000895AF92BF92CF92DF92EF92FF920F9311
:101A20001F93CF93DF93EC016901C801820F931FCD
:101A30008130924008F070C08E81882371F08881D7
:101A40009981AA81BB81481759076A077B0729F446
:101A50008F819885C816D906B0F5488359836A8363
:101A60007B838B85833039F089E0440F551F661FD7
:101A7000771F8A95D1F79A01AB0161E1CE010E94EF
:101A8000A70C882319F083E08D8346C00E949A0B2F
:101A90005B010E94560C8A878F3F49F40E949A0B83
:101AA0006A197B096D327140A0F38FE003C08E3F4D
:101AB00031F08DE08D83CE010E94440C2DC018863C
:101AC0001F8281E08E838F8198858C159D0540F45F
:101AD0000E94560C8F819885019698878F83F3CF4B
:101AE0006701E00EF11ECE14DF0431F00E94560CA7
:101AF000F60181936F01F7CF8F819885080F191F29
:101B000018870F838985882319F00115124048F042
:101B1000CE010E94740C05C0CE010E94440C80E0EE
:101B200001C081E0DF91CF911F910F91FF90EF9065
:101B3000DF90CF90BF90AF900895EF92FF920F93F8
:101B40001F93CF93DF93EC01790141155105610596
:101B5000710511F482E13CC08B85833039F089E056
:101B6000440F551F661F771F8A95D1F79A01AB0165
:101B700068E1CE010E94A70C882311F084E028C000
:101B80008EEF0E944F0C87018EEFF81AF8018191B9
:101B90008F010E944F0C0E151F05C1F78FEF0E9499
:101BA0004F0C8FEF0E944F0C0E94560C8A878F714A
:101BB000853031F081E18D83CE010E94440C09C053
:101BC00068E572E0CE010E94590C811107C085E1E1
:101BD0008D83CE010E94440C80E013C020E030E0F1
:101BE000A9016DE0CE010E94A70C811104C00E94E2
:101BF000560C882311F084E1EBCFCE010E94440CF7
:101C000081E0DF91CF911F910F91FF90EF900895A8
:101C100080919A038823A9F14091370150913801AE
:101C20006091390170913A0129EA33E0809196037D
:101C3000909197030E949D0D811102C080E008954C
:101C400040913B0250913C0260913D0270913E02F6
:101C5000411551056105710591F029EA33E0809144
:101C60009603909197030E949D0D882339F310925B
:101C70003B0210923C0210923D0210923E021092E2
:101C80009A0381E008958F929F92AF92BF92EF9254
:101C9000FF920F931F93CF934B015C01C42F809150
:101CA000370190913801A0913901B0913A0188151E
:101CB0009905AA05BB0501F10E94080E811102C019
:101CC00080E020C089EAE82E83E0F82E00E012E0F0
:101CD00020E030E0B501A401809196039091970334
:101CE0000E94090D882361F3809237019092380198
:101CF000A0923901B0923A0180919A03C82BC09307
:101D00009A0381E0CF911F910F91FF90EF90BF90C8
:101D1000AF909F908F9008954F925F926F927F92B5
:101D20008F929F92AF92BF92CF92DF92EF92FF92EB
:101D30000F931F93CF93DF93EC016A017B0128017E
:101D40003901423051056105710510F480E073C01E
:101D500089859A85AB85BC850196A11DB11D841727
:101D60009507A607B70790F38B889C88AD88BE8837
:101D70008F89803129F4BB27AF2D9E2D8D2D09C071
:101D8000DB01CA0147E0B695A795979587954A95D7
:101D9000D1F7880E991EAA1EBB1E80913701909123
:101DA0003801A0913901B0913A0188169906AA0626
:101DB000BB0679F48F898031A1F4DD24EE24FF2461
:101DC000C601880F991FFC01E755FC4F51824082E4
:101DD00019C040E0C501B4010E94430E8111EACF51
:101DE000B5CFE894C7F8DD24EE24FF24C601880FA0
:101DF000991F880F991FFC01E755FC4F40825182C3
:101E00006282738280919A03816080939A038A89A7
:101E1000823080F08D819E81AF81B885880E991EB9
:101E2000AA1EBB1E80923B0290923C02A0923D02F1
:101E3000B0923E0281E0DF91CF911F910F91FF9010
:101E4000EF90DF90CF90BF90AF909F908F907F905A
:101E50006F905F904F9008958F929F92AF92BF9234
:101E6000CF92DF92EF92FF920F931F93CF93DF9366
:101E7000FC0181859285A385B4850196A11DB11DC4
:101E800084179507A607B70710F480E05CC0838924
:101E90009489A589B689C789C03129F4852E962EE3
:101EA000A72EBB2409C04A015B01C7E0B694A794E2
:101EB00097948794CA95D1F7E9016A017B018F0154
:101EC000BC01CD01680D791D8A1D9B1D80903701D5
:101ED00090903801A0903901B0903A0168157905C9
:101EE0008A059B0599F4F80187898031A9F4B70127
:101EF000A601552766277727440F551FFA01E75596
:101F0000FC4F80819181A0E0B0E018C040E00E94C9
:101F1000430E8111E8CFB9CFB701A6014F775527FE
:101F200066277727440F551F440F551FFA01E755C1
:101F3000FC4F80819181A281B381BF708883998396
:101F4000AA83BB8381E0DF91CF911F910F91FF9016
:101F5000EF90DF90CF90BF90AF909F908F900895BB
:101F60004F925F926F927F92AF92BF92CF92DF9229
:101F7000EF92FF920F931F93CF93DF9300D000D087
:101F8000CDB7DEB78C0149835A836B837C835901BB
:101F9000C12CD12C7601412C82E0582E612C712C61
:101FA00049815A816B817C819E012F5F3F4FC8011F
:101FB0000E942C0F882351F1D301C201F80105843E
:101FC00004C0880F991FAA1FBB1F0A94D2F7C80E1E
:101FD000D91EEA1EFB1E49815A816B817C8187894B
:101FE000803129F088EF9FEFAFEFBFE004C088EFAA
:101FF0009FEFA0E0B0E0481759076A077B0780F21F
:10200000F501C082D182E282F38281E00F900F90CD
:102010000F900F90DF91CF911F910F91FF90EF9054
:10202000DF90CF90BF90AF907F906F905F904F9078
:1020300008958F929F92AF92BF92CF92DF92EF92CC
:10204000FF920F931F93CF93DF93EC018D8181114A
:1020500002C080E077C00B891C892D893E89041756
:10206000150726073707A8F36A017B01823029F498
:10207000CA86DB86EC86FD860DC0C114D104E1045E
:10208000F10451F41E821F82188619861A861B8657
:102090001C861D8681E056C08A849B84AC84BD84E6
:1020A000EB8DFC8D258530E0275F3F4FB501A40106
:1020B0004150510961097109022E04C07695679556
:1020C000579547950A94D2F7D701C6010197A10900
:1020D000B10904C0B695A795979587952A95D2F72B
:1020E00084179507A607B70720F089288A288B2828
:1020F00049F44F89588D698D7A8D4E835F83688747
:10210000798704C0841B950BA60BB70B4C015D01AE
:102110008E010A5F1F4F81149104A104B10409F4D8
:10212000A7CF4E815F816885798598018B8D9C8DC5
:102130000E942C0F91E0891A9108A108B108811121
:10214000EACF87CFDF91CF911F910F91FF90EF9052
:10215000DF90CF90BF90AF909F908F9008953F9267
:102160004F925F926F927F928F929F92AF92BF92A7
:10217000CF92DF92EF92FF920F931F93CF93DF9353
:10218000CDB7DEB72C970FB6F894DEBF0FBECDBF2C
:102190005C01DC015B968D909C905C971696CD90CF
:1021A000DD90ED90FC901997C114D104E104F10485
:1021B00039F0BFEFCB1ADB0AEB0AFB0A312C07C060
:1021C000F401C080D180E280F38033243394F401A1
:1021D00081859285A385B4859C01AD012F5F3F4F1A
:1021E0004F4F5F4F29873A874B875C87260137011E
:1021F0001D821E821F821886F40181859285A38527
:10220000B4852D813E814F815885281739074A07AB
:102210005B0708F063C089859A85AB85BC858C1502
:102220009D05AE05BF0550F482E0C82ED12CE12CEF
:10223000F12C92E0492E512C612C712C9E012F5FC4
:102240003F4FB701A601C4010E942C0F882309F457
:1022500045C089819A81AB81BC81892B8A2B8B2BCC
:1022600041F0260137019FEF491A590A690A790A94
:1022700005C0C414D504E604F70491F02D813E8115
:102280004F8158852F5F3F4F4F4F5F4F2D833E83C8
:102290004F8358873FEFC31AD30AE30AF30AACCF40
:1022A0000FEF1FEF2FEF3FE0B301A201C4010E9427
:1022B0008C0E882399F0D50116964D915D916D9104
:1022C0007C911997411551056105710549F09301FC
:1022D0008201C4010E948C0E811102C080E02AC0DC
:1022E000D50116964D925D926D927C92199733208E
:1022F00051F0D301C2010196A11DB11DF4018083EB
:102300009183A283B383F5018789908DA18DB28DCE
:10231000892B8A2B8B2B69F4D50157964D925D92B0
:102320006D927C925A9714968C91149780681496AB
:102330008C9381E02C960FB6F894DEBF0FBECDBF14
:10234000DF91CF911F910F91FF90EF90DF90CF9091
:10235000BF90AF909F908F907F906F905F904F90C5
:102360003F9008952F923F924F925F926F927F928B
:102370008F929F92AF92BF92CF92DF92EF92FF9295
:102380000F931F93CF93DF93EC016B014A018D8173
:10239000811103C08FEF9FEFD7C08C8180FFFACFF0
:1023A0004B885C886D887E884A855B856C857D85D9
:1023B000C401A0E0B0E093018201041B150B260BC1
:1023C000370B081719072A073B0718F44201841A2C
:1023D000950A54011E0126E0220E311CA114B104FD
:1023E00009F47EC04A855B856C857D852A0181E084
:1023F0005822ED818A019B0189E036952795179532
:1024000007958A95D1F78B8D9C8DE23061F4FC01A4
:10241000828D938DA48DB58DBC01CD01600F711F90
:10242000821F931F3FC0FC0174807A947022411474
:102430005104C9F4711017C0452B462B472B49F4A2
:102440008F89988DA98DBA8D8E839F83A887B98730
:102450000AC04E815F816885798591010E942C0FA9
:10246000882309F497CFEB8DFC8D8E819F81A88501
:10247000B9850297A109B109058404C0880F991F85
:10248000AA1FBB1F0A94D2F74685578560897189B8
:10249000840F951FA61FB71FBC01CD01670D711DCD
:1024A000811D911D20E032E02419350935012A15DE
:1024B0003B0508F439012C8126FD04C06114F2E0CB
:1024C0007F0681F400913701109138012091390184
:1024D00030913A016017710782079307B1F402C087
:1024E000C40132C040E00E94430E882309F452CF59
:1024F000F201E755FC4FD601CF01860D971DE81775
:10250000F90789F021912D93FACF76018301920189
:10251000AB01BC0180919603909197030E94090D35
:10252000882309F437CFC60CD71C8A859B85AC85D8
:10253000BD85860D971DA11DB11D8A879B87AC8720
:10254000BD87A618B7084ACFDF91CF911F910F9191
:10255000FF90EF90DF90CF90BF90AF909F908F90C3
:102560007F906F905F904F903F902F900895CF9302
:10257000DF93EC018D818823A1F18C8187FF2DC031
:102580006E857F858889998941E00E94430E882362
:1025900041F1EA8980E2E89FF0011124DF01A755AB
:1025A000BC4F1097F1F08D81823050F44B895C89DB
:1025B0006D897E895C964D935D936D937C935F9757
:1025C0008F89988DA98DBA8DE755FC4F938F828F97
:1025D000B58BA48B8C818F778C83DF91CF910C94FA
:1025E000080E80E0DF91CF910895CF93DF93EC0147
:1025F0000E94B712882311F01D8281E0DF91CF91F4
:1026000008952F923F924F925F926F927F928F9296
:102610009F92AF92BF92CF92DF92EF92FF920F9371
:102620001F93CF93DF9300D000D0CDB7DEB78C01DE
:102630005B011A01DC0115968C9115978130C9F464
:1026400014968C9181FF15C082FF1BC0F80143894D
:1026500054896589768982859385A485B585841793
:102660009507A607B70769F0C8010E9419108111E4
:1026700008C081E090E0F8019383828380E090E0DD
:1026800039C1610183C0D8015B968D919C915C97A3
:10269000FC01248121502A013B0139E076946794A2
:1026A000579447943A95D1F7722E74207A01F1E04D
:1026B000FF22772009F476C080E092E08E199F090E
:1026C00046018C159D0508F44C01D8015B962D91AF
:1026D0003C915C9716968D919D910D90BC91A02D8B
:1026E0000297A109B109F901058404C0880F991F57
:1026F000AA1FBB1F0A94D2F7468557856089718946
:10270000840F951FA61FB71F9C01AD01270D311D1A
:10271000411D511D29013A01811432E0930609F04F
:1027200088C08091370190913801A0913901B09112
:102730003A0184159505A605B70559F48FEF9FEF6B
:10274000DC018093370190933801A0933901B09355
:102750003A019501B301A2018091960390919703EC
:102760000E949D0D882309F484CF9EEFB91AC818E2
:10277000D908F80182859385A485B585880D991DB2
:10278000A11DB11D82879387A487B587D8011A96AA
:102790004D915D916D917C911D97C114D10409F00B
:1027A00072CF87C0E114F10409F086CF16964D91DF
:1027B0005D916D917C9119974115510561057105E8
:1027C00059F457968D919D910D90BC91A02D009735
:1027D000A105B10541F521C09E012F5F3F4F0E9429
:1027E0002C0F882309F44BCF89819A81AB81BC815E
:1027F000F801238D348DF9012789203129F048EF24
:102800005FEF6FEF7FE004C048EF5FEF60E070E0E4
:1028100084179507A607B70730F0C8010E94AF10CC
:1028200081114ACF26CFF80186839783A087B1878D
:1028300043CFE114F10429F5D8011A964D915D9129
:102840006D917C911D9753968D919D910D90BC91AA
:10285000A02D481759076A077B0798F00E94080EB9
:10286000882309F406CF40923701509238016092D4
:10287000390170923A0180919A03816080939A03A2
:1028800008C041E0C301B2010E94430E882309F44D
:10289000F0CED501F701E755FC4FCF01880D991D0A
:1028A000E817F90719F02D912193FACFA80CB91C5C
:1028B0005ECF53968D919D910D90BC91A02D841764
:1028C0009507A607B70740F4F801438B548B658B37
:1028D000768B848180688483D80114968C9183FDE3
:1028E00002C0C10107C0C8010E94B712882309F4C1
:1028F000C0CEF7CF0F900F900F900F90DF91CF9138
:102900001F910F91FF90EF90DF90CF90BF90AF900D
:102910009F908F907F906F905F904F903F902F90FF
:102920000895CF93DF931F92CDB7DEB7698341E05F
:1029300050E0BE016F5F7F4F0E9401130F90DF9147
:10294000CF910895FC01DB0112968D919C91139714
:10295000938382838AE891E09183808314968C919B
:102960001497848315968C911597858316964D91AF
:102970005D916D917C91199746835783608771872C
:102980001A964D915D916D917C911D974287538769
:10299000648775871E964D915D916D917C915197DD
:1029A00046875787608B718B52968C915297828B9A
:1029B00053964D915D916D917C915697438B548BBD
:1029C000658B768B57964D915D916D917C915A9761
:1029D000478B508F618F728F5B968D919C915C9726
:1029E000948F838F08950F931F93CF93DF93CDB769
:1029F000DEB768970FB6F894DEBF0FBECDBF8091EB
:102A00005502813009F04CC58091710281110E94FC
:102A10009721109255022091A502223009F47FC01F
:102A200028F4222361F02130B1F03AC5243009F4B2
:102A300013C408F43AC1253009F471C431C581E0EA
:102A40008093A50210925402109299031092980359
:102A50001092530225C54091A402309199038091B0
:102A60009803411134C0482F50E0430F511D4130AD
:102A7000510559F01CF4452BB1F112C542305105F6
:102A800039F04330510531F00BC52093740209C071
:102A900092E005C090911D01911102C593E09093C1
:102AA000740290917202913041F4309367028093E6
:102AB0005F02809154028093570210925402109248
:102AC0009903109298031092530282E05FC090E045
:102AD000830F911D8230910599F083309105E1F0CB
:102AE000892B09F0DDC410927402109254021092E6
:102AF000990310929803109253021092A502D0C429
:102B0000413021F482E08093A4029DC3423009F059
:102B1000C7C42093A40297C31092A402C1C42091F9
:102B20007402213009F052C090919903809198036A
:102B3000E82FF0E0E90FF11DE730F10508F0B0C42F
:102B4000EC5CFF4F0C946C2E67EC71E002C065EDFD
:102B500071E089EA95E00E94171DA2C422E020934B
:102B6000750220917202213041F4909368028093A3
:102B70006002809154028093580210925402109285
:102B80009903109298031092530283E08093A50258
:102B900087C424E0E4CF69ED71E089EA95E00E9402
:102BA000171D67EE71E089EA95E00E94171D1092EB
:102BB000850210928402109287021092860210926F
:102BC0008902109288026CC425E0C9CF223039F501
:102BD0004091990330919803832F90E0840F911DC9
:102BE0008130910561F01CF4892B29F159C48230A0
:102BF000910549F0039709F053C483E001C081E0D7
:102C00008093750202C02093750280917202813018
:102C100009F0B3CF4093680230936002AACF23300B
:102C200009F03EC4209199038091980390E0820FAF
:102C3000911D892BF9F41092750210925402109292
:102C4000700210929903109298031092530281E03F
:102C50008093A50280917202813009F021C4809195
:102C600067028093990380915F028093980380911B
:102C700057020CC481E08093A4021092A50288E060
:102C8000EAEBF2E0DF01982F1D929A95E9F7E2EB6B
:102C9000F2E0DF01982F1D929A95E9F7EAEAF2E057
:102CA000DF011D928A95E9F7FBC34091750242301E
:102CB00021F0443009F0C0C05BC050917402513023
:102CC00009F0BAC03091990320919803822F90E0C7
:102CD000830F911D8130910561F11CF4892B59F00E
:102CE000ABC08230910541F1039709F0A5C083E0A4
:102CF0008093760223C010927602109254021092B2
:102D0000700210929903109298031092530240930C
:102D1000A50280917202813009F08EC08091680214
:102D20008093990380916002809398038091580268
:102D300079C05093760202C040937602809172026D
:102D4000813041F4309369022093610280915402F2
:102D500080935902109254021092700210929903BB
:102D6000109298031092530284E08093A50264C0ED
:102D700080917402813009F05FC08E010F5F1F4F98
:102D800088E0F80111928A95E9F76CEE71E0C801CC
:102D90000E94E62F80E28B8383E58C834AE0BE01AC
:102DA0006B5F7F4F80914802909149020E942C2ACC
:102DB000F80101900020E9F731971082B80189EA03
:102DC00095E00E94171D63ED71E089EA95E00E948D
:102DD000171D8091A502E82FF0E0ED58FD4F1082FD
:102DE000109254021092700210929903109298035C
:102DF0001092530281508093A502909172029130FB
:102E0000D9F490E0FC01EA59FD4F20812093990309
:102E1000FC01E25AFD4F208120939803FC01EA5AFD
:102E2000FD4F8081809354028091540287FD8D5F15
:102E30008595859580936F0280917502853009F0A4
:102E400063C020917402213009F05EC03091990373
:102E50008091980390E0830F911D8130910509F4D2
:102E60003EC08230910509F43FC0892B09F044C06F
:102E70008091A502882309F43FC0E82FF0E0ED58C7
:102E8000FD4F10821092540210927002109299031A
:102E9000109298031092530281508093A502909152
:102EA0007202913049F590E0FC01EA59FD4F208112
:102EB00020939903FC01E25AFD4F2081209398034F
:102EC000FC01EA5AFD4F80818093540280915402A4
:102ED00087FD8D5F8595859580936F020DC010925B
:102EE00000016FEE71E004C02093000166EF71E015
:102EF00089EA95E00E94171D81E996E00E949D0AEB
:102F00008091A5020E94E10680917502813009F04E
:102F1000D5C080917402823009F0D0C040918A02FD
:102F200050918B0260918C0270918D0220919903D7
:102F30008091980390E0820F911D8230910509F4F1
:102F400054C074F40097D1F0019709F064C0109256
:102F50008A0210928B0210928C0210928D025BC03A
:102F60008430910509F44BC00CF444C0059709F076
:102F700052C084E090E0A0E0B0E045C08091A5029E
:102F8000882309F448C0E82FF0E0ED58FD4F108287
:102F900010925402109270021092990310929803AA
:102FA0001092530281508093A50290917202913049
:102FB00091F590E0FC01EA59FD4F2081209399039F
:102FC000FC01E25AFD4F208120939803FC01EA5A4C
:102FD000FD4F8081809354028091540287FD8D5F64
:102FE0008595859580936F0216C081E090E0A0E002
:102FF000B0E009C082E090E0A0E0B0E004C083E06F
:1030000090E0A0E0B0E080938A0290938B02A093BE
:103010008C02B0938D0200918A0210918B02209154
:103020008C0230918D02DB01CA019927AA27BB27A8
:1030300080179107A207B307C9F1602F81E090E0E4
:103040000E94680380918A0290918B02A0918C0269
:10305000B0918D0282309105A105B105E1F06CF4CB
:103060000097A105B10591F00197A105B105C1F443
:1030700060E07BE480E090E017C00397A105B10514
:1030800079F460E071EE80E090E00EC060E875E2F7
:1030900080E090E009C060E076E980E090E004C064
:1030A00060E072EC81E090E00E94432381E996E0C9
:1030B0000E949D0A8091A5020E94E10680917502FE
:1030C000833009F060C080917402823009F05BC0E7
:1030D00020917202309199038091980390E0830FC0
:1030E000911D81309105C9F182309105D1F1892B73
:1030F000C1F58091A5028823B1F1E82FF0E0ED58E9
:10310000FD4F108210925402109270021092990397
:10311000109298031092530281508093A50221309F
:1031200011F590E0FC01EA59FD4F3081309399038D
:10313000FC01E25AFD4F308130939803FC01EA5ABA
:10314000FD4F8081809354028091540287FD8D5FF2
:103150008595859580936F0206C081E08093720209
:1031600002C01092720260917202261721F083E071
:1031700090E00E94680381E996E00E949D0A809198
:10318000A5020E94E10680917502823009F088C193
:1031900080917402823009F083C1209171023091D4
:1031A00099038091980390E0830F911D81309105E0
:1031B00009F43EC082309105C1F1892BC9F5809197
:1031C000A5028823C1F1E82FF0E0ED58FD4F1082F1
:1031D0001092540210927002109299031092980368
:1031E0001092530281508093A50290917202913007
:1031F00011F590E0FC01EA59FD4F308130939903BD
:10320000FC01E25AFD4F308130939803FC01EA5AE9
:10321000FD4F8081809354028091540287FD8D5F21
:103220008595859580936F0206C01092710203C048
:1032300081E08093710260917102261721F084E091
:1032400090E00E94680381E996E00E949D0A8091C7
:10325000A5020E94E10624C180917602815083304C
:1032600008F01EC140917502423009F019C1509119
:103270007402513009F014C13091990320919803E0
:10328000822F90E0830F911D8130910569F11CF42C
:10329000892B59F005C18230910549F1039709F056
:1032A000FFC083E08093770224C0109277021092CF
:1032B0005402109270021092990310929803109287
:1032C000530283E08093A50280917202813009F05D
:1032D000E7C0809169028093990380916102809395
:1032E000980380915902D2C05093770202C0409354
:1032F000770280917202813041F430936A02209308
:1033000062028091540280935A02109254021092E9
:103310009903109298031092530285E037CC809164
:103320007402813009F0BCC080917502823009F0CE
:10333000B7C08E010F5F1F4F80E1D8011D928A95A3
:10334000E9F76DEF71E0C8010E94E62F80E28B8300
:10335000809177028230E1F0833089F1813009F089
:1033600044C088E58C83BE016F5E7F4F80914C0224
:1033700090914D020E941D02BE016F5E7F4FCE01F3
:1033800005960E94E62F10924D0210924C022DC01D
:1033900089E58C83BE016F5E7F4F80914E029091D4
:1033A0004F020E941D02BE016F5E7F4FCE01059647
:1033B0000E94E62F10924F0210924E0216C08AE52C
:1033C0008C83BE016F5E7F4F8091500290915102BD
:1033D0000E941D02BE016F5E7F4FCE0105960E94C6
:1033E000E62F1092510210925002F8010190002035
:1033F000E9F7319780E28083F80101900020E9F736
:10340000CF0160E072E001970E94E62FF801019081
:103410000020E9F73197108266E072E089EA95E0D2
:103420000E94171DB80189EA95E00E94171D63EDFF
:1034300071E089EA95E00E94171D8091A502E82FAE
:10344000F0E0ED58FD4F108210925402109270027D
:103450001092990310929803109253028150809316
:10346000A502909172029130D9F490E0FC01EA59E2
:10347000FD4F208120939903FC01E25AFD4F2081EA
:1034800020939803FC01EA5AFD4F808180935402F7
:103490008091540287FD8D5F8595859580936F029D
:1034A0009091540297FD9D5F95959595909370022C
:1034B00040916F028091A50220918E02491303C0B2
:1034C000821709F4ABC0821304C0292F241B209358
:1034D000530297FF04C01092700210925402813080
:1034E00009F469C0823039F590917402209170021C
:1034F000913041F427300CF46FC096E09093700245
:1035000098E161C0923021F424300CF465C057C0BA
:10351000933009F061C090918302692F70E0022E10
:10352000000C330B621773070CF056C090937002B7
:10353000990F990F48C08330A1F530917402909192
:103540007002313091F420917502223031F49430C0
:103550000CF442C08093700235C02530E9F59330F9
:10356000DCF192E0909370021AC03230A9F52091FC
:103570007502213039F496307CF195E09093700219
:1035800094E121C0233029F4933034F13093700258
:1035900006C0223009F59330FCF02093700298E0C9
:1035A00012C0843099F4909174029130A9F49091F2
:1035B0007502923089F49091700294306CF093E02F
:1035C000909370029CE09093540206C0853021F4E1
:1035D0001092700210925402909170022091980300
:1035E000491724F4211109C021E005C094172CF4D7
:1035F000222319F021502093980390936F02809317
:103600008E0280919803981B9093990381E996E02C
:103610000E949D0A8091A5020E94E106109152022B
:1036200080916E02181721F18091710281110E9420
:10363000972111110FC00E94990380931D018111E0
:1036400004C08091520280936E020E946A038093AC
:10365000830206C0113021F410931D0110936E02F5
:1036600081E996E00E949D0A8091A5020E94E106F0
:103670000E949A0B60939F027093A0028093A10214
:103680009093A20268960FB6F894DEBF0FBECDBF2E
:10369000DF91CF911F910F910895CF92DF92EF921A
:1036A000FF920F931F93CF93DF936C017A018B01ED
:1036B000C0E0D0E0CE15DF0589F0D8016D918D0115
:1036C000D601ED91FC910190F081E02DC6010995A4
:1036D000892B11F47E0102C02196ECCFC701DF9146
:1036E000CF911F910F91FF90EF90DF90CF900895B1
:1036F000FC01538D448D252F30E0842F90E0821BF8
:10370000930B541710F0CF96089501970895FC017C
:10371000918D828D981761F0828DDF01A80FB11D08
:103720005D968C91928D9F5F9F73928F90E008952C
:103730008FEF9FEF0895FC01918D828D981731F0E6
:10374000828DE80FF11D858D90E008958FEF9FEF3A
:103750000895FC01918D228D892F90E0805C9F4F10
:10376000821B91098F739927089589EA95E00E9439
:10377000A91B21E0892B09F420E0822F0895FC0188
:10378000848DDF01A80FB11DA35ABF4F2C91848DEA
:1037900090E001968F739927848FA689B7892C931F
:1037A000A089B1898C9180648C93938D848D9813BA
:1037B00006C00288F389E02D80818F7D8083089583
:1037C000EF92FF920F931F93CF93DF93EC0181E071
:1037D000888F9B8D8C8D981305C0E889F98980812D
:1037E00085FD24C0F62E0B8D10E00F5F1F4F0F7369
:1037F0001127E02E8C8DE8120CC00FB607FCFACF13
:10380000E889F989808185FFF5CFCE010E94BF1B31
:10381000F1CF8B8DFE01E80FF11DE35AFF4FF082CF
:103820000B8FEA89FB898081806207C0EE89FF895E
:103830006083E889F98980818064808381E090E0F9
:10384000DF91CF911F910F91FF90EF900895CF934B
:10385000DF93EC01888D8823C9F0EA89FB89808198
:1038600085FD05C0A889B9898C9186FD0FC00FB66A
:1038700007FCF5CF808185FFF2CFA889B9898C91AB
:1038800085FFEDCFCE010E94BF1BE7CFDF91CF9127
:10389000089580E090E0892B29F00E94B51B8111EA
:1038A0000C940000089528E0EEE2F1E0AAEBB2E00B
:1038B00001900D922A95E1F728E0E6E2F1E0A2EB13
:1038C000B2E001900D922A95E1F728E0EEE1F1E0F7
:1038D000AAEAB2E001900D922A95E1F76093A60260
:1038E0007093A7028093A8029093A90281E996E0C1
:1038F0000E949D0A8091A5020C94E1060E94B92FB6
:103900001F920F920FB60F9211242F933F934F9354
:103910005F936F937F938F939F93AF93BF93EF9337
:10392000FF938091920390919303A0919403B0919F
:103930009503892B8A2B8B2B59F180918F03E09172
:103940009003F09191039081892780838091920365
:1039500090919303A0919403B091950318161906C2
:103960001A061B060CF03DC08091920390919303C0
:10397000A0919403B09195030197A109B109809397
:10398000920390939303A0939403B093950329C05B
:1039900080913601E9E1F3E0E4919FEF90933601E5
:1039A000E130B9F098F0E230C9F4909170009D7F59
:1039B0009093700091E09093B0009091B100987F47
:1039C00094609093B1001092B30008C010926E0002
:1039D00005C090916F009D7F90936F0061E00E9401
:1039E000F40AFF91EF91BF91AF919F918F917F91D9
:1039F0006F915F914F913F912F910F900FBE0F905C
:103A00001F9018956115710579F0FB010190002058
:103A1000E9F73197AF01461B570BDC01ED91FC91A3
:103A20000280F381E02D099480E090E008950C94E9
:103A3000021D1F920F920FB60F9211242F933F93E6
:103A40004F935F936F937F938F939F93AF93BF93A6
:103A5000EF93FF9389EA95E00E94BF1BFF91EF91DE
:103A6000BF91AF919F918F917F916F915F914F9196
:103A70003F912F910F900FBE0F901F9018951F929E
:103A80000F920FB60F9211242F938F939F93EF9362
:103A9000FF93E091B905F091BA058081E091BF05EF
:103AA000F091C00582FD12C090818091C2058F5FA8
:103AB0008F732091C305821751F0E091C205F0E0A9
:103AC000E755FA4F958F8093C20501C08081FF9121
:103AD000EF919F918F912F910F900FBE0F901F909C
:103AE0001895CF93DF93282F30E0F901ED52FD4F69
:103AF0008491F901E951FD4FD491F901EB5FFC4F3D
:103B0000C491CC2391F081110E94CB0AEC2FF0E0FC
:103B1000EE0FFF1FE753FD4FA591B491EC91ED23FC
:103B200081E090E021F480E002C080E090E0DF914D
:103B3000CF910895AF92BF92CF92DF92EF92FF9212
:103B40000F931F93CF93DF93CDB7DEB72B970FB6AD
:103B5000F894DEBF0FBECDBF7C01FC0185818111D1
:103B6000C2C0CE0101966C01FC0190E28BE08C0D8D
:103B700091938E13FDCFDA0120E037E09D919923D8
:103B800039F19E3219F0EAE1F3E00AC03A3009F463
:103B9000AAC028E03AE0F2CF3196891709F4A3C011
:103BA00084918111F9CF321708F49DC08FED890FF0
:103BB0008E3508F098C081E0820FF601E20FF11D0A
:103BC0002FE9290F2A3108F490529083282FD6CF5D
:103BD0008981803209F487C08B01FB01838D948D2C
:103BE000F701948F838FFB0116821782108611864E
:103BF0001286138614861586A12CF801828593857A
:103C0000A485B58543895489658976898417950784
:103C1000A607B70708F067C025E0B695A795979562
:103C200087952A95D1F7F82FFF70BF2EF80185816F
:103C3000823008F458C0C8010E94002597FD53C087
:103C4000F80182859385A485B5854F96A11DB11D88
:103C500082879387A487B587F0E2BF9EC0011124B5
:103C6000BC0167557C4F61157105E9F1FB012081AD
:103C70002223B9F1253EE1F04BE050E0C6010E945D
:103C8000BE2F892B09F0B9CF6B2DC7012B960FB62C
:103C9000F894DEBF0FBECDBFDF91CF911F910F9182
:103CA000FF90EF90DF90CF90BF90AF900C94C72320
:103CB000A11014C0F701B28A409137015091380128
:103CC0006091390170913A0146875787608B718BFB
:103CD000FC01E755FC4F8081882329F0AA24A39496
:103CE0008CCFAA2039F380E02B960FB6F894DEBF74
:103CF0000FBECDBFDF91CF911F910F91FF90EF903D
:103D0000DF90CF90BF90AF900895EF92FF920F9306
:103D10001F93CF93DF93CDB7DEB7C756D1090FB648
:103D2000F894DEBF0FBECDBF8C01E090BF06F090CF
:103D3000C006F7018581823008F471C0F7018285E1
:103D40009385A485B5858F719927AA27BB27892BD1
:103D50008A2B8B2B09F063C040E250E0BE016F5FFD
:103D60007F4FC7010E94B211803209F058C089818B
:103D7000882309F454C0853E79F38E3269F38C852B
:103D800083FDEACF22961FAE1EAE22978AE891E00D
:103D90009FAF8EAF24961FAE2497FE01319690E020
:103DA00080E03EE22191203291F0883041F4ABE591
:103DB000B0E0AC0FBD1FA90FB11D3C939F5FABE5F9
:103DC000B0E0AC0FBD1FA90FB11D2C939F5F8F5F9B
:103DD0008B3041F7EBE5F0E0EC0FFD1FE90FF11D33
:103DE00010826091BF067091C006AE01455A5F4FC8
:103DF000CE01CE960E949A1D882389F0BE01625C96
:103E00007F4FCE0181960E94A214AE01455A5F4FAA
:103E1000BE016F5D7F4FC8010E94CB2403C0C80163
:103E20000E94B824C801C959DF4F0FB6F894DEBF0D
:103E30000FBECDBFDF91CF911F910F91FF90EF90FB
:103E40000895E0919106F09192060190F081E02DA5
:103E5000682F81E996E00994EF92FF920F931F93E8
:103E6000CF93DF93C82FD62FF72EE42E60919803BF
:103E7000082F10E080919903262F30E0280F311D84
:103E80002017310731F480E00E947A228EE30E94ED
:103E9000211F90919903C91790F1091B1109023054
:103EA00011056CF56C2F691B81E00E947A220D2FA1
:103EB0001F2DD25FFD2EF01AF8016491662341F0A8
:103EC00041E081E996E00E9400060F5F1F4FF2CFAC
:103ED000FF2029F080E20E94211FFA94F9CF8091FF
:103EE00099036C2F681B8FE00E947A228E2DDF9140
:103EF000CF911F910F91FF90EF900C94211FDF91B4
:103F0000CF911F910F91FF90EF9008952F923F92C4
:103F10004F925F926F927F928F929F92AF92BF92D9
:103F2000CF92DF92EF92FF920F931F93CF93DF9385
:103F3000CDB7DEB7C656D1090FB6F894DEBF0FBEB7
:103F4000CDBF4C016B015E018EE1A80EB11C62E792
:103F500076E0C5010E94A2141C821B828AE891E0CF
:103F60009A8389831E823601FE0131967F012501E5
:103F70001F016FE270E0C3010E94DB2F0097E9F19F
:103F8000F30120812F3221F4FFEF6F1A7F0AF1CF66
:103F900086198D3008F08CE0082F10E0A801B301DD
:103FA000CE01885A9F4F0E94ED2FE8E5F0E0EC0F1C
:103FB000FD1FE00FF11F1082C7010E94F512AE0134
:103FC000485A5F4FB201C7010E949A1D81110AC071
:103FD0001EAE1DAE8AE891E09CAF8BAF21961FAE5E
:103FE000219717C0600E711EC2010E94F512942D18
:103FF000852D2701E92EF82EBCCFC3018C199D0910
:10400000A7969FAF8EAFA797B201CE01CB960E9425
:10401000A214A796EEADFFADA797CE0EDF1EF60158
:104020008081811109C0BE01655C7F4FC1010E9482
:10403000A2144EEB51E02DC019A218A28AE891E01B
:104040009F8F8E8F1BA221968FAD2197811104C067
:10405000C4010E94B82421C08250A601823040F4DD
:1040600062E776E0C5010E949A1D81110DC0F0CF74
:10407000BE01655C7F4FC5010E949A1D882341F3F4
:10408000CE01CB960E94F512B501C1010E94A21487
:10409000A601B101C4010E94CB24C401CA59DF4F5B
:1040A0000FB6F894DEBF0FBECDBFDF91CF911F9149
:1040B0000F91FF90EF90DF90CF90BF90AF909F90C7
:1040C0008F907F906F905F904F903F902F900895CA
:1040D0008F929F92AF92BF92CF92DF92EF92FF9218
:1040E000CF93DF93C82F88E496E090939703809353
:1040F0009603CC2369F1C53010F080E00DC140E09B
:1041000060E070E0CB010E94430E8823B1F320E110
:10411000C29FC001112487569C4FFC01E254FE4F00
:1041200020812F7751F73C964081518162817381C4
:10413000443651056105710500F33497C080D18084
:10414000E280F380C114D104E104F10421F4D5CF5D
:10415000C12CD12C760140E0C701B6010E94430E6C
:10416000882359F28091B4039091B5038115924050
:1041700021F6A091B903AA2309F4BFCF6091B70338
:104180007091B8036115710509F4B7CF2091B6039A
:10419000222309F4B2CFA09366062093580680E04C
:1041A00030E0E1E0F0E0C82FAF01082E02C0440F7C
:1041B000551F0A94E2F72417350741F0982F8F5FB7
:1041C000983089F789E08093610697CF80936106E4
:1041D0002091BF033091C0032115310519F040E053
:1041E00050E008C02091CD033091CE034091CF0321
:1041F0005091D0032093590630935A0640935B06A2
:1042000050935C0646015701860E971EA11CB11CF7
:104210008092670690926806A0926906B0926A063C
:10422000E091BA03F091BB03F0936D06E0936C0646
:10423000B0E00E94722E860E971EA81EB91E8092B4
:104240006E0690926F06A0927006B092710685E09D
:10425000EE0FFF1F8A95E1F7E150FE4FEF2FFF278A
:10426000E6958E0E9F1EA11CB11C80926206909254
:104270006306A0926406B09265062091BC0330915B
:10428000BD032115310521F0A90160E070E008C0EF
:104290004091C9035091CA036091CB037091CC0344
:1042A000D701C60188199909AA09BB09840F951F6E
:1042B000A61FB71F04C0B695A79597958795CA9571
:1042C000D2F780935D0690935E06A0935F06B0934D
:1042D0006006853F2FE09207A105B10510F48CE040
:1042E00018C0853F9F4FA105B10510F480E111C0B2
:1042F0008091D5039091D603A091D703B091D803B4
:1043000080936E0690936F06A0937006B09371062B
:1043100080E280936B0681E0DF91CF91FF90EF9078
:10432000DF90CF90BF90AF909F908F900895CF93E4
:1043300080913601803121F08F3F09F0D9C004C04F
:10434000E9E1F3E0C49174C080E180933601E9E1D2
:10435000F3E0E491EF3F09F4CBC0E13011F1E2303A
:1043600009F442C0E11163C014BC15BC84B582607D
:1043700084BD85B5816085BDE5E1F3E0E491F0E0C1
:10438000EE0FFF1FE550FD4F859194919093A00390
:1043900080939F03E7EFF2E0E491E0939E03C0E097
:1043A00049C0109280001092810080918100886045
:1043B0008093810080918100816080938100E5E19C
:1043C000F3E0E491F0E0EE0FFF1FE550FD4F859123
:1043D000949190939D0380939C03E7EFF2E0E49126
:1043E000E0939B03C1E026C01092B0001092B10090
:1043F0008091B00082608093B0008091B1008160B4
:104400008093B100E5E1F3E0E491F0E0EE0FFF1FEF
:10441000E550FD4F85919491909391038093900383
:10442000E7EFF2E0E491E0938F03C2E003C0CE2F08
:10443000C7FD5EC061E080E10E94240BCC2351F0F7
:10444000C23001F58091B100887F82608093B10015
:1044500087EC3BC085B5887F826085BD87EC87BDD2
:1044600084EF91E0A0E0B0E08093A5039093A603D1
:10447000A093A703B093A80380916E0082608093FD
:104480006E0036C0C130F1F480918100887F816078
:10449000809381008FE396E0909389008093880059
:1044A00084EF91E0A0E0B0E08093A1039093A20399
:1044B000A093A303B093A40380916F0082608093C4
:1044C0006F0016C0C230A1F48FE38093B30084EF75
:1044D00091E0A0E0B0E08093920390939303A093C7
:1044E0009403B09395038091700082608093700074
:1044F000CF910895CF93DF93CDB7DEB728970FB64E
:10450000F894DEBF0FBECDBF28E0EAE5F1E0DE01A2
:10451000119601900D922A95E1F72091A406621759
:1045200010F06FEF620FFE013196E60FF11DE60FFE
:10453000F11D9081682F690F606881E996E02896E7
:104540000FB6F894DEBF0FBECDBFDF91CF910C94B4
:104550009A0A0F931F93CF93DF93EC01623018F008
:104560008F8588608F876B8B1C8A8BE39DE001971A
:10457000F1F760E08C810E94F40A60E08E810E9475
:10458000F40A8D818F3F19F060E00E94F40A6F8574
:1045900064FD1DC063E0CE010E94C9050BE416E472
:1045A000C8010197F1F763E0CE010E94C905C80177
:1045B0000197F1F763E0CE010E94C90583E592E01F
:1045C0000197F1F762E0CE010E94C90516C0606252
:1045D000CE010E949A0A8BE496E40197F1F76F8569
:1045E0006062CE010E949A0A83E592E00197F1F79A
:1045F0006F856062CE010E949A0A6F856062CE016B
:104600000E949A0A84E0888B6CE0CE010E949A0A8C
:10461000CE010E949D0A82E0898B66E0CE01DF9187
:10462000CF911F910F910C949A0AEF92FF920F93E2
:104630001F93CF93DF931F92CDB7DEB7162F8770EE
:1046400028E0829FC0011124682F606481E996E010
:1046500079830E949A0AE12E7981F72E8701085FFB
:104660001F4FF70161917F0181E996E00E945F068B
:10467000E016F106B1F70F90DF91CF911F910F91E6
:10468000FF90EF900895CF92DF92EF92FF926B012F
:104690007C01E091B905F091BA0582E08083C114F4
:1046A00081EED806E104F104B1F060E079E08DE339
:1046B00090E0A70196010E944A2EDA01C9010197F4
:1046C000A109B109B695A795979587959C012115E4
:1046D00080E13807B8F0E091B905F091BA05108291
:1046E00060E874E88EE190E0A70196010E944A2EEE
:1046F000DA01C9010197A109B109B695A795979566
:1047000087959C01E091B505F091B6053083E09165
:10471000B705F091B80520831092C105E091BD0561
:10472000F091BE0586E08083E091BB05F091BC0569
:10473000808180618083E091BB05F091BC05808120
:1047400088608083E091BB05F091BC058081806822
:104750008083E091BB05F091BC0580818F7D8083D3
:10476000FF90EF90DF90CF900895E091BF06F09119
:10477000C006309759F08581823040F0168217824A
:104780001086118612861386148615860895CF9397
:10479000DF93EC016A8B8091370190913801A091F1
:1047A0003901B0913A018E879F87A88BB98B80E23F
:1047B000689FF0011124E755FC4F4489558960E05A
:1047C00070E0BA01552744274F8B588F698F7A8F35
:1047D000828D938DA0E0B0E0482B592B6A2B7B2B68
:1047E0004F8B588F698F7A8F8385887151F4848DB0
:1047F000958DA68DB78D8B8B9C8BAD8BBE8B81E001
:104800000EC0803111F080E015C09E012D5E3F4F3B
:104810008B8D9C8D0E94B00F8823A9F384E08D833B
:1048200081E08C831E821F82188619861A861B8659
:104830001C861D86DF91CF910895CF93DF931F9241
:10484000CDB7DEB76983DC01ED91FC910280F38185
:10485000E02D41E050E0BE016F5F7F4F09950F9062
:10486000DF91CF910895FC01818D928D009711F019
:104870000C94B7120895CF93DF93EC01898D9A8D34
:10488000009739F481E090E09B838A8380E090E098
:104890000BC0FC01138212820E940113E98DFA8D74
:1048A00022813381232B71F7DF91CF910895CF932C
:1048B000DF93EC01898D9A8D009741F00E94F512EB
:1048C000898D9A8D0E94212F1A8E198EDF91CF919A
:1048D0000895DC015996ED91FC915A97309729F093
:1048E0006389748985899689089560E070E0CB01B9
:1048F0000895DC015996ED91FC915A97309729F073
:10490000628573858485958508956FEF7FEFCB0170
:104910000895CF92DF92EF92FF92CF93DF93FC0145
:10492000218D328D232BD9F0EC010E9469246B017B
:104930007C01CE010E947924A7019601261B370B2A
:10494000480B590BDA01C901811530E89307A1051D
:10495000B10538F08FEF9FE7A0E0B0E002C080E043
:1049600090E0DF91CF91FF90EF90DF90CF9008958E
:10497000FC011382128288EE93E0A0E0B0E0848311
:104980009583A683B7838EEA91E091838083128E0C
:10499000118E14860895EF92FF920F931F93CF9379
:1049A000DF93EC017B018A011B821A8288EE93E07F
:1049B000A0E0B0E08C839D83AE83BF838EEA91E05C
:1049C000998388838DE190E00E948C2E9A8F898F45
:1049D000009779F02DE1F701DC0101900D922A9505
:1049E000E1F74CE050E0B801CE010C960E94ED2FAB
:1049F000188EDF91CF911F910F91FF90EF90089546
:104A0000CF93DF931F92CDB7DEB741E050E0BE01F8
:104A10006F5F7F4F0E94B211019719F4898190E076
:104A200002C08FEF9FEF0F90DF91CF910895FC01AF
:104A3000818D928D009711F00C9400258FEF9FEFE0
:104A400008950F931F93CF93DF93FC01818D928D77
:104A50000097B9F0EF010E9400258C010F3F8FEF06
:104A6000180791F0898D9A8DFC01428553856485E4
:104A7000758541505109610971090E941910C801D9
:104A800005C080E090E002C08FEF9FEFDF91CF91F3
:104A90001F910F910895CF93DF93CDB7DEB7A19704
:104AA0000FB6F894DEBF0FBECDBF789484B5826098
:104AB00084BD84B5816084BD85B5826085BD85B5C2
:104AC000816085BD80916E00816080936E00109240
:104AD00081008091810082608093810080918100BB
:104AE000816080938100809180008160809380004C
:104AF0008091B10084608093B1008091B0008160AA
:104B00008093B00080917A00846080937A008091D5
:104B10007A00826080937A0080917A00816080932D
:104B20007A0080917A00806880937A001092C100A8
:104B300060E072EC81E090E00E94432380E090E02E
:104B40000E94C72C8E3FD1F481E090E00E94C72CD8
:104B500090E0A0E0B0E080938A0290938B02A09353
:104B60008C02B0938D0283E090E00E94C72C80936A
:104B7000720284E090E00E94C72C28C06EEF80E0B3
:104B800090E00E94680364E081E090E00E94680386
:104B900061E082E090E00E94680360E083E090E0E2
:104BA0000E94680361E084E090E00E94680384E072
:104BB00090E0A0E0B0E080938A0290938B02A093F3
:104BC0008C02B0938D021092720281E08093710288
:104BD00080918A0290918B02A0918C02B0918D02FB
:104BE00082309105A105B105E1F06CF40097A105B3
:104BF000B10591F00197A105B105C1F460E07BE436
:104C000080E090E017C00397A105B10579F460E05A
:104C100071EE80E090E00EC060E875E280E090E028
:104C200009C060E076E980E090E004C060E072ECEA
:104C300081E090E00E94432360E082E00E94240B28
:104C400060E083E00E94240B61E082E00E94F40AAD
:104C500061E083E00E94F40A24EC31E03093020129
:104C600020930101809169008C7F816080936900AD
:104C7000E89A309304012093030180916900837FB7
:104C8000846080936900E99A80916C0083608093CE
:104C90006C00D99A809168008260809368000E94BD
:104CA000990380931D0165E171E081E00E94152365
:104CB0006DE071E082E00E94152365E071E083E021
:104CC0000E94152362E081E996E00E94A9226BE030
:104CD00072E081E996E00E94171D61E080E00E9489
:104CE0007A226BE172E081E996E00E94171D10E1E3
:104CF0006CE181E996E00E949A0A1150C9F710E12F
:104D000068E181E996E00E949A0A62E370E080E03F
:104D100090E00E94600B115099F760E273E080E030
:104D200090E00E94600B81E996E00E949D0A0E943B
:104D300062021092850210928402109287021092F1
:104D4000860210928902109288020E946A03809360
:104D5000830236E2C32E31E0D32E8091A40281116A
:104D600030C08091A302882329F01092A3020E94F0
:104D7000F31460C20E949A0B00919F021091A0024E
:104D80002091A1023091A202DC01CB01801B910B8A
:104D9000A20BB30B81319742A105B10508F44AC2B9
:104DA0008091A502882309F445C21092A5021092B1
:104DB0008E0281E996E00E949D0A80E00E94E10651
:104DC00039C2813009F036C26FE872E0CE01019637
:104DD0000E94861F8B819C819093C4068093C3069A
:104DE0008D819E81AF81B8858093C5069093C6065C
:104DF000A093C706B093C80689859A85AB85BC8504
:104E00008093C9069093CA06A093CB06B093CC06B4
:104E10008DE0FE013D96ADECB6E001900D928A95D5
:104E2000E1F78A8D9B8D9093DB068093DA061092D2
:104E300089031092880301E010E028E6E22E23E0C7
:104E4000F22E8091A402823069F48091A30288231B
:104E500021F01092A3020E94F3148091A4028130E9
:104E6000A1F715C0811113C06BE272E089EA95E0E9
:104E70000E94171D1092A5021092A6021092A7027E
:104E80001092A8021092A9020E94F314CDC1809141
:104E9000A302882321F01092A3020E94F3148091B0
:104EA000A502811116C00E949A0B40908B0350906E
:104EB0008C0360908D0370908E03DC01CB0184190C
:104EC0009509A609B709893E9340A105B10508F0E7
:104ED000B4C181EC96E00E9479242B013C0181EC65
:104EE00096E00E946924461657066806790609F47A
:104EF0008EC02091890329A3322E339435E03312DA
:104F000002C080E001C0832D909188038913C4C141
:104F10007EC081EC96E00E9421258832D9F481EC94
:104F200096E00E9469244B015C0181EC96E00E94AE
:104F3000792486169706A806B90631F081EC96E02A
:104F40000E9417250A9759F781EC96E00E94892460
:104F5000892BF9F681EC96E00E9479242B013C0123
:104F600081EC96E00E946924A3019201205E3F4FEC
:104F70004F4F5F4F621773078407950708F09AC178
:104F8000262E241809F494C198E6492E93E0592E50
:104F9000742C7E18721408F089C181EC96E00E948E
:104FA0008924892B09F47EC181EC96E00E941725A3
:104FB000F20180838A3009F075C155245394570C4F
:104FC0005092670325E0321201C0312C8091880392
:104FD0003816E9F029A131E2239FC0011124FC0118
:104FE000EE53FD4F5082FC01ED53FD4F3F0140E277
:104FF00050E06FEF70E0CF010E94D42F452D50E0BC
:1050000068E673E0C3010E94CB2F30928903013020
:1050100009F0D0C00091880380918903801709F4BA
:10502000A4C0F1E20F9FB0011124FB01EE53FD4F2C
:105030001081612E712C6D537D4FA301CE0101961D
:105040000E94CB2F0F5F053009F400E00093880326
:105050001E3F09F48AC0A301BE016F5F7F4F89EA3A
:1050600095E00E944D1B7EEF710F90E020E080E004
:1050700068E0871708F09EC0482F50E0823050F05B
:10508000EFEFFFEFEC0FFD1FE40FF51F30813E3215
:1050900009F420E0E1E0F0E0EC0FFD1FE40FF51F64
:1050A0003081432F4F7D483549F4EEE2F1E0262F61
:1050B00011922A95E9F78F5F90E027C0493541F4B6
:1050C000F601262F11922A95E9F78F5F90E02DC007
:1050D0004A3549F4EEE1F1E0262F11922A95E9F7DD
:1050E0008F5F90E032C0303269F0333559F036349A
:1050F00049F0213051F030F02230B9F0233009F07E
:10510000B8CF23C08F5F20E0B4CFE92FF0E0E25D9D
:10511000FE4FA1E0B0E0AC0FBD1FA80FB11D2C9158
:1051200020838F5F9F5F21E0A4CFE92FF0E0EA5D4D
:10513000FE4FA1E0B0E0AC0FBD1FA80FB11D2C9138
:1051400020838F5F9F5F22E094CFE92FF0E0E25E43
:10515000FE4FA1E0B0E0AC0FBD1FA80FB11D2C9118
:1051600020838F5F9F5F23E084CF81EC96E00E94D5
:1051700079242B013C0181EC96E00E9469244B01CB
:105180005C01C301B2010E944F2D2B013C01C501FE
:10519000B4010E944F2D9B01AC01C301B2010E94DA
:1051A000DD2C20E030E048EC52E40E94DD2D0E942E
:1051B000531C1EEF0E949A0B2B013C0189EA95E0DB
:1051C0000E94871B8B3631F480918A038F5F809316
:1051D0008A0302C08A33C1F380918A03823021F4AA
:1051E00010928A0301E00DC00E949A0BDC01CB01F2
:1051F00084199509A609B7094597A105B105F0F2EB
:1052000000E081EC96E00E9479242B013C0181ECC6
:1052100096E00E946924461657066806790609F04A
:1052200010CE1E3F09F00DCE1092A40281EC96E044
:105230000E9457240E94491C90CD81EC96E00E9468
:1052400079242B013C0181EC96E00E9469244B01FA
:105250005C01C301B2010E944F2D2B013C01C5012D
:10526000B4010E944F2D9B01AC01C301B2010E9409
:10527000DD2C20E030E048EC52E40E94DD2D0E945D
:10528000531C0E949A0B60938B0370938C03809342
:105290008D0390938E031DCE80E2F70111928A95C3
:1052A000E9F752CEFFEF4F1A5F0A72CE522C88CE2A
:1052B000512C86CE80E2282E67CE1092AC0510923B
:1052C000AB0588EE93E0A0E0B0E08093AD0590934D
:1052D000AE05A093AF05B093B00586E691E090933C
:1052E000AA058093A90585EC90E09093B60580937C
:1052F000B50584EC90E09093B8058093B70580ECF9
:1053000090E09093BA058093B90581EC90E090937A
:10531000BC058093BB0582EC90E09093BE05809322
:10532000BD0586EC90E09093C0058093BF05109278
:10533000C2051092C3051092C4051092C50580E500
:10534000809346061092470610924D0610924E0624
:10535000109251061092530682E090E0A0E0B0E077
:105360008093540690935506A0935606B093570623
:1053700010926B0610927506109274068AE891E0FE
:10538000909373068093720610927706109294069B
:105390001092930686E991E090939206809391068D
:1053A00089E0809395068FEF8093960688E080933E
:1053B000970687E08093980686E08093990685E0BB
:1053C00080939A0684E080939B0610929C0610922C
:1053D0009D0610929E0610929F0661E089E00E9451
:1053E000240B809196068F3F19F061E00E94240BF8
:1053F00061E0809197060E94240B1092A00661E064
:1054000081E996E00E94A92286EA96E00E94B824EB
:1054100081EC96E00C94B824EF920F931F93CF93F6
:10542000DF93E80147FD02C034E001C034E1E42F1E
:10543000440FFF0BF7FF03C0F195E195F109E32E4F
:10544000022F2E2FAE010E94512ACE01DF91CF9163
:105450001F910F91EF900895BB274A3031F49923A3
:1054600022F4BDE2909581959F4F0C94382ABB277A
:10547000FB015527AA27880F991FAA1FA41710F010
:10548000A41B83955051B9F7A05DAA3308F0A95D1C
:10549000A193009779F7B111B1931192CB010C94BC
:1054A000B72C4F925F926F927F929F92AF92BF9272
:1054B000CF92DF92EF92FF920F931F93CF93DF93E0
:1054C000CDB7DEB729970FB6F894DEBF0FBECDBFBC
:1054D0006A01122FB02E2BE3201720F0FF24F39443
:1054E000F00E02C0BCE3FB2E0F2D27E0AE014F5F94
:1054F0005F4F0E94DF2BAC018981982F997091300A
:1055000031F0E1FC06C0E0FE06C090E205C09DE27D
:1055100003C09BE201C090E0EE2DE07183FF3CC030
:10552000911102C083E001C084E0811718F4212F9B
:10553000281B01C020E0E1110BC0F601822F30E2F0
:10554000882319F031938150FBCFC20ED11C20E08B
:10555000992329F0D6019C93F60131966F01C6017B
:105560000396E2FE0AC03EE4D6013C9341E4119664
:105570004C93119712963C9306C03EE6F601308399
:1055800041E641833283FC01322F40E2332309F4A8
:1055900042C041933150FACF82FF44C0911102C002
:1055A00083E001C084E0811718F4212F281B01C07B
:1055B00020E0E1110BC0F601822F30E2882319F0C0
:1055C00031938150FBCFC20ED11C20E0992329F0EA
:1055D000D6019C93F60131966F01C6010396E2FE57
:1055E0000BC039E4D6013C933EE411963C931197ED
:1055F00036E412963C9307C039E6F60130833EE666
:10560000318336E63283FC01322F40E2332319F036
:1056100041933150FBCFFC01E20FF11D10828EEF60
:105620009FEFB7C0F1E0911101C0F0E06F2F70E083
:105630001416150624F49A012F5F3F4F02C021E093
:1056400030E0260F371FBB2029F06B2D70E06F5F15
:105650007F4F02C060E070E0260F371F612F70E0BF
:10566000261737071CF4121B212F01C020E03E2D06
:10567000387159F4D601322F60E2332319F06D935B
:105680003150FBCFC20ED11C20E0FF2331F0D601F8
:105690009C93B6016F5F7F4F6B01E1110BC0F60168
:1056A000922F30E3992319F031939150FBCFC20E22
:1056B000D11C20E09F2D940F3A81782F7071A72E76
:1056C00084FF03C0313309F49150191624F4993042
:1056D00018F098E001C091E0E42F852F57FF02C039
:1056E000E0E080E06E2F782FE0E0F0E0AEE29A2E6E
:1056F0003A01691A71082A01461A570A0B2D10E05F
:105700001195019511096F3F8FEF780729F4D601A4
:105710009C92C60101966C014617570784F06616E5
:1057200077066CF47F01E40CF51CA1E0B0E0AC0F4F
:10573000BD1FEA0EFB1ED7011196BC9002C090E37C
:10574000B92E615071093196C60101967C0160172E
:10575000710724F0D601BC926C01D5CF6417750790
:1057600041F4363320F4353321F4A11002C081E333
:10577000B82EF601B082F701822F90E2882319F04B
:1057800091938150FBCFF701E20FF11D108280E071
:1057900090E029960FB6F894DEBF0FBECDBFDF9123
:1057A000CF911F910F91FF90EF90DF90CF90BF901E
:1057B000AF909F907F906F905F904F9008952830AA
:1057C00008F027E03327DA01990F311D87FD91603A
:1057D00000966105710539F432602E5F3D9330E328
:1057E0002A95E1F708959F3F30F0803871056105F3
:1057F00009F03C5F3C5F3D93913008F08068911D5B
:10580000DF93CF931F930F93FF92EF92192F987FFF
:105810009695E92F96959695E90FFF27E053FF4F50
:1058200099273327EE24FF24A701E7010590089468
:10583000079428F4360FE71EF81E491F511D660F06
:10584000771F881F991F0694A1F70590079428F4E5
:10585000E70EF81E491F561FC11D770F881F991F9D
:10586000661F0694A1F70590079428F4F80E491FC7
:10587000561FC71FD11D880F991F661F771F0694DB
:10588000A1F70590079420F4490F561FC71FD81F92
:10589000990F661F771F881F0694A9F784911095AA
:1058A000177041F0D695C79557954795F794E794AB
:1058B0001A95C1F7E6E7F0E06894159015913591D7
:1058C0006591959105907FE27395E118F10A430B7C
:1058D000560BC90BD009C0F7E10CF11E431F561F30
:1058E000C91FD01D7EF4703311F48A95E6CFE89479
:1058F000015030F0080F0AF40027021708F4202F97
:105900002395022F7A3328F079E37D932A95E9F7DE
:1059100010C07D932A9589F60694979567953795DB
:1059200017951794E118F10A430B560BC90BD009D0
:1059300098F023957E9173957A3308F070E37C9309
:105940002013B8F77E9170617D9330F0839571E3F9
:105950007D9370E32A95E1F71124EF90FF900F916A
:105960001F91CF91DF91992787FD90950895DC01D4
:10597000FC01672F71917723E1F7329704C07C9186
:105980006D9370836291AE17BF07C8F30895F999BC
:10599000FECF92BD81BDF89A992780B50895262F34
:1059A000F999FECF1FBA92BD81BD20BD0FB6F89404
:1059B000FA9AF99A0FBE019608950E94F12C0C9460
:1059C000A32D0E949C2D58F00E94952D40F029F4A3
:1059D0005F3F29F00C948C2D51110C94D72D0C9411
:1059E000922D0E94B42D68F39923B1F3552391F3BE
:1059F000951B550BBB27AA2762177307840738F03E
:105A00009F5F5F4F220F331F441FAA1FA9F335D09A
:105A10000E2E3AF0E0E832D091505040E695001C4E
:105A2000CAF72BD0FE2F29D0660F771F881FBB1F08
:105A3000261737074807AB07B0E809F0BB0B802DE6
:105A4000BF01FF2793585F4F3AF09E3F510578F012
:105A50000C948C2D0C94D72D5F3FE4F3983ED4F337
:105A6000869577956795B795F7959F5FC9F7880FE6
:105A7000911D9695879597F90895E1E0660F771F38
:105A8000881FBB1F621773078407BA0720F0621BC9
:105A9000730B840BBA0BEE1F88F7E0950895E8941A
:105AA00009C097FB3EF490958095709561957F4F66
:105AB0008F4F9F4F9923A9F0F92F96E9BB27939514
:105AC000F695879577956795B795F111F8CFFAF424
:105AD000BB0F11F460FF1BC06F5F7F4F8F4F9F4F55
