:100000000C9427010C941C1D0C94F51C0C94C70433
:100010000C9471040C94D1040C944F010C94431D66
:100020000C944F010C944F010C944F010C944F0110
:100030000C944F010C944F010C944F010C944F0100
:100040000C94AB1C0C944F010C94B7110C949111AF
:100050000C944F010C944F010C944F010C944F01E0
:100060000C944F010C944F01AD0A300A330A3A0A3E
:10007000570A550A700A730A760A4D6F7665205A38
:10008000004D6F76652059004D6F7665205800420F
:1000900061636B004E6F20534420436172640043E0
:1000A0004E432046726F6D2053440053657474694B
:1000B0006E6700436F6E74726F6C004D61696E0005
:1000C00053746F7020434E4300526573756D652005
:1000D000434E4300506175736520434E4300436FA8
:1000E0006E74726F6C004D61696E00556E6C6F635B
:1000F0006B204772626C004772626C204D6F6465C2
:1001000000476F20546F204F726967696E00536516
:1001100074204F726967696E005A6F726520506F64
:1001200073004D6F76652041786973005370696E76
:10013000646C65205370656564004175746F204878
:100140006F6D65004261636B0042757A7A6572007B
:100150004D656E75204D656D6F72790042617564F5
:100160002052617465004261636B004261636B0001
:100170004E6F00596573004261636B004E6F00590A
:100180006573004261636B003131353230300035C8
:100190003736303000333834303000313932303097
:1001A0000039363030004261636B004C6173657218
:1001B000005370696E646C65004261636B004D6F43
:1001C000766520302E316D6D004D6F766520316D76
:1001D0006D004D6F76652031306D6D004261636B4F
:1001E000007C3C3E5E2B3D3F2F5B5D3B2C2A225C1E
:1001F0000000000000240027002A00000000002367
:10020000002600290000000008000201000003048D
:100210000700000000000000000102040810204058
:1002200080010204081020010204081020000000D0
:1002300000250028002B0004040404040404040224
:1002400002020202020303030303030269241124CE
:100250001FBECFEFD8E0DEBFCDBF12E0A0E0B1E01F
:10026000ECEFF5E502C005900D92AE36B107D9F777
:1002700027E0AEE6B2E001C01D92A231B207E1F77D
:1002800011E0C7E2D1E004C02197FE010E94782965
:10029000C632D107C9F70E9416250C94FC2A0C948B
:1002A0000000089580E090E00895CF93DF9382E00E
:1002B0000E942A20EC0183E00E942A20CC0FDD1F3F
:1002C0008C2B9D2B2091720230917302220F331FD1
:1002D000220F331F282B392B2D30310549F02430C4
:1002E000310531F02230310519F02B30310529F478
:1002F00040918E024F5F40938E022E30310549F0BF
:10030000A901475051094230510518F021303105FB
:1003100029F420918E02215020938E029093730233
:100320008093720281E080930606DF91CF91089559
:10033000CF93DF93EC0160E08E810E94532061E057
:100340008E810E94532060E08E810E9453208BE8B2
:1003500091E00197F1F7DF91CF9108950F931F93EB
:10036000CF93DF938C01EB014AE00E940B29FE0141
:1003700001900020E9F73197BF016C1B7D0B862FA0
:100380007727DE01A60FB71F17FD0AC0813051F095
:1003900011961C921197FB013197EC0FFD1F19C0AC
:1003A000823079F412961C921297FB013197EC0F70
:1003B000FD1F808111968C9311978EE28C9380E3C0
:1003C0000BC011961C92119761507109FE01E60F46
:1003D000F71F80818C938EE28083DF91CF911F91F4
:1003E0000F910895EF92FF920F931F93CF93DF9396
:1003F000CDB7DEB728970FB6F894DEBF0FBECDBFDE
:10040000809107068E010F5F1F4F60E0811168C069
:100410000E94B01888E50E94D31B98E0F92EF801DD
:100420008F2D11928A95E9F7B8018091E705909197
:10043000E8050E94AE01F80101900020E9F731972C
:10044000E01BF10B27E0E22E60E08E2D8E1B0E9458
:10045000B018B80189E995E00E948F1160E088E04A
:100460000E94B01889E50E94D31BF8018F2D1192CC
:100470008A95E9F7B8018091E9059091EA050E9413
:10048000AE01F80101900020E9F7802F8E1B60E09B
:10049000805F0E94B018B80189E995E00E948F1131
:1004A00061E080E00E94B0188AE50E94D31BF80149
:1004B0001192FA94E9F7B8018091EB059091EC055F
:1004C0000E94AE01F80101900020E9F73197E01B8E
:1004D000F10B61E08E2D8E1B0E94B018B8014BC04D
:1004E00080E00E94B01888E50E94D31BE0EFF6E0A0
:1004F00001900020E9F73197E05FF64087E0F82EA1
:1005000060E08F2D8E1B0E94B01860EF76E089E9C5
:1005100095E00E948F1160E088E00E94B01889E5A4
:100520000E94D31BE8EEF6E001900020E9F7319736
:10053000E85EF64060E08FE08E1B0E94B01868EE27
:1005400076E089E995E00E948F1161E080E00E94E9
:10055000B0188AE50E94D31BE0EEF6E0019000207F
:10056000E9F73197E05EF64061E08F2D8E1B0E9427
:10057000B01860EE76E089E995E00E948F1161E0A5
:1005800088E00E94B0186EEB71E089E995E00E9466
:100590008F1188E0F80111928A95E9F7B8018091EE
:1005A000DE069091DF060E94AE01F8010190002066
:1005B000E9F7802F8E1B61E0815F0E94B018B801BF
:1005C00089E995E00E948F1185E20E94D31B28964D
:1005D0000FB6F894DEBF0FBECDBFDF91CF911F9154
:1005E0000F91FF90EF9008950C9448291F93CF939B
:1005F000DF93CDB7DEB76B970FB6F894DEBF0FBEB3
:10060000CDBF10E0CE0101960E940D1CEA8DFB8D3E
:10061000309719F40E94ED190DC085818823D1F31C
:10062000823018F41F3F31F01F5FCE0101960E9407
:10063000DB19E8CF812F6B960FB6F894DEBF0FBEA3
:10064000CDBFDF91CF911F9108958F929F92AF926E
:10065000BF92CF92DF92EF92FF921F93CF93DF93DF
:10066000CDB7DEB76B970FB6F894DEBF0FBECDBF28
:1006700061E08AE00E9482208FE00E942A20019798
:1006800019F480EC91E005C180917F05882321F069
:100690008AE795E00E94F61610925B0510925905C4
:1006A00010925605109255058AE0809354050E94D9
:1006B000DD216B017C0161E0809154050E94822064
:1006C00061E0809154050E9453201FB7F8948091F7
:1006D0007402811127C0E1E4F2E08491E3E2F2E0E8
:1006E0009491E82FF0E0EE0FFF1FEF50FE4FA59121
:1006F000B491EC91E92321F461E08AE00E94532057
:1007000061E08AE00E9482208CB580618CBD8CB54E
:1007100080648CBD61E08DE00E94822061E08BE00E
:100720000E948220809174028F5F809374021FBFA9
:1007300082E580934E0510924F0580914E05909171
:100740004F050E9452231AE08FEF0E942E23115072
:10075000D9F780E595E00E94552320E030E0A9011B
:1007600060E080E595E00E946B23182F80935A0586
:10077000813049F00E94DD216C197D09613D77408F
:1007800060F381E055C02AEA31E040E050E068E0E3
:1007900080E595E00E946B2382FF03C010935B0508
:1007A0000EC014E00E94352380935A051150D1F7F2
:1007B0008A3A11F082E03CC082E080935B05809130
:1007C0005B05823021F0812C912C540105C0812CD5
:1007D000912CA12C80E4B82E20E030E0A90167E341
:1007E00080E595E00E946B23A501940169E280E514
:1007F00095E00E946B23182F80935A05882349F0B7
:100800000E94DD216C197D09613D774028F388E065
:100810000FC080915B05823001F520E030E0A90136
:100820006AE380E595E00E946B23882341F086E02F
:100830008093550580E595E00E94232328C00E94FF
:100840003523807C803C19F483E080935B050E9413
:1008500035230E9435230E94352380E595E00E94D0
:10086000232380E580934E0510924F0581E00E947E
:100870007A1E882339F08AE795E00E94131E8823A8
:1008800031F00BC080E00E947A1E8111F4CF8BEC16
:1008900091E00E94671E11E011C082EE91E00E947B
:1008A000671E67EF71E0CE0101960E94E921BE014B
:1008B0006F5F7F4F8EEA95E00E94DC1B812F6B9665
:1008C0000FB6F894DEBF0FBECDBFDF91CF911F9161
:1008D000FF90EF90DF90CF90BF90AF909F908F9060
:1008E00008951F920F920FB60F9211240F931F932A
:1008F0002F933F934F935F936F937F938F939F9328
:10090000AF93BF93EF93FF930E94DD2100916E029E
:1009100010916F022091700230917102DC01CB01C5
:10092000801B910BA20BB30B8C329140A105B1053A
:10093000D8F00E94DD2160936E0270936F02809365
:100940007002909371028EE00E942A20892B21F47C
:1009500081E080938F0205C08FE00E942A2080935F
:100960008C0281E080930606FF91EF91BF91AF91D9
:100970009F918F917F916F915F914F913F912F91B7
:100980001F910F910F900FBE0F901F9018951F92FF
:100990000F920FB60F9211240F900FBE0F901F9061
:1009A00018951F920F920FB60F9211240F900FBE41
:1009B0000F901F901895AF92BF92CF92DF92EF9257
:1009C000FF920F931F93CF93DF935C017C0187E02D
:1009D000E80EF11CC0E0D0E0062F10E0670161E0F6
:1009E000F70181917F010E948220B8010C2E02C084
:1009F000759567950A94E2F76170F60180810E940F
:100A000053202196C430D10549F7C501DF91CF911C
:100A10001F910F91FF90EF90DF90CF90BF90AF901C
:100A20000C949801AF92BF92CF92DF92EF92FF9217
:100A30000F931F93CF93DF93EC01F62E642F8C81DD
:100A40000E9453208D818F3F19F060E00E94532057
:100A50008F850F2D10E084FF2DC05E0187E0A80E6A
:100A6000B11CE12CF12C650161E0F50181915F0180
:100A70000E948220B8010E2C02C0759567950A94D9
:100A8000E2F76170F60180810E945320FFEFEF1AB8
:100A9000FF0A88E0E816F10431F7CE01DF91CF912B
:100AA0001F910F91FF90EF90DF90CF90BF90AF908C
:100AB0000C949801B80184E0759567958A95E1F7E3
:100AC000CE010E94DB046F2DCE01DF91CF911F91EB
:100AD0000F91FF90EF90DF90CF90BF90AF900C946C
:100AE000DB0441E00E94120581E090E00895DF926E
:100AF000EF92FF920F931F93CF93DF93C82F7B0149
:100B0000D42ED22F6091FF06082F10E0209100070D
:100B1000862F90E0820F911D8017910771F480E07D
:100B20000E94B0188D2D0E94D31B6091FF068FE0AC
:100B30000E94B0188D2F0E94D31B80910007C81708
:100B400000F1081B110902301105DCF46C2F681B41
:100B500081E00E94B018CEE0F7016491662351F065
:100B600041E089E995E00E941205C150FFEFEF1ABC
:100B7000FF0AF2CFCC2329F080E20E94D31BC150A0
:100B8000F9CFDF91CF911F910F91FF90EF90DF9000
:100B9000089521E041E06FE870E080E00E94770571
:100BA00022E04EE368E870E081E00E94770522E0F1
:100BB0004EE361E870E082E00E94770522E04EE3B8
:100BC0006AE770E083E00C9477058F929F92AF9272
:100BD000BF92CF92DF92EF92FF920F931F93CF932A
:100BE000DF93CDB7DEB7A1970FB6F894DEBF0FBE87
:100BF000CDBF811103C00E94F2016EC3813009F0A4
:100C00004FC08091070621E041E0811126C06BEBC7
:100C100070E00E94770522E04EE363EB70E081E034
:100C20000E94770522E04EE36BEA70E082E00E94CA
:100C3000770580912101811105C022E04EE36FE923
:100C400070E007C0813009F047C320E24EE364E959
:100C500070E083E00E9477053FC366EE70E080E0BD
:100C60000E94770520E24EE36EED70E081E00E9485
:100C7000770580910706813031F420E24EE364ED80
:100C800070E082E006C0823031F420E24EE369EC8D
:100C900070E00E94770520E24EE360EC70E0D9CF6F
:100CA000823009F0ABC080917D02823009F443C0EC
:100CB000833009F45BC0813009F00EC321E041E0CC
:100CC00064E471E080E00E94770520E24EE36AE38D
:100CD00071E081E00E94770520E24EE36CE271E072
:100CE00085E00E94770522E04EE362E271E083E056
:100CF0000E94770520E24EE369E171E084E00E9402
:100D0000770520E24EE36EE071E086E00E94770511
:100D100020E24EE361E071E087E00E94770522E087
:100D20004EE367EF70E088E00E94770520E24EE333
:100D30006BEE70E019C021E041E066E671E080E012
:100D40000E94770522E04EE36CE571E081E00E94AD
:100D5000770522E04EE360E571E083E00E947705CD
:100D600022E04EE369E471E082E074CF21E041E0EB
:100D70006BE671E080E00E94770501E010E0CE01B3
:100D800001960E940D1CEA8DFB8D309719F085812C
:100D9000811103C00E94ED199FC2823050F560910D
:100DA000FF067801FF2420910007862F90E0820F34
:100DB000911D8E159F05A9F480E00E94B0188EE366
:100DC0000E94D31B6091FF068FE00E94B01880E262
:100DD0000E94D31BBE01635F7F4F82EF95E00E94AC
:100DE000E62A602F80910007081708F050C20F5FB5
:100DF0001F4FCE0101960E94DB19C1CF833009F04D
:100E000051C180917D02813009F0B5C080917E0290
:100E1000853001F1883009F490C0833009F05CC25C
:100E200021E041E06CED71E080E00E94770522E076
:100E30004EE362ED71E081E00E94770522E04EE32F
:100E400069EC71E082E00E94770522E04EE36EEBF0
:100E500071E0FFCE90918D0280917502FAE09F9F24
:100E6000800D112487FD03C08093750202C010928B
:100E700075028091750285361CF084E680937502B8
:100E800060E080E00E94B01869EF71E089E995E0C8
:100E90000E948F1160E08BE00E94B018C090750234
:100EA0000C2C000CDD08EE08FF08F7FE23C08DE2D5
:100EB0000E94D31B22273327A9012C193D094E0973
:100EC0005F0919A2CE0181967C017AE0872E912CD0
:100ED000A12CB12CCA01B901A50194010E94562987
:100EE000605DF70162937F012115310541055105D0
:100EF00089F71AC0A701960119A2CE0181967C013B
:100F00006AE0862E912CA12CB12CCA01B901A50151
:100F100094010E945629605DF70162937F012115BB
:100F200031054105510589F7B70189E995E00E942E
:100F30007A1185E20E94D31BCFC1809100018823E2
:100F400021F0813029F413E004C010E203E002C074
:100F500010E200E221E041E069EB71E080E00E94F4
:100F60007705402F61EB71E081E00E94A81F412FBF
:100F70006BEA71E093C0823009F0AEC180917E02CD
:100F8000823009F470C0833009F451C0813009F017
:100F9000A3C18091ED059091EE05A091EF05B09170
:100FA000F00585309105A105B105A8F4FC01EB5AC7
:100FB000FE4FD080FC01E05BFE4FE080FC01E55B72
:100FC000FE4FF080FC01EA5BFE4F0081FC01EF5B0D
:100FD000FE4F108108C010E200E280E2F82E90E29D
:100FE000E92E20E2D22E21E041E066EA71E080E0C5
:100FF0000E9477054D2D61EA71E081E00E94A81FF3
:101000004E2D6BE971E082E00E94A81F4F2D65E92B
:1010100071E083E00E94A81F402F6FE871E084E038
:101020000E94A81F412F68E871E085E038C08091D8
:10103000E505882329F010E2813019F403E002C0AD
:1010400013E000E221E041E063E871E080E00E940B
:101050007705402F6FE771E081E00E94A81F412FC4
:101060006CE771E01BC08091E405882329F010E251
:10107000813019F403E002C013E000E221E041E016
:1010800067E771E080E00E947705402F63E771E039
:1010900081E00E94A81F412F60E771E082E00E947A
:1010A000A81F1AC18430B1F480917D02813009F00B
:1010B00013C180917E02833009F00EC180917F02BE
:1010C000823029F0833019F0813009F005C10E9487
:1010D000C90502C1853009F0FFC080917D028130D1
:1010E00009F0FAC080917E02833009F0F5C090913A
:1010F0007F02809180029130F9F4823069F0833070
:1011000099F0813009F07AC020918D0280917602A9
:1011100090917702F4E620C020918D0280917802B0
:101120009091790234E624C020918D0280917A0258
:1011300090917B02E4E628C0923079F5823089F004
:101140008330D9F0813009F059C020918D0280910F
:10115000760290917702FAE02F02800D911D112402
:101160002EC020918D0280917802909179023AE010
:101170002302800D911D112431C020918D02809198
:101180007A0290917B02EAE02E02800D911D1124DB
:1011900090937B0280937A025EC0933079F582301F
:1011A00099F0833001F1813049F520918D028091D1
:1011B000760290917702820F911D27FD9A95909368
:1011C00077028093760221C020918D02809178026F
:1011D00090917902820F911D27FD9A959093790243
:1011E0008093780225C020918D0280917A0290919F
:1011F0007B02820F911D27FD9A95CACF8230C1F0E4
:10120000833049F1813009F067C060E085E00E94D9
:10121000B01888E50E94D31B60E08AE00E94B018F5
:10122000BE016F5F7F4F809176029091770225C05B
:1012300060E085E00E94B01889E50E94D31B60E061
:101240008AE00E94B018BE016F5F7F4F80917802E4
:101250009091790212C060E085E00E94B0188AE5A2
:101260000E94D31B60E08AE00E94B018BE016F5F4D
:101270007F4F80917A0290917B020E94AE01BE0165
:101280006F5F7F4F89E995E00E948F1125C0E81AB2
:10129000F10822E0E216F1040CF0A9CD681B81E010
:1012A0000E94B0186E013DE0C30ED11CEEE0FE2E90
:1012B000F60161916F01662339F041E089E995E01B
:1012C0000E941205FA94F4CFFF2009F490CD80E239
:1012D0000E94D31BFA94F8CFA1960FB6F894DEBF04
:1012E0000FBECDBFDF91CF911F910F91FF90EF9077
:1012F000DF90CF90BF90AF909F908F9008950F9305
:101300001F93CF93DF93CDB7DEB768970FB6F894EE
:10131000DEBF0FBECDBF80918F02813009F04AC57C
:101320008091E40581110E94BE2010928F022091CD
:10133000DD06223009F47FC028F4222361F0213039
:10134000B1F038C5243009F413C408F440C1253085
:1013500009F46FC42FC581E08093DD0610928E02E0
:10136000109200071092FF0610928D0223C5409143
:101370000706309100078091FF06411134C0482FC5
:1013800050E0430F511D4130510559F01CF4452BDD
:10139000B1F110C54230510539F04330510531F0FB
:1013A00009C520937D0209C092E005C090912101FA
:1013B000911100C593E090937D029091E5059130E5
:1013C00041F43093A1028093990280918E02809320
:1013D000910210928E02109200071092FF06109256
:1013E0008D0282E05FC090E0830F911D82309105F5
:1013F00099F083309105E1F0892B09F0DBC410925C
:101400007D0210928E02109200071092FF06109239
:101410008D021092DD06CEC4413021F482E080932B
:1014200007069FC3423009F0C5C42093070699C33D
:1014300010920706BFC420917D02213009F058C0E8
:10144000909100078091FF06E82FF0E0E90FF11D71
:10145000E930F10508F0AEC4EC5CFF4F0C9478293C
:1014600060E072E002C064E072E081EB94E00E9410
:101470008F11A0C423E020937E022091E505213046
:1014800041F49093A20280939A0280918E028093FD
:10149000920210928E02109200071092FF06109294
:1014A0008D0283E08093DD0685C425E0E4CF68E00B
:1014B00072E081EB94E00E948F1166E172E081EBB3
:1014C00094E00E948F111092E8051092E7051092A7
:1014D000EA051092E9051092EC051092EB056AC43A
:1014E0006BE172E0C2CF62E272E0BFCF28E0C3CF0F
:1014F000223039F5409100073091FF06832F90E0AC
:10150000840F911D8130910561F01CF4892B29F124
:1015100051C48230910549F0039709F04BC483E030
:1015200001C081E080937E0202C020937E02809100
:10153000E505813009F0ADCF4093A20230939A02C5
:10154000A4CF233009F036C4209100078091FF0614
:1015500090E0820F911D892BF9F410927E02109277
:101560008E021092AA02109200071092FF061092AB
:101570008D0281E08093DD068091E505813009F0E0
:1015800019C48091A10280930007809199028093F1
:10159000FF068091910204C481E0809307061092B7
:1015A000DD0688E0E0EFF6E0DF01282F1D922A95A6
:1015B000E9F7E8EEF6E0DF01282F1D922A95E9F71A
:1015C000E0EEF6E0DF011D928A95E9F7F3C3809122
:1015D0007E02833009F05BC040917D02413009F00A
:1015E000BFC0309100072091FF06822F90E0830F4B
:1015F000911D8130910559F11CF4892B49F0B0C03F
:101600008230910539F1039709F0AAC083E023C025
:1016100010927F0210928E021092AA02109200077E
:101620001092FF0610928D0282E08093DD06809179
:10163000E505813009F094C08091A20280930007F3
:1016400080919A028093FF06809192027FC040931E
:101650007F0203C082E080937F028091E5058130A4
:1016600041F43093A30220939B0280918E028093D9
:10167000930210928E021092AA021092000710920A
:10168000FF0610928D0284E08093DD0669C08530EC
:1016900009F066C080917D02813009F061C08E0141
:1016A0000F5F1F4F88E0F80111928A95E9F767E212
:1016B00072E0C8010E94E62A80E28B8383E58C8376
:1016C000809175024AE0BE016B5F7F4FFAE08F02A6
:1016D000C00111240E940B29F80101900020E9F7B4
:1016E00031971082B80181EB94E00E948F116CE673
:1016F00072E081EB94E00E948F118091DD06E82F6B
:10170000F0E0E458FD4F108210928E021092AA026F
:10171000109200071092FF0610928D028150809364
:10172000DD069091E5059130D9F490E0FC01E0569A
:10173000FD4F208120930007FC01E856FD4F2081DA
:101740002093FF06FC01E057FD4F808180938E02BD
:1017500080918E0287FD8D5F859585958093A90286
:1017600080917E02883009F061C020917D02213095
:1017700009F05CC0309100078091FF0690E0830F74
:10178000911D8130910509F43EC08230910509F424
:101790003FC0892B09F044C08091DD06882309F4FD
:1017A0003FC0E82FF0E0E458FD4F108210928E0207
:1017B0001092AA02109200071092FF0610928D025A
:1017C00081508093DD069091E505913049F590E0D8
:1017D000FC01E056FD4F208120930007FC01E856F4
:1017E000FD4F20812093FF06FC01E057FD4F8081D3
:1017F00080938E0280918E0287FD8D5F8595859501
:101800008093A9020DC0109200016AE272E004C048
:101810002093000161E372E081EB94E00E948F115C
:101820000E94A8188091DD060E94E50580917E0245
:10183000813009F0D3C080917D02823009F0CEC0A2
:101840004091ED055091EE056091EF057091F00526
:10185000209100078091FF0690E0820F911D823059
:10186000910509F454C074F40097D1F0019709F080
:1018700064C01092ED051092EE051092EF051092E3
:10188000F0055BC08430910509F44BC00CF444C0F2
:10189000059709F052C084E090E0A0E0B0E045C0B8
:1018A0008091DD06882309F448C0E82FF0E0E45871
:1018B000FD4F108210928E021092AA021092000721
:1018C0001092FF0610928D0281508093DD06909158
:1018D000E505913091F590E0FC01E056FD4F208147
:1018E00020930007FC01E856FD4F20812093FF065E
:1018F000FC01E057FD4F808180938E0280918E0223
:1019000087FD8D5F859585958093A90216C081E03E
:1019100090E0A0E0B0E009C082E090E0A0E0B0E09C
:1019200004C083E090E0A0E0B0E08093ED059093E8
:10193000EE05A093EF05B093F0050091ED05109131
:10194000EE052091EF053091F005DB01CA019927E2
:10195000AA27BB2780179107A207B307C9F1602FF9
:1019600081E090E00E94F4028091ED059091EE05F7
:10197000A091EF05B091F00582309105A105B10568
:10198000E1F06CF40097A105B10591F00197A10574
:10199000B105C1F460E07BE480E090E017C00397FC
:1019A000A105B10579F460E071EE80E090E00EC031
:1019B00060E875E280E090E009C060E076E980E0F0
:1019C00090E004C060E072EC81E090E00E94691950
:1019D0000E94A8188091DD060E94E50580917E0294
:1019E000833009F05EC080917D02823009F059C0D9
:1019F0002091E505309100078091FF0690E0830F6C
:101A0000911D81309105C9F182309105D1F1892B69
:101A1000C1F58091DD068823B1F1E82FF0E0E458AC
:101A2000FD4F108210928E021092AA0210920007AF
:101A30001092FF0610928D0281508093DD062130B6
:101A400011F590E0FC01E056FD4F30813093000726
:101A5000FC01E856FD4F30813093FF06FC01E05752
:101A6000FD4F808180938E0280918E0287FD8D5F75
:101A7000859585958093A90206C081E08093E50550
:101A800002C01092E5056091E505261721F083E07C
:101A900090E00E94F4020E94A8188091DD060E9446
:101AA000E50580917E02823009F084C180917D023B
:101AB000823009F07FC12091E405309100078091C8
:101AC000FF0690E0830F911D8130910509F43EC01F
:101AD00082309105C1F1892BC9F58091DD068823FB
:101AE000C1F1E82FF0E0E458FD4F108210928E0211
:101AF0001092AA02109200071092FF0610928D0217
:101B000081508093DD069091E505913011F590E0CC
:101B1000FC01E056FD4F308130930007FC01E85690
:101B2000FD4F30813093FF06FC01E057FD4F80816F
:101B300080938E0280918E0287FD8D5F85958595BD
:101B40008093A90206C01092E40503C081E080934F
:101B5000E4056091E405261721F084E090E00E94FE
:101B6000F4020E94A8188091DD060E94E50522C1BA
:101B700080917F028150833008F01CC150917E0219
:101B8000533009F017C140917D02413009F012C174
:101B9000309100072091FF06822F90E0830F911D66
:101BA0008130910551F11CF4892B49F003C1823039
:101BB000910531F1039709F0FDC083E022C0109236
:101BC000800210928E021092AA02109200071092C8
:101BD000FF0610928D025093DD068091E50581305D
:101BE00009F0E8C08091A3028093000780919B02D6
:101BF0008093FF0680919302D3C04093800203C07C
:101C000082E0809380028091E505813041F4309339
:101C1000A40220939C0280918E02809394021092E1
:101C20008E02109200071092FF0610928D0285E03E
:101C300039CC80917D02813009F0BCC080917E0258
:101C4000833009F0B7C08E010F5F1F4F80E1D801CC
:101C50001D928A95E9F768E372E0C8010E94E62ABE
:101C600080E28B83809180028230E1F0833089F1C1
:101C7000813009F044C088E58C83BE016F5E7F4FE0
:101C800080917602909177020E94AE01BE016F5E54
:101C90007F4FCE0105960E94E62A1092770210929D
:101CA00076022DC089E58C83BE016F5E7F4F8091E7
:101CB0007802909179020E94AE01BE016F5E7F4F63
:101CC000CE0105960E94E62A1092790210927802BF
:101CD00016C08AE58C83BE016F5E7F4F80917A02C9
:101CE00090917B020E94AE01BE016F5E7F4FCE01DC
:101CF00005960E94E62A10927B0210927A02F80161
:101D000001900020E9F7319780E28083F80101908B
:101D10000020E9F7CF016BE372E001970E94E62A09
:101D2000F80101900020E9F73197108261E472E038
:101D300081EB94E00E948F11B80181EB94E00E9446
:101D40008F116CE672E081EB94E00E948F1180911C
:101D5000DD06E82FF0E0E458FD4F108210928E026D
:101D60001092AA02109200071092FF0610928D02A4
:101D700081508093DD069091E5059130D9F490E093
:101D8000FC01E056FD4F208120930007FC01E8563E
:101D9000FD4F20812093FF06FC01E057FD4F80811D
:101DA00080938E0280918E0287FD8D5F859585954B
:101DB0008093A90290918E0297FD9D5F95959595D0
:101DC0009093AA024091A9028091DD062091F1052D
:101DD000941303C0821709F4B0C0821304C0292FE2
:101DE000241B20938D0297FF04C01092AA02109228
:101DF0008E02813031F49091AA0294300CF47DC0AF
:101E000015C0823041F590917D022091AA02913057
:101E100041F429300CF471C098E09093AA0290E24A
:101E200063C0923029F424300CF467C093E059C0A9
:101E3000933009F062C09091E605692F70E0022EA0
:101E4000000C330B621773070CF057C09093AA0273
:101E5000990F990F49C08330B1F530917D0290916F
:101E6000AA023130A1F420917E02233031F4943063
:101E70000CF443C08093AA0236C02830F1F59330A9
:101E8000E4F192E09093AA0220938E0236C03230A1
:101E9000A1F520917E02213039F4963074F195E05D
:101EA0009093AA0294E120C0233029F493302CF1BE
:101EB0003093AA0206C0223001F59330F4F020934B
:101EC000AA0298E011C0843091F490917D02913083
:101ED000A1F490917E02933081F42091AA022430E3
:101EE00064F09093AA029CE090938E0206C0853025
:101EF00021F41092AA0210928E029091AA022091CF
:101F0000FF06491724F4211109C021E005C09417E8
:101F10002CF4222319F021502093FF069093A9025C
:101F20008093F1058091FF06981B909300070E9413
:101F3000A8188091DD060E94E50510918C02809121
:101F4000A802181711F18091E40581110E94BE20AA
:101F500011110FC00E94250380932101811104C03B
:101F600080918C028093A8020E94F6028093E6057D
:101F700006C0113021F4109321011093A8020E9491
:101F8000A8188091DD060E94E5050E94DD2160937E
:101F900002067093030680930406909305066896E4
:101FA0000FB6F894DEBF0FBECDBFDF91CF911F916A
:101FB0000F910895CF92DF92EF92FF920F931F93AC
:101FC000CF93DF936C017A018B01C0E0D0E0CE1596
:101FD000DF0581F0D8016D918D01D601ED91FC9165
:101FE0000190F081E02DC6010995892B11F0219611
:101FF000EECF7E01C701DF91CF911F910F91FF902E
:10200000EF90DF90CF900895FC01538D448D252FE4
:1020100030E0842F90E0821B930B541710F0CF9682
:10202000089501970895FC01918D828D981761F0B4
:10203000828DDF01A80FB11D5D968C91928D9F5FFF
:102040009F73928F90E008958FEF9FEF0895FC01AA
:10205000918D828D981731F0828DE80FF11D858D5D
:1020600090E008958FEF9FEF0895FC01918D228DF0
:10207000892F90E0805C9F4F821B91098F73992775
:10208000089581EB94E00E94351021E0892B09F43A
:1020900020E0822F0895FC01848DDF01A80FB11D7F
:1020A000A35ABF4F2C91848D90E001968F7399278E
:1020B000848FA689B7892C93A089B1898C9183706C
:1020C00080648C93938D848D981306C00288F38965
:1020D000E02D80818F7D80830895EF92FF920F9392
:1020E0001F93CF93DF93EC0181E0888F9B8D8C8DC4
:1020F000981305C0E889F989808185FD26C0F62EF0
:102100000B8D10E00F5F1F4F0F731127E02E8C8D8A
:10211000E8120CC00FB607FCFACFE889F989808174
:1021200085FFF5CFCE010E944B10F1CF8B8DFE01C4
:10213000E80FF11DE35AFF4FF0829FB7F8940B8F21
:10214000EA89FB89808180620AC09FB7F894EE8992
:10215000FF896083E889F989808183708064808346
:102160009FBF81E090E0DF91CF911F910F91FF9091
:10217000EF900895CF93DF93EC01888D8823C9F009
:10218000EA89FB89808185FD05C0A889B9898C9180
:1021900086FD0FC00FB607FCF5CF808185FFF2CF1B
:1021A000A889B9898C9185FFEDCFCE010E944B1093
:1021B000E7CFDF91CF91089580E090E0892B29F05F
:1021C0000E94411081110C9400000895AF92BF92BB
:1021D000CF92DF92EF92FF920F931F93CF93DF93F3
:1021E000EC016901C801820F931F8130924008F011
:1021F00070C08E81882371F088819981AA81BB810A
:1022000084179507A607B70729F48F819885C81604
:10221000D906B0F5488359836A837B838B858330E5
:1022200039F089E0440F551F661F771F8A95D1F753
:102230009A01AB0161E1CE010E946B23882319F062
:1022400083E08D8346C00E94DD215B010E9435231F
:102250008A878F3F49F40E94DD216A197B096D321C
:102260007140A0F38FE003C08E3F31F08DE08D838D
:10227000CE010E9423232DC018861F8281E08E8309
:102280008F8198858C159D0540F40E9435238F81A0
:102290009885019698878F83F3CF6701E00EF11E32
:1022A000EC14FD0431F00E943523F60181936F0197
:1022B000F7CF8F819885080F191F18870F8389859D
:1022C000882319F00115124048F0CE010E943823EE
:1022D00005C0CE010E94232380E001C081E0DF9190
:1022E000CF911F910F91FF90EF90DF90CF90BF9013
:1022F000AF9008956115710579F0FB010190002000
:10230000E9F73197AF01461B570BDC01ED91FC91CA
:102310000280F381E02D099480E090E008950C9410
:102320007A111F920F920FB60F9211242F933F93A1
:102330004F935F936F937F938F939F93AF93BF93CD
:10234000EF93FF9381EB94E00E944B10FF91EF918C
:10235000BF91AF919F918F917F916F915F914F91BD
:102360003F912F910F900FBE0F901F9018951F92C5
:102370000F920FB60F9211242F938F939F93EF9389
:10238000FF93E091C104F091C2048081E091C70401
:10239000F091C80482FD12C090818091CA048F5FC1
:1023A0008F732091CB04821751F0E091CA04F0E0C2
:1023B000EF54FB4F958F8093CA0401C08081FF9139
:1023C000EF919F918F912F910F900FBE0F901F90C3
:1023D00018958FB7F8948091AB028FBF08950F9333
:1023E0001F93CF93DF93EB010E94DD218B010E94AD
:1023F00035238F3F49F00E94DD21601B710B6C1764
:102400007D07A8F380E001C081E0DF91CF911F91AB
:102410000F910895EF92FF920F931F93CF93DF9345
:10242000EC017901411551056105710511F482E155
:102430003CC08B85833039F089E0440F551F661FFF
:10244000771F8A95D1F79A01AB0168E1CE010E940E
:102450006B23882311F084E028C08EEF0E942E2386
:1024600087018EEFF81AF80181918F010E942E23C7
:10247000E016F106C1F78FEF0E942E238FEF0E9426
:102480002E230E9435238A878F71853031F081E1B8
:102490008D83CE010E94232309C068E572E0CE013E
:1024A0000E94EF11811107C085E18D83CE010E944A
:1024B000232380E014C020E030E0A9016DE0CE01CC
:1024C0000E946B23811109C00E943523811105C030
:1024D000CE010E94232381E002C084E1E6CFDF9198
:1024E000CF911F910F91FF90EF9008958091B002CE
:1024F0008823A9F1409101015091020160910301EB
:102500007091040121EB32E0809101079091020764
:102510000E940A12811102C080E008954091AC022D
:102520005091AD026091AE027091AF02411551051C
:102530006105710591F021EB32E0809101079091E6
:1025400002070E940A12882339F31092AC021092FB
:10255000AD021092AE021092AF021092B00281E072
:1025600008958F929F92AF92BF92EF92FF920F9336
:102570001F93CF934B015C01C42F80910101909177
:102580000201A0910301B091040188159905AA05E3
:10259000BB0501F10E947612811102C080E020C0CB
:1025A00081EBE82E82E0F82E00E012E020E030E03F
:1025B000B501A40180910107909102070E94E610E5
:1025C000882361F38092010190920201A09203019D
:1025D000B09204018091B002C82BC093B00281E098
:1025E000CF911F910F91FF90EF90BF90AF909F9070
:1025F0008F9008954F925F926F927F928F929F92E9
:10260000AF92BF92CF92DF92EF92FF920F931F9300
:10261000CF93DF93EC01423051056105710510F451
:1026200080E078C089859A85AB85BC850196A11D1F
:10263000B11D84179507A607B70790F3CB88DC88F0
:10264000ED88FE888F89803129F4BB27A72F962F2C
:10265000852F09C0DB01CA01E7E0B695A7959795DC
:102660008795EA95D1F7480159012A013B01C80E27
:10267000D91EEA1EFB1E8091010190910201A091DA
:102680000301B0910401C816D906EA06FB0681F4DD
:102690008F898031A9F4B301A201552766277727D6
:1026A000440F551FFA01EF54FD4F9182808219C0EB
:1026B00040E0C701B6010E94B1128111E9CFB0CF4D
:1026C000B301A2014F77552766277727440F551F7F
:1026D000440F551FFA01EF54FD4F80829182A28270
:1026E000B3828091B00281608093B0028A89823087
:1026F00080F08D819E81AF81B885C80ED91EEA1EFB
:10270000FB1EC092AC02D092AD02E092AE02F092FB
:10271000AF0281E0DF91CF911F910F91FF90EF9079
:10272000DF90CF90BF90AF909F908F907F906F90F1
:102730005F904F9008958F929F92AF92BF92CF92E9
:10274000DF92EF92FF920F931F93CF93DF93FC01E1
:1027500081859285A385B4850196A11DB11D84173D
:102760009507A607B70710F480E05BC083889488BC
:10277000A588B6888789803129F4BB27A72F962F93
:10278000852F09C0DB01CA01C7E0B695A7959795CB
:102790008795CA95D1F7E9016A017B018F01BC01D8
:1027A000CD01680D791D8A1D9B1D809001019090BF
:1027B0000201A0900301B0900401681579058A0513
:1027C0009B0591F4F80187898031A1F4DD24EE2482
:1027D000FF24C601880F991FFC01EF54FD4F808133
:1027E0009181A0E0B0E018C040E00E94B1128111D8
:1027F000E9CFBACFE894C7F8DD24EE24FF24C60160
:10280000880F991F880F991FFC01EF54FD4F80819D
:102810009181A281B381BF7088839983AA83BB838E
:1028200081E0DF91CF911F910F91FF90EF90DF90AA
:10283000CF90BF90AF909F908F9008958F929F926E
:10284000AF92BF92CF92DF92EF92FF920F931F93BE
:10285000CF93DF93EC018D81811102C080E078C0BD
:102860000B891C892D893E89041715072607370710
:10287000A8F36A017B01823029F4CA86DB86EC86E4
:10288000FD860DC0C114D104E104F10451F41E828F
:102890001F82188619861A861B861C861D8681E073
:1028A00057C08A849B84AC84BD84EB8DFC8D2585C8
:1028B00030E0275F3F4FB501A40141505109610944
:1028C0007109022E04C076956795579547950A942D
:1028D000D2F7D701C6010197A109B10904C0B69585
:1028E000A795979587952A95D2F784179507A607F8
:1028F000B70720F089288A288B2871F44F89588DD2
:10290000698D7A8D4E835F83688779874C015D017D
:102910008E010A5F1F4F16C0841B950BA60BB70BC9
:10292000F5CF4E815F816885798598018B8D9C8D6F
:102930000E949B1391E0891A9108A108B10888238D
:1029400009F48CCF81149104A104B10451F795CFFF
:10295000DF91CF911F910F91FF90EF90DF90CF907B
:10296000BF90AF909F908F9008953F924F925F924B
:102970006F927F928F929F92AF92BF92CF92DF928F
:10298000EF92FF920F931F93CF93DF93CDB7DEB7F4
:102990002C970FB6F894DEBF0FBECDBF5C01DC01F3
:1029A0005B968D909C905C971696CD90DD90ED9007
:1029B000FC901997C114D104E104F10439F0BFEF80
:1029C000CB1ADB0AEB0AFB0A312C07C0F401C080EA
:1029D000D180E280F38033243394F40181859285A1
:1029E000A385B4859C01AD012F5F3F4F4F4F5F4FD3
:1029F00029873A874B875C87260137011D821E8213
:102A00001F821886F40181859285A385B4852D8166
:102A10003E814F815885281739074A075B0708F020
:102A200063C089859A85AB85BC858C159D05AE05EF
:102A3000BF0550F482E0C82ED12CE12CF12C92E09D
:102A4000492E512C612C712C9E012F5F3F4FB701F5
:102A5000A601C4010E949B13882309F445C0898103
:102A60009A81AB81BC81892B8A2B8B2B41F026016B
:102A700037019FEF491A590A690A790A05C0C41437
:102A8000D504E604F70491F02D813E814F815885ED
:102A90002F5F3F4F4F4F5F4F2D833E834F835887AC
:102AA0003FEFC31AD30AE30AF30AACCF0FEF1FEFCD
:102AB0002FEF3FE0B301A201C4010E94FA12882364
:102AC00099F0D50116964D915D916D917C91199774
:102AD000411551056105710549F093018201C40159
:102AE0000E94FA12811102C080E02AC0D501169618
:102AF0004D925D926D927C921997332051F0D301E3
:102B0000C2010196A11DB11DF40180839183A283AE
:102B1000B383F5018789908DA18DB28D892B8A2B86
:102B20008B2B69F4D50157964D925D926D927C92F4
:102B30005A9714968C911497806814968C9381E020
:102B40002C960FB6F894DEBF0FBECDBFDF91CF91AC
:102B50001F910F91FF90EF90DF90CF90BF90AF90BB
:102B60009F908F907F906F905F904F903F900895CF
:102B70002F923F924F925F926F927F928F929F928D
:102B8000AF92BF92CF92DF92EF92FF920F931F937B
:102B9000CF93DF93EC016B014A018D81811103C05A
:102BA0008FEF9FEFD7C08C8180FFFACF4B885C8876
:102BB0006D887E884A855B856C857D85C401A0E033
:102BC000B0E093018201041B150B260B370B08178D
:102BD00019072A073B0718F44201841A950A540181
:102BE0001E0126E0220E311CA114B10409F47EC09E
:102BF0004A855B856C857D852A0181E05822ED81BF
:102C00008B8D9C8D8A019B01F9E036952795179550
:102C10000795FA95D1F7E23061F4FC01828D938D2E
:102C2000A48DB58DBC01CD01600F711F821F931F54
:102C30003FC0FC0174807A94702241145104C9F49D
:102C4000711017C0452B462B472B49F48F89988D5F
:102C5000A98DBA8D8E839F83A887B9870AC04E81BC
:102C60005F816885798591010E949B13882309F40F
:102C700097CFEB8DFC8D8E819F81A885B9850297BA
:102C8000A109B109058404C0880F991FAA1FBB1FA1
:102C90000A94D2F74685578560897189840F951FFC
:102CA000A61FB71FBC01CD01670D711D811D911DB0
:102CB00020E032E02419350935012A153B0508F4D6
:102CC00039012C8126FD04C06114F2E07F0681F4F5
:102CD0000091010110910201209103013091040142
:102CE0006017710782079307B1F402C0C40132C0B4
:102CF00040E00E94B112882309F452CFF201EF5450
:102D0000FD4FD601CF01860D971D8E179F0789F0C5
:102D100021912D93FACF760183019201AB01BC0181
:102D200080910107909102070E94E610882309F420
:102D300037CFC60CD71C8A859B85AC85BD85860D93
:102D4000971DA11DB11D8A879B87AC87BD87A618DB
:102D5000B7084ACFDF91CF911F910F91FF90EF906D
:102D6000DF90CF90BF90AF909F908F907F906F90AB
:102D70005F904F903F902F900895CF93DF93EC0199
:102D80008D81882379F18C8187FF28C06E857F85AE
:102D90008889998941E00E94B112882319F1EA8952
:102DA00080E2E89FF0011124EF54FD4F3097D1F0FD
:102DB0008D81823040F48B899C89AD89BE89848F56
:102DC000958FA68FB78F8F89988DA98DBA8D938F88
:102DD000828FB58BA48B8C818F778C83DF91CF9181
:102DE0000C94761280E0DF91CF910895CF93DF931A
:102DF000EC010E94BD16882311F01D8281E0DF9155
:102E0000CF9108952F923F924F925F926F927F924F
:102E10008F929F92AF92BF92CF92DF92EF92FF92EA
:102E20000F931F93CF93DF9300D000D0CDB7DEB7C1
:102E30008C015B011A01DC0115968C91159781308C
:102E4000C9F414968C9181FF15C082FF1DC0F80152
:102E5000438954896589768982859385A485B5855A
:102E600084179507A607B70779F0C8010E941E14BA
:102E700081110AC081E090E0D80113969C938E9353
:102E8000129780E090E036C1610183C05B968D911E
:102E90009C915C97FC0174802FEF270D2A013B0168
:102EA00039E076946794579447943A95D1F7722E07
:102EB00074207A01F1E0FF22772009F476C080E0E7
:102EC00092E08E199F0946018C159D0508F44C016E
:102ED000D8015B962D913C915C9716968D919D91B2
:102EE0000D90BC91A02D0297A109B109F9010584AB
:102EF00004C0880F991FAA1FBB1F0A94D2F74685EA
:102F0000578560897189840F951FA61FB71F9C0183
:102F1000AD01270D311D411D511D29013A018114BB
:102F200032E0930609F088C080910101909102017E
:102F3000A0910301B0910401481659066A067B0668
:102F400059F48FEF9FEFDC01809301019093020110
:102F5000A0930301B09304019501B301A2018091F4
:102F60000107909102070E940A12882309F482CF78
:102F70009EEFB91AC818D908F80182859385A485EF
:102F8000B585880D991DA11DB11D82879387A487E2
:102F9000B587D8011A964D915D916D917C911D97E1
:102FA000C114D10409F072CF87C0E114F10409F013
:102FB00086CF16964D915D916D917C911997411533
:102FC00051056105710559F457968D919D910D90AC
:102FD000BC91A02D0097A105B10541F521C09E012E
:102FE0002F5F3F4F0E949B13882309F44BCF8981A9
:102FF0009A81AB81BC81F801238D348DF901278939
:10300000203129F048EF5FEF6FEF7FE004C048EF19
:103010005FEF60E070E084179507A607B70730F010
:10302000C8010E94B51481114ACF24CFF8018683CC
:103030009783A087B18743CFE114F10429F5D80124
:103040001A964D915D916D917C911D9753968D913E
:103050009D910D90BC91A02D481759076A077B07D9
:1030600098F00E947612882309F404CF409201015F
:103070005092020160920301709204018091B002AB
:1030800081608093B00208C041E0C301B2010E9498
:10309000B112882309F4EECED501F701EF54FD4FAC
:1030A0009F01280D391D2E173F0719F08D9181932F
:1030B000FACFA80CB91C5ECFF80183899489A58941
:1030C000B68984179507A607B70738F4438B548B46
:1030D000658B768B848180688483F801848183FD8D
:1030E00002C0C10107C0C8010E94BD16882309F4AF
:1030F000C1CEF7CF0F900F900F900F90DF91CF912F
:103100001F910F91FF90EF90DF90CF90BF90AF9005
:103110009F908F907F906F905F904F903F902F90F7
:103120000895CF93DF931F92CDB7DEB7698341E057
:1031300050E0BE016F5F7F4F0E9402170F90DF913A
:10314000CF91089540E0682F89E995E00C9412052D
:1031500081E00E94A2188BE39FE10197F1F70895A7
:10316000CF93DF93CDB7DEB728970FB6F894DEBFC5
:103170000FBECDBF98E0EAE5F1E0DE0111960190C7
:103180000D929A95E1F79091AC05691710F06FEFE9
:10319000690FFE013196E60FF11DE60FF11D9081DA
:1031A000890F806828960FB6F894DEBF0FBECDBF9A
:1031B000DF91CF910C94A218CF93DF93823028F047
:1031C0009091A80598609093A8058093AC05109203
:1031D000AD058BE39DE00197F1F760E080919D05DF
:1031E0000E94532060E080919F050E9453208091AF
:1031F0009E058F3F19F060E00E9453208091A80542
:1032000084FD20C063E089E995E00E94DB04CBE403
:10321000D6E4CE010197F1F763E089E995E00E94D9
:10322000DB042197F1F763E089E995E00E94DB0474
:1032300083E592E00197F1F762E089E995E00E9469
:10324000DB0415C080620E94A2188BE496E401970B
:10325000F1F78091A80580620E94A21883E592E0B0
:103260000197F1F78091A80580620E94A2188091D1
:10327000A80580620E94A21884E08093A9058CE0D2
:103280000E94A2180E94A81882E08093AA0586E0F6
:10329000DF91CF910C94A2180F931F93CF93DF93DC
:1032A0008B01877028E0829FC001112480640E94F6
:1032B000A218E801085F1F4F699189E995E00E9413
:1032C0007105C017D107C1F7DF91CF911F910F9101
:1032D0000895CF92DF92EF92FF926B017C01E09113
:1032E000C104F091C20482E08083C11481EED8064B
:1032F000E104F104B1F060E079E08DE390E0A70132
:1033000096010E945629DA01C9010197A109B10964
:10331000B695A795979587959C01211580E138076B
:10332000B8F0E091C104F091C204108260E874E842
:103330008EE190E0A70196010E945629DA01C901A9
:103340000197A109B109B695A795979587959C0115
:10335000E091BD04F091BE043083E091BF04F09190
:10336000C00420831092C904E091C504F091C60402
:1033700086E08083E091C304F091C4048081806181
:103380008083E091C304F091C404808188608083CD
:10339000E091C304F091C404808180688083E0914F
:1033A000C304F091C40480818F7D8083FF90EF90EF
:1033B000DF90CF900895CF93DF93EC01898D9A8DA4
:1033C000009741F00E94F616898D9A8D0E94302A4E
:1033D0001A8E198EDF91CF910895E091C705F09173
:1033E000C805309759F08581823040F016821782E7
:1033F0001086118612861386148615860895EF921C
:10340000FF920F931F93CF93DF93EC017B018A010F
:103410001B821A8288EE93E0A0E0B0E08C839D834B
:10342000AE83BF8388E691E0998388838DE190E045
:103430000E9498299A8F898F009779F02DE1F701E2
:10344000DC0101900D922A95E1F74CE050E0B801C3
:10345000CE010C960E94ED2A188EDF91CF911F911C
:103460000F91FF90EF9008954F925F926F927F922D
:10347000AF92BF92CF92DF92EF92FF920F931F9382
:10348000CF93DF9300D000D0CDB7DEB78C01498356
:103490005A836B837C835901C12CD12C7601412C3A
:1034A00082E0582E612C712C49815A816B817C817C
:1034B0009E012F5F3F4FC8010E949B13882351F14B
:1034C000D301C201F801058404C0880F991FAA1F07
:1034D000BB1F0A94D2F7C80ED91EEA1EFB1E4981F3
:1034E0005A816B817C818789803129F088EF9FEF39
:1034F000AFEFBFE004C088EF9FEFA0E0B0E0481757
:1035000059076A077B0780F2F501C082D182E28207
:10351000F38281E00F900F900F900F90DF91CF9189
:103520001F910F91FF90EF90DF90CF90BF90AF90E1
:103530007F906F905F904F900895CF93DF93EC0151
:1035400080E2689FF0011124EF54FD4F6A8B809157
:10355000010190910201A0910301B09104018E87B5
:103560009F87A88BB98B4489558960E070E0BA01C8
:1035700055274427828D938DA0E0B0E0482B592B2E
:103580006A2B7B2B4F8B588F698F7A8F838588713D
:1035900051F4848D958DA68DB78D8B8B9C8BAD8BC7
:1035A000BE8B81E00EC0803111F080E015C09E011D
:1035B0002D5E3F4F8B8D9C8D0E94341A8823A9F37A
:1035C00084E08D8381E08C831E821F821886198699
:1035D0001A861B861C861D86DF91CF910895AF92B7
:1035E000BF92CF92DF92EF92FF920F931F93CF93F0
:1035F000DF93CDB7DEB72B970FB6F894DEBF0FBEC3
:10360000CDBF6C01FE013196CE010C967F0120E208
:103610002193E817F907E1F7DA0120E037E09D91FF
:10362000992331F19E3231F43A3009F4AAC028E0EE
:103630003AE0F5CFE1EEF1E08491882321F0319674
:103640009813FACF9EC0321708F49BC08FED890FF4
:103650008E3508F096C081E0820FF701E20FF11D70
:103660002FE9290F2A3108F490529083282FD7CFC1
:103670008981803209F485C08B01FB01838D948D93
:10368000F601948F838FFB011682178210861186B4
:103690001286138614861586B12CF80182859385CF
:1036A000A485B585438954896589768984179507EA
:1036B000A607B70708F065C025E0B695A7959795CA
:1036C00087952A95D1F7F82FFF70AF2EF8018581E5
:1036D000823008F456C0C8010E941E2497FD51C0D4
:1036E000F80182859385A485B5854F96A11DB11DEE
:1036F00082879387A487B587F0E2AF9EB00111243B
:103700006F547D4F61157105E1F1FB0180818823C4
:10371000F1F0853E99F14BE050E0C7010E94BE2ACE
:10372000892B09F0BACF6A2DC6012B960FB6F894F3
:10373000DEBF0FBECDBFDF91CF911F910F91FF90E4
:10374000EF90DF90CF90BF90AF900C949D1AB11086
:1037500018C0F601A28A8091010190910201A09106
:103760000301B091040186879787A08BB18BFB0181
:103770008081882331F0BB24B3948FCFB110FBCF6D
:10378000E8CF80E02B960FB6F894DEBF0FBECDBF1A
:10379000DF91CF911F910F91FF90EF90DF90CF902D
:1037A000BF90AF90089541E0682F89E995E00E94AD
:1037B000120581E090E00895CF93DF93FB01228111
:1037C0003381DC0113963C932E93129744815581EB
:1037D0006681778114964D935D936D937C931797D3
:1037E000408551856285738518964D935D936D93E1
:1037F0007C931B971C96EF012C969C01275E3F4FF4
:1038000049914D93A217B307D9F7218D328DFC0151
:10381000328F218FDF91CF910895EF92FF920F9316
:103820001F93CF93DF93CDB7DEB7C756D1090FB63D
:10383000F894DEBF0FBECDBF8C01E090C705F090BD
:10384000C805F7018581823008F470C082859385B0
:10385000A485B5858F719927AA27BB27892B8A2B29
:103860008B2B09F063C040E250E0BE016F5F7F4FD9
:10387000C7010E94B815803209F058C08981882399
:1038800009F454C0853E79F38E3269F38C8583FD4B
:10389000EACF22961FAE1EAE22978EE991E09FAF2F
:1038A0008EAF24961FAE2497FE01319680E090E003
:1038B0003EE22191203291F0983041F4ABE5B0E046
:1038C000AC0FBD1FA80FB11D3C938F5FABE5B0E0FF
:1038D000AC0FBD1FA80FB11D2C938F5F9F5F9B3056
:1038E00041F7EBE5F0E0EC0FFD1FE80FF11D108252
:1038F0006091C7057091C805AE01455A5F4FCE0172
:10390000CE960E94EF1A882389F0BE01625C7F4F39
:10391000CE0181960E94BA23AE01455A5F4FBE0187
:103920006F5D7F4FC8010E94FF1903C0C8010E944C
:103930000B24C801C959DF4F0FB6F894DEBF0FBE84
:10394000CDBFDF91CF911F910F91FF90EF90089520
:1039500008950E94B92A1F920F920FB60F92112458
:103960002F933F938F939F93AF93BF938091D506EF
:103970009091D606A091D706B091D8063091D40682
:1039800023E0230F2D3720F40196A11DB11D05C0A2
:1039900026E8230F0296A11DB11D2093D406809323
:1039A000D5069093D606A093D706B093D8068091FB
:1039B000D9069091DA06A091DB06B091DC0601965B
:1039C000A11DB11D8093D9069093DA06A093DB0662
:1039D000B093DC06BF91AF919F918F913F912F9152
:1039E0000F900FBE0F901F9018951F920F920FB659
:1039F0000F9211242F933F934F935F936F937F9375
:103A00008F939F93AF93BF93EF93FF93E091070141
:103A1000F09108010995FF91EF91BF91AF919F91AE
:103A20008F917F916F915F914F913F912F910F9067
:103A30000FBE0F901F9018951F920F920FB60F9206
:103A400011242F933F934F935F936F937F938F93A3
:103A50009F93AF93BF93EF93FF93E0910501F09194
:103A600006010995FF91EF91BF91AF919F918F91C1
:103A70007F916F915F914F913F912F910F900FBE6A
:103A80000F901F9018951F920F920FB60F9211244E
:103A90002F933F934F935F936F937F938F939F9356
:103AA000AF93BF93EF93FF938091FB069091FC0639
:103AB000A091FD06B091FE06892B8A2B8B2B59F124
:103AC0009091F806E091F906F091FA068081892735
:103AD00080838091FB069091FC06A091FD06B09139
:103AE000FE06181619061A061B060CF03DC080913A
:103AF000FB069091FC06A091FD06B091FE06019791
:103B0000A109B1098093FB069093FC06A093FD06E2
:103B1000B093FE0629C080913A01EBE4F2E0E49113
:103B20009FEF90933A01E130B9F098F0E230C9F498
:103B3000909170009D7F9093700091E09093B00001
:103B40009091B100987F94609093B1001092B3006F
:103B500008C010926E0005C090916F009D7F9093F9
:103B60006F0061E00E945320FF91EF91BF91AF91F0
:103B70009F918F917F916F915F914F913F912F9185
:103B80000F900FBE0F901F901895833081F028F48E
:103B9000813099F08230A1F008958730A9F0883003
:103BA000B9F08430D1F4809180008F7D03C0809182
:103BB00080008F7780938000089584B58F7702C04E
:103BC00084B58F7D84BD08958091B0008F7703C048
:103BD0008091B0008F7D8093B00008953FB7F89436
:103BE0008091D9069091DA06A091DB06B091DC06AF
:103BF00026B5A89B05C02F3F19F00196A11DB11D48
:103C00003FBFBA2FA92F982F8827820F911DA11D82
:103C1000B11DBC01CD0142E0660F771F881F991FBF
:103C20004A95D1F70895CF93DF93FC012581222394
:103C300011F080E049C0EC01809173058031C1F43E
:103C400082E08583178A108E118E128E8091740502
:103C500090917505A0E0B0E025E0880F991FAA1F9C
:103C6000BB1F2A95D1F7838B948BA58BB68B19C07C
:103C70008032F9F683E0858340917605509177058F
:103C80006091780570917905478B508F618F728FA5
:103C90009F012D5E3F4F8CE595E00E94341A8823EA
:103CA00041F28CE595E09C8F8B8F81E08C831E82A6
:103CB0001F82188619861A861B861C861D861E86FC
:103CC0001F86188A198A1A8ADF91CF910895CF9397
:103CD000DF93BC0181EB94E00E947A11EC016BE66A
:103CE00072E081EB94E00E947A118C0F9D1FDF91AE
:103CF000CF9108958F929F92AF92BF92CF92DF9211
:103D0000EF92FF92CF93DF93C82F80E595E09093D9
:103D1000020780930107CC2369F1C53010F080E0E1
:103D20000CC140E060E070E0CB010E94B11288233A
:103D3000B1F320E1C29FC00111248F559D4FFC01BA
:103D4000E254FE4F20812F7751F73C9640815181FC
:103D500062817381443651056105710500F3349722
:103D6000C080D180E280F380C114D104E104F10469
:103D700021F4D5CFC12CD12C760140E0C701B6018A
:103D80000E94B112882359F28091BC029091BD0229
:103D90008115924021F6A091C102AA2309F4BFCF58
:103DA0006091BF027091C0026115710509F4B7CF2F
:103DB0002091BE02222309F4B2CFA0936E05209376
:103DC000600580E030E041E050E0C82FFA01082EA5
:103DD00002C0EE0FFF1F0A94E2F72E173F0739F0DB
:103DE0008F5FC83091F789E08093690598CF809301
:103DF00069052091C7023091C8022115310519F0DB
:103E000040E050E008C02091D5023091D6024091A8
:103E1000D7025091D80220936105309362054093F8
:103E200063055093640546015701860E971EA11C39
:103E3000B11C80926F0590927005A0927105B092AE
:103E40007205E091C202F091C302F0937505E09310
:103E50007405B0E00E947E29860E971EA81EB91E2A
:103E60008092760590927705A0927805B0927905B8
:103E700085E0EE0FFF1F8A95E1F7E150FE4FEF2F2F
:103E8000FF27E6958E0E9F1EA11CB11C80926A052D
:103E900090926B05A0926C05B0926D052091C402C2
:103EA0003091C5022115310521F0A90160E070E0D3
:103EB00008C04091D1025091D2026091D30270911A
:103EC000D402D701C60188199909AA09BB09840F30
:103ED000951FA61FB71F04C0B695A7959795879500
:103EE000CA95D2F78093650590936605A093670500
:103EF000B0936805853F2FE09207A105B10510F446
:103F00008CE018C0853F9F4FA105B10510F480E1FA
:103F100011C08091DD029091DE02A091DF02B0918C
:103F2000E0028093760590937705A0937805B0938F
:103F3000790580E28093730581E0DF91CF91FF9056
:103F4000EF90DF90CF90BF90AF909F908F900895AB
:103F5000BF92CF92DF92EF92FF920F931F93CF9376
:103F6000DF93C82F7B01B42ED0910007CD2ED12C2A
:103F70006091FF06082F10E0C601860F911D801783
:103F8000910731F480E00E94B0188EE30E94D31BA9
:103F9000CD1788F10C191D090230110564F5CD1BF0
:103FA000DC2F6C2F81E00E94B018CEE0F701649105
:103FB000662351F041E089E995E00E941205C15065
:103FC000FFEFEF1AFF0AF2CFCC2329F080E20E9424
:103FD000D31BC150F9CF6D2F8FE00E94B0188B2DED
:103FE000DF91CF911F910F91FF90EF90DF90CF90D5
:103FF000BF900C94D31BDF91CF911F910F91FF9035
:10400000EF90DF90CF90BF90089528E0E2E3F1E0D9
:10401000A0EFB6E001900D922A95E1F728E0EAE2E0
:10402000F1E0A8EEB6E001900D922A95E1F728E0C4
:10403000E2E2F1E0A0EEB6E001900D922A95E1F700
:104040009093DF068093DE060E94A8188091DD061B
:104050000C94E505CF93DF93282F30E0F901EB5F57
:10406000FD4F8491F901E75EFD4FD491F901E95CC0
:10407000FD4FC491CC2391F081110E94C51DEC2FFE
:10408000F0E0EE0FFF1FE550FE4FA591B491EC91CB
:10409000ED2381E090E021F480E002C080E090E038
:1040A000DF91CF9108951F93CF93DF93282F30E0B6
:1040B000F901EB5FFD4F8491F901E75EFD4FD4916B
:1040C000F901E95CFD4FC491CC23C1F0162F811199
:1040D0000E94C51DEC2FF0E0EE0FFF1FE35DFD4FCA
:1040E000A591B4919FB7F894111104C08C91D0950B
:1040F000D82302C0EC91DE2BDC939FBFDF91CF91E0
:104100001F910895CF93DF9390E0FC01E75EFD4F90
:104110002491FC01E95CFD4F8491882361F190E0DA
:10412000880F991FFC01EF50FE4FC591D491FC01FF
:10413000E35DFD4FA591B491611109C09FB7F8945B
:104140008881209582238883EC912E230BC06230D6
:1041500061F49FB7F8948881322F30958323888348
:10416000EC912E2B2C939FBF06C08FB7F894E8815B
:104170002E2B28838FBFDF91CF910895CF9380910D
:104180003A01803121F08F3F09F0DBC004C0EBE43D
:10419000F2E0C49175C080E180933A01EBE4F2E073
:1041A000E491EF3F09F4CDC0E13009F446C048F195
:1041B000E23009F064C01092B0001092B10080911A
:1041C000B00082608093B0008091B10081608093E4
:1041D000B100E7E4F2E0E491F0E0EE0FFF1FE35DF1
:1041E000FD4F859194919093FA068093F906E9E248
:1041F000F2E0E491E093F80661E080E10E94822021
:1042000062C014BC15BC84B5826084BD85B5816074
:1042100085BDE7E4F2E0E491F0E0EE0FFF1FE35D1F
:10422000FD4F85919491E9E2F2E0E491E093040777
:1042300061E080E10E9482202EC0109280001092E6
:10424000810080918100886080938100809181004D
:10425000816080938100E7E4F2E0E491F0E0EE0F0A
:10426000FF1FE35DFD4F85919491E9E2F2E0E49157
:10427000E093030761E080E10E9482202EC0CE2FF0
:10428000C7FD5FC061E080E10E948220CC2319F06D
:10429000C23009F518C085B5887F826085BD87EC7E
:1042A00087BD84EF91E0A0E0B0E080930907909390
:1042B0000A07A0930B07B0930C0780916E008260F1
:1042C00080936E003EC08091B100887F82608093B1
:1042D000B10087EC23C0C130F1F480918100887F68
:1042E0008160809381008FE396E0909389008093B2
:1042F000880084EF91E0A0E0B0E080930507909300
:104300000607A0930707B093080780916F008260AB
:1043100080936F0016C0C230A1F48FE38093B30086
:1043200084EF91E0A0E0B0E08093FB069093FC0660
:10433000A093FD06B093FE0680917000826080938A
:104340007000CF9108958F929F92AF92BF92CF92BB
:10435000DF92EF92FF926B017C010E94EE1D4B01F8
:104360005C01C114D104E104F104F1F00E94EE1DDE
:10437000DC01CB0188199909AA09BB09883E934041
:10438000A105B10570F321E0C21AD108E108F108D6
:1043900088EE880E83E0981EA11CB11CC114D104C4
:1043A000E104F10419F7DDCFFF90EF90DF90CF909B
:1043B000BF90AF909F908F9008952FB7F894609121
:1043C000D5067091D6068091D7069091D8062FBF5A
:1043D00008952F923F924F925F926F927F928F92A9
:1043E0009F92AF92BF92CF92DF92EF92FF920F9384
:1043F0001F93CF93DF93CDB7DEB7C656D1090FB663
:10440000F894DEBF0FBECDBF4C016B0119A218A2FC
:104410008EE991E09F8F8E8F1BA21C821B829A8354
:1044200089831E825E018EE1A80EB11CC5010E9427
:10443000131E76018E010F5F1F4F250118016FE2D9
:1044400070E0C7010E94DB2A009709F441C0F70120
:1044500020812F3221F4FFEFEF1AFF0AF0CF8E19DF
:104460008D3008F08CE0682E712CA301B701CE01CD
:10447000885A9F4F0E94ED2AE8E5F0E0EC0FFD1FFF
:10448000E60DF71D1082C8010E94F616F80185811D
:10449000882351F01EAE1DAE8EE991E09CAF8BAF2C
:1044A00021961FAE219720C0AE01485A5F4FB2013E
:1044B000C8010E94EF1A882369F3E60CF71CC201B9
:1044C0000E94F616942D852D2801092F182FB7CF9D
:1044D000C7018C199D09A7969FAF8EAFA797B20110
:1044E000CE01CB960E94BA23A796EEADFFADA7975B
:1044F000CE0EDF1EF6018081811109C0BE01655C10
:104500007F4FC1010E94BA2347EF51E022C019A298
:1045100018A28EE991E09F8F8E8F1BA221968FADFE
:104520002197811104C0C4010E940B2416C0A6016A
:10453000BE01655C7F4FC5010E94EF1A882399F385
:10454000CE01CB960E94F616B501C1010E94BA2396
:10455000A601B101C4010E94FF19C401CA59DF4F6D
:104560000FB6F894DEBF0FBECDBFDF91CF911F9184
:104570000F91FF90EF90DF90CF90BF90AF909F9002
:104580008F907F906F905F904F903F902F90089505
:10459000DC015996ED91FC915A973097B9F08389D7
:1045A0009489A589B6894285538564857585841B60
:1045B000950BA60BB70B811520E89207A105B10555
:1045C00038F08FEF9FE7A0E0B0E0089580E090E042
:1045D0000895CF93DF931F92CDB7DEB76983DC01D7
:1045E000ED91FC910280F381E02D41E050E0BE01AD
:1045F0006F5F7F4F09950F90DF91CF910895FC0178
:10460000818D928D009711F00C94BD160895CF9373
:10461000DF93EC01898D9A8D009739F481E090E069
:104620009B838A8380E090E00BC0FC01138212829E
:104630000E940217E98DFA8D22813381232B71F7B5
:10464000DF91CF91089561E0FC0184810E945320A5
:1046500080910D07811110920D0708958EBD000005
:104660000DB407FEFDCF8EB508958FEF0C942E2369
:10467000CF93DF93EC018E81882389F08F81988519
:104680009C012F5F3F4F38872F838230924018F470
:104690000E943523F3CFCE010E9423231E82DF9197
:1046A000CF9108958CBD9DBD0895CF93DF93EC010C
:1046B00080910D07811109C081E080930D078091E1
:1046C0004E0590914F050E94522360E08C81DF914E
:1046D000CF910C9453208F929F92AF92BF92FF92F2
:1046E0000F931F93CF93DF93EC01F62E49015A01EC
:1046F0000E943823CE010E9455236CE271E0CE0166
:104700000E94EF118F2D80640E942E2308E110E09B
:10471000D501C401002E04C0B695A795979587953D
:104720000A94D2F70E942E2308501109083F8FEFF8
:10473000180771F7FF2029F088E0F81204C087E815
:1047400003C085E901C08FEF0E942E2310E00E9474
:1047500035238A8787FF04C01F3F11F01F5FF7CF03
:10476000DF91CF911F910F91FF90BF90AF909F90DD
:104770008F900895FC01DB0112968D919C91139707
:10478000938382838EE991E09183808314968C9148
:104790001497848315968C911597858316964D9161
:1047A0005D916D917C9119974683578360877187DE
:1047B0001A964D915D916D917C911D97428753871B
:1047C000648775871E964D915D916D917C9151978F
:1047D00046875787608B718B52968C915297828B4C
:1047E00053964D915D916D917C915697438B548B6F
:1047F000658B768B57964D915D916D917C915A9713
:10480000478B508F618F728F5B968D919C915C97D7
:10481000948F838F0895FC011382128288EE93E0B7
:10482000A0E0B0E084839583A683B78388E691E017
:1048300091838083128E118E14860895CF93DF9317
:104840001F92CDB7DEB741E050E0BE016F5F7F4FF2
:104850000E94B815019719F4898190E002C08FEF8A
:104860009FEF0F90DF91CF910895FC01818D928D84
:10487000009711F00C941E248FEF9FEF08950F9373
:104880001F93CF93DF93FC01818D928D0097B9F038
:10489000EF010E941E248C010F3F8FEF180791F04B
:1048A000898D9A8DFC0142855385648575854150BB
:1048B0005109610971090E941E14C80105C080E0F8
:1048C00090E002C08FEF9FEFDF91CF911F910F918A
:1048D00008951092B4041092B30488EE93E0A0E01F
:1048E000B0E08093B5049093B604A093B704B0935E
:1048F000B8048CE891E09093B2048093B10485EC05
:1049000090E09093BE048093BD0484EC90E090937B
:10491000C0048093BF0480EC90E09093C204809325
:10492000C10481EC90E09093C4048093C30482ECB2
:1049300090E09093C6048093C50486EC90E0909339
:10494000C8048093C7041092CA041092CB0410923A
:10495000CC041092CD0480E580934E0510924F0553
:1049600010925505109256051092590510925B054C
:1049700082E090E0A0E0B0E080935C0590935D055C
:10498000A0935E05B0935F051092730510927D05AC
:1049900010927C058EE991E090937B0580937A05D7
:1049A00010927F0510929C0510929B058AEA91E077
:1049B00090939A058093990589E080939D058FEFE8
:1049C00080939E0588E080939F0587E08093A005F3
:1049D00086E08093A10585E08093A20584E0809322
:1049E000A3051092A4051092A5051092A605109299
:1049F000A70561E089E00E94822080919E058F3F9B
:104A000019F061E00E94822061E080919F050E9480
:104A100082201092A80581E00E94DC188EEA95E0C1
:104A20000E940B2489EC95E00C940B24CF93DF9328
:104A3000CDB7DEB7A0970FB6F894DEBF0FBECDBFDF
:104A4000789484B5826084BD84B5816084BD85B569
:104A5000826085BD85B5816085BD80916E00816075
:104A600080936E001092810080918100826080931B
:104A7000810080918100816080938100809180001D
:104A80008160809380008091B10084608093B10048
:104A90008091B00081608093B00080917A00846042
:104AA00080937A0080917A00826080937A0080916E
:104AB0007A00816080937A0080917A008068809388
:104AC0007A001092C10060E072EC81E090E00E94F8
:104AD000691980E090E00E9440298E3FD1F481E086
:104AE00090E00E94402990E0A0E0B0E08093ED05C6
:104AF0009093EE05A093EF05B093F00583E090E06E
:104B00000E9440298093E50584E090E00E944029BE
:104B100028C06EEF80E090E00E94F40264E081E043
:104B200090E00E94F40261E082E090E00E94F402D2
:104B300060E083E090E00E94F40261E084E090E0B5
:104B40000E94F40284E090E0A0E0B0E08093ED05E4
:104B50009093EE05A093EF05B093F0051092E50554
:104B600081E08093E4058091ED059091EE05A091A0
:104B7000EF05B091F00582309105A105B105E1F096
:104B80006CF40097A105B10591F00197A105B1055D
:104B9000C1F460E07BE480E090E017C00397A105DA
:104BA000B10579F460E071EE80E090E00EC060E85D
:104BB00075E280E090E009C060E076E980E090E096
:104BC00004C060E072EC81E090E00E94691960E04E
:104BD00082E00E94822060E083E00E94822061E007
:104BE00082E00E94532061E083E00E94532025E58B
:104BF00031E03093060120930501809169008C7F9C
:104C0000816080936900E89A30930801209307013E
:104C100080916900837F846080936900E99A809124
:104C20006C00836080936C00D99A809168008260E8
:104C3000809368000E9425038093210169E171E05F
:104C400081E00E944C1961E171E082E00E944C1900
:104C500069E071E083E00E944C1982E00E94DC1858
:104C600066E472E089E995E00E948F1161E080E0DE
:104C70000E94B01864E572E089E995E00E948F1106
:104C800000E18CE10E94A2180150D9F700E188E10F
:104C90000E94A21862E370E080E090E00E94A321ED
:104CA0000150A9F760E273E080E090E00E94A32148
:104CB0000E94A8180E94F2011092E8051092E705E0
:104CC0001092EA051092E9051092EC051092EB059E
:104CD0000E94F6028093E60542E2A42E41E0B42E43
:104CE0005AE2852E51E0952E8091070681112FC042
:104CF00080910606882329F0109206060E947F09FB
:104D000052C20E94DD21C0900206D0900306E090BE
:104D10000406F0900506DC01CB018C199D09AE0953
:104D2000BF0981319742A105B10508F43CC28091C9
:104D3000DD06882309F437C21092DD061092F105D2
:104D40000E94A8188091DD060E94E5052CC28130E2
:104D500009F029C262EF75E0CE0101960E94E921B7
:104D6000BE016F5F7F4F89EC95E00E94DC1B1092C3
:104D7000CE061092CD0644244394612C32E3C32E18
:104D800031E0D32E80910706823069F480910606C7
:104D9000882321F0109206060E947F098091070661
:104DA0008130A1F711C081110FC064E672E081EB80
:104DB00094E00E948F111092DD061092DF0610928F
:104DC000DE060E947F09E9C180910606882321F052
:104DD000109206060E947F098091DD0681113AC07B
:104DE0000E94DD212091D0063091D1064091D2065B
:104DF0005091D306DC01CB01821B930BA40BB50BA6
:104E0000893E9340A105B10528F1E091E205F091BA
:104E1000E305309709F4CAC1228533854485558559
:104E2000A8EEB3E00E947E29309709F4C3C123891C
:104E30003489458956890E945629C9010E94052056
:104E40000E94DD216093D0067093D1068093D20634
:104E50009093D306E091E205F091E305309771F06D
:104E6000438954896589768982859385A485B5852A
:104E7000481759076A077B0709F489C02090CE06B6
:104E800055245394520C85E0581611F0852D01C01D
:104E900080E09091CD06981391C179C089EC95E09E
:104EA0000E943F248832D9F4E091E205F091E305B5
:104EB000309709F48AC14285538564857585838955
:104EC0009489A589B689481759076A077B0709F0AD
:104ED0007CC189EC95E00E94C822892BF9F6E0910B
:104EE000E205F091E305309709F477C18285938557
:104EF000A485B5858096A11DB11D309709F471C1B7
:104F00004389548965897689481759076A077B0759
:104F100008F46DC120E2722E9DEAE92E96E0F92E8A
:104F2000312C89EC95E00E94C82201E0030D892B09
:104F300009F468C189EC95E00E943524F70180836B
:104F40008A3009F05FC125E0521201C0512C8091D6
:104F5000CD068515E1F031E2239EC0011124FC014C
:104F6000E85FF94F0083FC01E75FF94F7F0140E202
:104F700050E06FEF70E0CF010E94D42A402F50E044
:104F80006DEA76E0C7010E94CB2A5092CE06F1E08E
:104F90004F12C3C00091CD068091CE06081709F4C8
:104FA00099C021E2029FB0011124FB01E85FF94F93
:104FB0006080E62CF12C675F794FA701CE01019646
:104FC0000E94CB2A0F5F053009F400E00093CD0664
:104FD0003EEF631609F47EC0A701BE016F5F7F4FED
:104FE00081EB94E00E94DA0F5EEF560D90E080E0D6
:104FF00048E0851708F091C0282F30E0823050F04B
:10500000EFEFFFEFEC0FFD1FE20FF31F60816E3239
:1050100009F490E0E1E0F0E0EC0FFD1FE20FF31F78
:1050200020812F7D283541F4F601242F11922A95F5
:10503000E9F78F5F10E01EC0293541F4F401242FF9
:1050400011922A95E9F78F5F10E024C02A3541F4C8
:10505000F501242F11922A95E9F78F5F10E02AC0FD
:10506000913041F028F09230A9F0933011F622C02F
:105070008F5FBFCFE12FF0E0EE5CFE4FA1E0B0E02C
:10508000AC0FBD1FA80FB11D9C9190838F5F1F5F58
:1050900091E0AFCFE12FF0E0E65DFE4FA1E0B0E0A0
:1050A000AC0FBD1FA80FB11D9C9190838F5F1F5F38
:1050B00092E09FCFE12FF0E0EE5DFE4FA1E0B0E087
:1050C000AC0FBD1FA80FB11D9C9190838F5F1F5F18
:1050D00093E08FCFE091E205F091E305309729F05E
:1050E000228533854485558503C02FEF3FEFA90105
:1050F000A8EEB3E00E947E29309729F023893489F5
:105100004589568903C020E030E0A9010E94562954
:10511000C9010E9405208EEF682E0E94DD211B012F
:105120002C0181EB94E00E9413108B3631F48091B6
:10513000CF068F5F8093CF0602C08A33C1F3809180
:10514000CF06823029F41092CF06442443940DC038
:105150000E94DD21DC01CB0182199309A409B50964
:105160004597A105B105E8F2412CE091E205F091E7
:10517000E305309709F406CE438954896589768919
:1051800082859385A485B585481759076A077B07EB
:1051900009F0F8CD3EEF6312F5CD1092070689ECC9
:1051A00095E00E94DB190E94DC109ECD2FEF3FEFAF
:1051B000A90136CE20E030E0A9013DCE80E2EDEA43
:1051C000F6E011928A95E9F784CE89EC95E00E9489
:1051D00035240A9709F068CE7CCE8FEF9FEFDC0173
:1051E00089CE892B8A2B8B2B09F494CE02C073882D
:1051F00001C0712C309711F0828501C08FEF781AB1
:1052000041F08ACE302EFFEFEF1AFF0A071189CE48
:105210009ACE00E098CEBB274A3031F4992322F48D
:10522000BDE2909581959F4F0C941729BB27FB01F8
:105230005527AA27880F991FAA1FA41710F0A41B8F
:1052400083955051B9F7A05DAA3308F0A95DA193E9
:10525000009779F7B111B1931192CB010C943029D9
:10526000DC01FC01672F71917723E1F7329704C0CD
:105270007C916D9370836291AE17BF07C8F3089558
:10528000F999FECF92BD81BDF89A992780B508950E
:10529000262FF999FECF1FBA92BD81BD20BD0FB652
:1052A000F894FA9AF99A0FBE01960895A1E21A2E7F
:1052B000AA1BBB1BFD010DC0AA1FBB1FEE1FFF1FBA
:1052C000A217B307E407F50720F0A21BB30BE40B0A
:1052D000F50B661F771F881F991F1A9469F7609551
:1052E0007095809590959B01AC01BD01CF0108950B
:1052F000EE0FFF1F0590F491E02D09940E9489297B
:10530000A59F900DB49F900DA49F800D911D112419
:105310000895A29FB001B39FC001A39F700D811D8E
:105320001124911DB29F700D811D1124911D0895AE
:105330000F931F93CF93DF938230910510F482E097
:1053400090E0E0911007F091110720E030E0A0E03C
:10535000B0E0309719F140815181028113814817E3
:105360005907C8F08417950769F4109731F0129621
:105370000C93129713961C9327C000931007109359
:10538000110722C02115310519F04217530718F4EF
:105390009A01BD01EF01DF01F801DBCF21153105D5
:1053A000F9F0281B390B2430310580F48A819B8168
:1053B0006115710521F0FB019383828304C09093F2
:1053C000110780931007FE01329644C0FE01E20FE0
:1053D000F31F8193919322503109398328833AC076
:1053E00020910E0730910F07232B41F420913D01AE
:1053F00030913E0130930F0720930E0720913B011F
:1054000030913C012115310541F42DB73EB7409153
:105410003F0150914001241B350BE0910E07F091A4
:105420000F07E217F307A0F42E1B3F0B28173907CD
:1054300078F0AC014E5F5F4F2417350748F04E0FF0
:105440005F1F50930F0740930E078193919302C003
:10545000E0E0F0E0CF01DF91CF911F910F9108952F
:10546000CF93DF93009709F481C0FC013297138238
:105470001282A0911007B0911107109781F420813A
:105480003181820F931F20910E0730910F0728174B
:10549000390751F5F0930F07E0930E0767C0ED0150
:1054A00020E030E0CE17DF0740F44A815B819E01A7
:1054B00041155105F1F0EA01F5CFD383C283408154
:1054C0005181840F951FC817D90759F48881998194
:1054D000840F951F0296918380838A819B81938399
:1054E00082832115310529F4F0931107E093100709
:1054F0003DC0E901FB83EA8349915991C40FD51F4F
:10550000EC17FD0761F480819181840F951F02964D
:10551000E90199838883828193819B838A83E0E078
:10552000F0E012968D919C911397009719F0FD0170
:10553000DC01F7CF8D919C9111979D012E5F3F4F1C
:10554000820F931F20910E0730910F0728173907FC
:1055500069F4309729F4109211071092100702C0D5
:1055600013821282B0930F07A0930E07DF91CF91A1
:10557000089581E090E0F8940C94FC2AFB01DC0192
:1055800004C08D910190801921F441505040C8F71A
:10559000881B990B0895FB01DC0102C001900D925C
:1055A00041505040D8F70895DC0101C06D9341503F
:1055B0005040E0F70895FC018191861721F088237F
:1055C000D9F7992708953197CF010895FB01DC01A0
:1055D00001900D920020E1F70895FB01DC0141509C
:1055E000504048F001900D920020C9F701C01D9273
:0C55F00041505040E0F70895F894FFCFC0
:1055FC00FFFFFFFFFFA81CA81C00000102140800FD
:10560C00000004021F02040000040E1F041C000012
:10561C000001302E300000000000302E3000000061
:10562C000000302E300000000000FF000012078048
:10563C0000202020200320202003202020032020D5
:10564C0020032020200320202020000040001400F4
:10565C005400000000000000E92207235201FF2241
:10566C00C82235243F2400000000A91CDA0F520187
:10567C005101A91CA91CA91C000000006D10DA0F17
:10568C000410BA10351013102710000000009118E8
:10569C00DA0F52015101000000007105DA0F5201BE
:1056AC00510100000000A91CDA0F520151015000F9
:1056BC006E6F207364636172642100696E69746932
:1056CC00616C697A6174696F6E206661696C65647E
:1056DC002100696E697469616C697A6174696F6EB5
:1056EC0020646F6E652E002F0053504545443A00E0
:1056FC0024480A0024580A004739322058302059CF
:10570C0030205A300A004739300A004732382E31DF
:10571C000A004732380A004D33002433323D300A38
:10572C00002433323D310A004731004632303030EC
:10573C00004739310A00472D53656E646572205657
:10574C00322E3300506F7765726564206279204C7D
:0E575C00454B4E004D332053300A000D0A001D
:00000001FF
